{
  "contracts/BohriumMining.sol": {
    "BohriumMining": {
      "abi": [
        {
          "inputs": [
            {
              "internalType": "address",
              "name": "_bohriumTokenAddress",
              "type": "address"
            }
          ],
          "stateMutability": "nonpayable",
          "type": "constructor"
        },
        {
          "anonymous": false,
          "inputs": [
            {
              "indexed": true,
              "internalType": "address",
              "name": "miner",
              "type": "address"
            },
            {
              "indexed": true,
              "internalType": "uint256",
              "name": "blockHeight",
              "type": "uint256"
            },
            {
              "indexed": false,
              "internalType": "uint256",
              "name": "nonce",
              "type": "uint256"
            },
            {
              "indexed": false,
              "internalType": "uint256",
              "name": "reward",
              "type": "uint256"
            },
            {
              "indexed": false,
              "internalType": "uint256",
              "name": "timeTaken",
              "type": "uint256"
            }
          ],
          "name": "BlockMined",
          "type": "event"
        },
        {
          "anonymous": false,
          "inputs": [
            {
              "indexed": false,
              "internalType": "uint256",
              "name": "newDifficulty",
              "type": "uint256"
            }
          ],
          "name": "DifficultyAdjusted",
          "type": "event"
        },
        {
          "anonymous": false,
          "inputs": [
            {
              "indexed": false,
              "internalType": "uint256",
              "name": "newReward",
              "type": "uint256"
            }
          ],
          "name": "RewardHalved",
          "type": "event"
        },
        {
          "inputs": [],
          "name": "DIFFICULTY_ADJUSTMENT_INTERVAL",
          "outputs": [
            {
              "internalType": "uint256",
              "name": "",
              "type": "uint256"
            }
          ],
          "stateMutability": "view",
          "type": "function"
        },
        {
          "inputs": [],
          "name": "HALVING_INTERVAL",
          "outputs": [
            {
              "internalType": "uint256",
              "name": "",
              "type": "uint256"
            }
          ],
          "stateMutability": "view",
          "type": "function"
        },
        {
          "inputs": [],
          "name": "INITIAL_REWARD",
          "outputs": [
            {
              "internalType": "uint256",
              "name": "",
              "type": "uint256"
            }
          ],
          "stateMutability": "view",
          "type": "function"
        },
        {
          "inputs": [],
          "name": "TARGET_BLOCK_TIME",
          "outputs": [
            {
              "internalType": "uint256",
              "name": "",
              "type": "uint256"
            }
          ],
          "stateMutability": "view",
          "type": "function"
        },
        {
          "inputs": [],
          "name": "blockHeight",
          "outputs": [
            {
              "internalType": "uint256",
              "name": "",
              "type": "uint256"
            }
          ],
          "stateMutability": "view",
          "type": "function"
        },
        {
          "inputs": [],
          "name": "bohriumToken",
          "outputs": [
            {
              "internalType": "contract IBohriumToken",
              "name": "",
              "type": "address"
            }
          ],
          "stateMutability": "view",
          "type": "function"
        },
        {
          "inputs": [],
          "name": "currentDifficulty",
          "outputs": [
            {
              "internalType": "uint256",
              "name": "",
              "type": "uint256"
            }
          ],
          "stateMutability": "view",
          "type": "function"
        },
        {
          "inputs": [],
          "name": "currentReward",
          "outputs": [
            {
              "internalType": "uint256",
              "name": "",
              "type": "uint256"
            }
          ],
          "stateMutability": "view",
          "type": "function"
        },
        {
          "inputs": [],
          "name": "lastBlockHash",
          "outputs": [
            {
              "internalType": "bytes32",
              "name": "",
              "type": "bytes32"
            }
          ],
          "stateMutability": "view",
          "type": "function"
        },
        {
          "inputs": [],
          "name": "lastBlockTimestamp",
          "outputs": [
            {
              "internalType": "uint256",
              "name": "",
              "type": "uint256"
            }
          ],
          "stateMutability": "view",
          "type": "function"
        },
        {
          "inputs": [],
          "name": "lastHalvingTimestamp",
          "outputs": [
            {
              "internalType": "uint256",
              "name": "",
              "type": "uint256"
            }
          ],
          "stateMutability": "view",
          "type": "function"
        },
        {
          "inputs": [
            {
              "internalType": "uint256",
              "name": "_difficulty",
              "type": "uint256"
            }
          ],
          "name": "setCurrentDifficulty",
          "outputs": [],
          "stateMutability": "nonpayable",
          "type": "function"
        },
        {
          "inputs": [
            {
              "internalType": "uint256",
              "name": "nonce",
              "type": "uint256"
            }
          ],
          "name": "submitBlock",
          "outputs": [],
          "stateMutability": "nonpayable",
          "type": "function"
        }
      ],
      "evm": {
        "bytecode": {
          "linkReferences": {},
          "object": "60a060405234801561001057600080fd5b50604051610cf5380380610cf583398181016040528101906100329190610112565b8073ffffffffffffffffffffffffffffffffffffffff1660808173ffffffffffffffffffffffffffffffffffffffff1681525050426001819055504260028190555060187fffffffffffffffffffffffffffffffffffffffffffffffffffffffffffffffff901c6000819055506000801b6004819055505061013f565b600080fd5b600073ffffffffffffffffffffffffffffffffffffffff82169050919050565b60006100df826100b4565b9050919050565b6100ef816100d4565b81146100fa57600080fd5b50565b60008151905061010c816100e6565b92915050565b600060208284031215610128576101276100af565b5b6000610136848285016100fd565b91505092915050565b608051610b94610161600039600081816102b201526103a10152610b946000f3fe608060405234801561001057600080fd5b50600436106100cf5760003560e01c80635c0ecfad1161008c57806385e63fc61161006657806385e63fc6146101e0578063a8e2f935146101fe578063f44ff7121461021a578063f7d1340714610238576100cf565b80635c0ecfad146101885780635fd9491d146101a657806373e9710f146101c4576100cf565b806307621eca146100d457806317ab667f146100f257806336bcf7d614610110578063391e0d091461012e578063474c9ea21461014c5780635c062d6c1461016a575b600080fd5b6100dc610256565b6040516100e9919061068f565b60405180910390f35b6100fa6102b0565b6040516101079190610729565b60405180910390f35b6101186102d4565b604051610125919061068f565b60405180910390f35b6101366102e0565b604051610143919061068f565b60405180910390f35b6101546102e6565b604051610161919061068f565b60405180910390f35b6101726102eb565b60405161017f919061068f565b60405180910390f35b6101906102f1565b60405161019d919061075d565b60405180910390f35b6101ae6102f7565b6040516101bb919061068f565b60405180910390f35b6101de60048036038101906101d991906107a9565b6102ff565b005b6101e861052c565b6040516101f5919061068f565b60405180910390f35b610218600480360381019061021391906107a9565b610532565b005b61022261053c565b60405161022f919061068f565b60405180910390f35b610240610542565b60405161024d919061068f565b60405180910390f35b600080600154426102679190610805565b905060006301e133808261027b9190610868565b9050600081678ac7230489e80000901c9050655af3107a400081116102a657655af3107a40006102a8565b805b935050505090565b7f000000000000000000000000000000000000000000000000000000000000000081565b678ac7230489e8000081565b60015481565b603c81565b60005481565b60045481565b6301e1338081565b6000336004546000548460405160200161031c9493929190610935565b60405160208183030381529060405280519060200120905060008160001c9050600054811115610381576040517f08c379a0000000000000000000000000000000000000000000000000000000008152600401610378906109e0565b60405180910390fd5b6000600254426103919190610805565b9050600061039d610256565b90507f000000000000000000000000000000000000000000000000000000000000000073ffffffffffffffffffffffffffffffffffffffff166340c10f1933836040518363ffffffff1660e01b81526004016103fa929190610a0f565b600060405180830381600087803b15801561041457600080fd5b505af1158015610428573d6000803e3d6000fd5b5050505083600481905550426002819055506003600081548092919061044d90610a38565b91905055506301e133806001546104649190610a80565b42106104b057426001819055507ff92b4d3a8d8ba77170dd5cf6b65260191092093f924263a88c3c60dd8495f09161049a610256565b6040516104a7919061068f565b60405180910390a15b60006101686003546104c29190610ab4565b036104d0576104cf610548565b5b6003543373ffffffffffffffffffffffffffffffffffffffff167f29643f1d9d27232f03fde69ed2b07611552391828bd9ad615837e816c22fc35887848660405161051d93929190610ae5565b60405180910390a35050505050565b60025481565b8060008190555050565b60035481565b61016881565b6000600254426105589190610805565b90506000610168603c61056b9190610b1c565b905060048161057a9190610868565b8210156105915760048161058e9190610868565b91505b60048161059e9190610b1c565b8211156105b5576004816105b29190610b1c565b91505b600081836000546105c69190610b1c565b6105d09190610868565b9050600081036105df57600190505b60017fffffffffffffffffffffffffffffffffffffffffffffffffffffffffffffffff901c8111156106335760017fffffffffffffffffffffffffffffffffffffffffffffffffffffffffffffffff901c90505b806000819055507f42ebc15644fe1ca39e719c989e249095a01e7bf6c4e2ea33889a7e33a7664caa81604051610669919061068f565b60405180910390a1505050565b6000819050919050565b61068981610676565b82525050565b60006020820190506106a46000830184610680565b92915050565b600073ffffffffffffffffffffffffffffffffffffffff82169050919050565b6000819050919050565b60006106ef6106ea6106e5846106aa565b6106ca565b6106aa565b9050919050565b6000610701826106d4565b9050919050565b6000610713826106f6565b9050919050565b61072381610708565b82525050565b600060208201905061073e600083018461071a565b92915050565b6000819050919050565b61075781610744565b82525050565b6000602082019050610772600083018461074e565b92915050565b600080fd5b61078681610676565b811461079157600080fd5b50565b6000813590506107a38161077d565b92915050565b6000602082840312156107bf576107be610778565b5b60006107cd84828501610794565b91505092915050565b7f4e487b7100000000000000000000000000000000000000000000000000000000600052601160045260246000fd5b600061081082610676565b915061081b83610676565b9250828203905081811115610833576108326107d6565b5b92915050565b7f4e487b7100000000000000000000000000000000000000000000000000000000600052601260045260246000fd5b600061087382610676565b915061087e83610676565b92508261088e5761088d610839565b5b828204905092915050565b60006108a4826106aa565b9050919050565b60008160601b9050919050565b60006108c3826108ab565b9050919050565b60006108d5826108b8565b9050919050565b6108ed6108e882610899565b6108ca565b82525050565b6000819050919050565b61090e61090982610744565b6108f3565b82525050565b6000819050919050565b61092f61092a82610676565b610914565b82525050565b600061094182876108dc565b60148201915061095182866108fd565b602082019150610961828561091e565b602082019150610971828461091e565b60208201915081905095945050505050565b600082825260208201905092915050565b7f4861736820646f65736e2774206d65657420646966666963756c747900000000600082015250565b60006109ca601c83610983565b91506109d582610994565b602082019050919050565b600060208201905081810360008301526109f9816109bd565b9050919050565b610a0981610899565b82525050565b6000604082019050610a246000830185610a00565b610a316020830184610680565b9392505050565b6000610a4382610676565b91507fffffffffffffffffffffffffffffffffffffffffffffffffffffffffffffffff8203610a7557610a746107d6565b5b600182019050919050565b6000610a8b82610676565b9150610a9683610676565b9250828201905080821115610aae57610aad6107d6565b5b92915050565b6000610abf82610676565b9150610aca83610676565b925082610ada57610ad9610839565b5b828206905092915050565b6000606082019050610afa6000830186610680565b610b076020830185610680565b610b146040830184610680565b949350505050565b6000610b2782610676565b9150610b3283610676565b9250828202610b4081610676565b91508282048414831517610b5757610b566107d6565b5b509291505056fea26469706673582212200446a0862a40b7dd14aed7bcfdd1616a419eff0e5eef4b96997f6bf86be603e664736f6c63430008140033",
          "opcodes": "PUSH1 0xA0 PUSH1 0x40 MSTORE CALLVALUE DUP1 ISZERO PUSH2 0x10 JUMPI PUSH1 0x0 DUP1 REVERT JUMPDEST POP PUSH1 0x40 MLOAD PUSH2 0xCF5 CODESIZE SUB DUP1 PUSH2 0xCF5 DUP4 CODECOPY DUP2 DUP2 ADD PUSH1 0x40 MSTORE DUP2 ADD SWAP1 PUSH2 0x32 SWAP2 SWAP1 PUSH2 0x112 JUMP JUMPDEST DUP1 PUSH20 0xFFFFFFFFFFFFFFFFFFFFFFFFFFFFFFFFFFFFFFFF AND PUSH1 0x80 DUP2 PUSH20 0xFFFFFFFFFFFFFFFFFFFFFFFFFFFFFFFFFFFFFFFF AND DUP2 MSTORE POP POP TIMESTAMP PUSH1 0x1 DUP2 SWAP1 SSTORE POP TIMESTAMP PUSH1 0x2 DUP2 SWAP1 SSTORE POP PUSH1 0x18 PUSH32 0xFFFFFFFFFFFFFFFFFFFFFFFFFFFFFFFFFFFFFFFFFFFFFFFFFFFFFFFFFFFFFFFF SWAP1 SHR PUSH1 0x0 DUP2 SWAP1 SSTORE POP PUSH1 0x0 DUP1 SHL PUSH1 0x4 DUP2 SWAP1 SSTORE POP POP PUSH2 0x13F JUMP JUMPDEST PUSH1 0x0 DUP1 REVERT JUMPDEST PUSH1 0x0 PUSH20 0xFFFFFFFFFFFFFFFFFFFFFFFFFFFFFFFFFFFFFFFF DUP3 AND SWAP1 POP SWAP2 SWAP1 POP JUMP JUMPDEST PUSH1 0x0 PUSH2 0xDF DUP3 PUSH2 0xB4 JUMP JUMPDEST SWAP1 POP SWAP2 SWAP1 POP JUMP JUMPDEST PUSH2 0xEF DUP2 PUSH2 0xD4 JUMP JUMPDEST DUP2 EQ PUSH2 0xFA JUMPI PUSH1 0x0 DUP1 REVERT JUMPDEST POP JUMP JUMPDEST PUSH1 0x0 DUP2 MLOAD SWAP1 POP PUSH2 0x10C DUP2 PUSH2 0xE6 JUMP JUMPDEST SWAP3 SWAP2 POP POP JUMP JUMPDEST PUSH1 0x0 PUSH1 0x20 DUP3 DUP5 SUB SLT ISZERO PUSH2 0x128 JUMPI PUSH2 0x127 PUSH2 0xAF JUMP JUMPDEST JUMPDEST PUSH1 0x0 PUSH2 0x136 DUP5 DUP3 DUP6 ADD PUSH2 0xFD JUMP JUMPDEST SWAP2 POP POP SWAP3 SWAP2 POP POP JUMP JUMPDEST PUSH1 0x80 MLOAD PUSH2 0xB94 PUSH2 0x161 PUSH1 0x0 CODECOPY PUSH1 0x0 DUP2 DUP2 PUSH2 0x2B2 ADD MSTORE PUSH2 0x3A1 ADD MSTORE PUSH2 0xB94 PUSH1 0x0 RETURN INVALID PUSH1 0x80 PUSH1 0x40 MSTORE CALLVALUE DUP1 ISZERO PUSH2 0x10 JUMPI PUSH1 0x0 DUP1 REVERT JUMPDEST POP PUSH1 0x4 CALLDATASIZE LT PUSH2 0xCF JUMPI PUSH1 0x0 CALLDATALOAD PUSH1 0xE0 SHR DUP1 PUSH4 0x5C0ECFAD GT PUSH2 0x8C JUMPI DUP1 PUSH4 0x85E63FC6 GT PUSH2 0x66 JUMPI DUP1 PUSH4 0x85E63FC6 EQ PUSH2 0x1E0 JUMPI DUP1 PUSH4 0xA8E2F935 EQ PUSH2 0x1FE JUMPI DUP1 PUSH4 0xF44FF712 EQ PUSH2 0x21A JUMPI DUP1 PUSH4 0xF7D13407 EQ PUSH2 0x238 JUMPI PUSH2 0xCF JUMP JUMPDEST DUP1 PUSH4 0x5C0ECFAD EQ PUSH2 0x188 JUMPI DUP1 PUSH4 0x5FD9491D EQ PUSH2 0x1A6 JUMPI DUP1 PUSH4 0x73E9710F EQ PUSH2 0x1C4 JUMPI PUSH2 0xCF JUMP JUMPDEST DUP1 PUSH4 0x7621ECA EQ PUSH2 0xD4 JUMPI DUP1 PUSH4 0x17AB667F EQ PUSH2 0xF2 JUMPI DUP1 PUSH4 0x36BCF7D6 EQ PUSH2 0x110 JUMPI DUP1 PUSH4 0x391E0D09 EQ PUSH2 0x12E JUMPI DUP1 PUSH4 0x474C9EA2 EQ PUSH2 0x14C JUMPI DUP1 PUSH4 0x5C062D6C EQ PUSH2 0x16A JUMPI JUMPDEST PUSH1 0x0 DUP1 REVERT JUMPDEST PUSH2 0xDC PUSH2 0x256 JUMP JUMPDEST PUSH1 0x40 MLOAD PUSH2 0xE9 SWAP2 SWAP1 PUSH2 0x68F JUMP JUMPDEST PUSH1 0x40 MLOAD DUP1 SWAP2 SUB SWAP1 RETURN JUMPDEST PUSH2 0xFA PUSH2 0x2B0 JUMP JUMPDEST PUSH1 0x40 MLOAD PUSH2 0x107 SWAP2 SWAP1 PUSH2 0x729 JUMP JUMPDEST PUSH1 0x40 MLOAD DUP1 SWAP2 SUB SWAP1 RETURN JUMPDEST PUSH2 0x118 PUSH2 0x2D4 JUMP JUMPDEST PUSH1 0x40 MLOAD PUSH2 0x125 SWAP2 SWAP1 PUSH2 0x68F JUMP JUMPDEST PUSH1 0x40 MLOAD DUP1 SWAP2 SUB SWAP1 RETURN JUMPDEST PUSH2 0x136 PUSH2 0x2E0 JUMP JUMPDEST PUSH1 0x40 MLOAD PUSH2 0x143 SWAP2 SWAP1 PUSH2 0x68F JUMP JUMPDEST PUSH1 0x40 MLOAD DUP1 SWAP2 SUB SWAP1 RETURN JUMPDEST PUSH2 0x154 PUSH2 0x2E6 JUMP JUMPDEST PUSH1 0x40 MLOAD PUSH2 0x161 SWAP2 SWAP1 PUSH2 0x68F JUMP JUMPDEST PUSH1 0x40 MLOAD DUP1 SWAP2 SUB SWAP1 RETURN JUMPDEST PUSH2 0x172 PUSH2 0x2EB JUMP JUMPDEST PUSH1 0x40 MLOAD PUSH2 0x17F SWAP2 SWAP1 PUSH2 0x68F JUMP JUMPDEST PUSH1 0x40 MLOAD DUP1 SWAP2 SUB SWAP1 RETURN JUMPDEST PUSH2 0x190 PUSH2 0x2F1 JUMP JUMPDEST PUSH1 0x40 MLOAD PUSH2 0x19D SWAP2 SWAP1 PUSH2 0x75D JUMP JUMPDEST PUSH1 0x40 MLOAD DUP1 SWAP2 SUB SWAP1 RETURN JUMPDEST PUSH2 0x1AE PUSH2 0x2F7 JUMP JUMPDEST PUSH1 0x40 MLOAD PUSH2 0x1BB SWAP2 SWAP1 PUSH2 0x68F JUMP JUMPDEST PUSH1 0x40 MLOAD DUP1 SWAP2 SUB SWAP1 RETURN JUMPDEST PUSH2 0x1DE PUSH1 0x4 DUP1 CALLDATASIZE SUB DUP2 ADD SWAP1 PUSH2 0x1D9 SWAP2 SWAP1 PUSH2 0x7A9 JUMP JUMPDEST PUSH2 0x2FF JUMP JUMPDEST STOP JUMPDEST PUSH2 0x1E8 PUSH2 0x52C JUMP JUMPDEST PUSH1 0x40 MLOAD PUSH2 0x1F5 SWAP2 SWAP1 PUSH2 0x68F JUMP JUMPDEST PUSH1 0x40 MLOAD DUP1 SWAP2 SUB SWAP1 RETURN JUMPDEST PUSH2 0x218 PUSH1 0x4 DUP1 CALLDATASIZE SUB DUP2 ADD SWAP1 PUSH2 0x213 SWAP2 SWAP1 PUSH2 0x7A9 JUMP JUMPDEST PUSH2 0x532 JUMP JUMPDEST STOP JUMPDEST PUSH2 0x222 PUSH2 0x53C JUMP JUMPDEST PUSH1 0x40 MLOAD PUSH2 0x22F SWAP2 SWAP1 PUSH2 0x68F JUMP JUMPDEST PUSH1 0x40 MLOAD DUP1 SWAP2 SUB SWAP1 RETURN JUMPDEST PUSH2 0x240 PUSH2 0x542 JUMP JUMPDEST PUSH1 0x40 MLOAD PUSH2 0x24D SWAP2 SWAP1 PUSH2 0x68F JUMP JUMPDEST PUSH1 0x40 MLOAD DUP1 SWAP2 SUB SWAP1 RETURN JUMPDEST PUSH1 0x0 DUP1 PUSH1 0x1 SLOAD TIMESTAMP PUSH2 0x267 SWAP2 SWAP1 PUSH2 0x805 JUMP JUMPDEST SWAP1 POP PUSH1 0x0 PUSH4 0x1E13380 DUP3 PUSH2 0x27B SWAP2 SWAP1 PUSH2 0x868 JUMP JUMPDEST SWAP1 POP PUSH1 0x0 DUP2 PUSH8 0x8AC7230489E80000 SWAP1 SHR SWAP1 POP PUSH6 0x5AF3107A4000 DUP2 GT PUSH2 0x2A6 JUMPI PUSH6 0x5AF3107A4000 PUSH2 0x2A8 JUMP JUMPDEST DUP1 JUMPDEST SWAP4 POP POP POP POP SWAP1 JUMP JUMPDEST PUSH32 0x0 DUP2 JUMP JUMPDEST PUSH8 0x8AC7230489E80000 DUP2 JUMP JUMPDEST PUSH1 0x1 SLOAD DUP2 JUMP JUMPDEST PUSH1 0x3C DUP2 JUMP JUMPDEST PUSH1 0x0 SLOAD DUP2 JUMP JUMPDEST PUSH1 0x4 SLOAD DUP2 JUMP JUMPDEST PUSH4 0x1E13380 DUP2 JUMP JUMPDEST PUSH1 0x0 CALLER PUSH1 0x4 SLOAD PUSH1 0x0 SLOAD DUP5 PUSH1 0x40 MLOAD PUSH1 0x20 ADD PUSH2 0x31C SWAP5 SWAP4 SWAP3 SWAP2 SWAP1 PUSH2 0x935 JUMP JUMPDEST PUSH1 0x40 MLOAD PUSH1 0x20 DUP2 DUP4 SUB SUB DUP2 MSTORE SWAP1 PUSH1 0x40 MSTORE DUP1 MLOAD SWAP1 PUSH1 0x20 ADD KECCAK256 SWAP1 POP PUSH1 0x0 DUP2 PUSH1 0x0 SHR SWAP1 POP PUSH1 0x0 SLOAD DUP2 GT ISZERO PUSH2 0x381 JUMPI PUSH1 0x40 MLOAD PUSH32 0x8C379A000000000000000000000000000000000000000000000000000000000 DUP2 MSTORE PUSH1 0x4 ADD PUSH2 0x378 SWAP1 PUSH2 0x9E0 JUMP JUMPDEST PUSH1 0x40 MLOAD DUP1 SWAP2 SUB SWAP1 REVERT JUMPDEST PUSH1 0x0 PUSH1 0x2 SLOAD TIMESTAMP PUSH2 0x391 SWAP2 SWAP1 PUSH2 0x805 JUMP JUMPDEST SWAP1 POP PUSH1 0x0 PUSH2 0x39D PUSH2 0x256 JUMP JUMPDEST SWAP1 POP PUSH32 0x0 PUSH20 0xFFFFFFFFFFFFFFFFFFFFFFFFFFFFFFFFFFFFFFFF AND PUSH4 0x40C10F19 CALLER DUP4 PUSH1 0x40 MLOAD DUP4 PUSH4 0xFFFFFFFF AND PUSH1 0xE0 SHL DUP2 MSTORE PUSH1 0x4 ADD PUSH2 0x3FA SWAP3 SWAP2 SWAP1 PUSH2 0xA0F JUMP JUMPDEST PUSH1 0x0 PUSH1 0x40 MLOAD DUP1 DUP4 SUB DUP2 PUSH1 0x0 DUP8 DUP1 EXTCODESIZE ISZERO DUP1 ISZERO PUSH2 0x414 JUMPI PUSH1 0x0 DUP1 REVERT JUMPDEST POP GAS CALL ISZERO DUP1 ISZERO PUSH2 0x428 JUMPI RETURNDATASIZE PUSH1 0x0 DUP1 RETURNDATACOPY RETURNDATASIZE PUSH1 0x0 REVERT JUMPDEST POP POP POP POP DUP4 PUSH1 0x4 DUP2 SWAP1 SSTORE POP TIMESTAMP PUSH1 0x2 DUP2 SWAP1 SSTORE POP PUSH1 0x3 PUSH1 0x0 DUP2 SLOAD DUP1 SWAP3 SWAP2 SWAP1 PUSH2 0x44D SWAP1 PUSH2 0xA38 JUMP JUMPDEST SWAP2 SWAP1 POP SSTORE POP PUSH4 0x1E13380 PUSH1 0x1 SLOAD PUSH2 0x464 SWAP2 SWAP1 PUSH2 0xA80 JUMP JUMPDEST TIMESTAMP LT PUSH2 0x4B0 JUMPI TIMESTAMP PUSH1 0x1 DUP2 SWAP1 SSTORE POP PUSH32 0xF92B4D3A8D8BA77170DD5CF6B65260191092093F924263A88C3C60DD8495F091 PUSH2 0x49A PUSH2 0x256 JUMP JUMPDEST PUSH1 0x40 MLOAD PUSH2 0x4A7 SWAP2 SWAP1 PUSH2 0x68F JUMP JUMPDEST PUSH1 0x40 MLOAD DUP1 SWAP2 SUB SWAP1 LOG1 JUMPDEST PUSH1 0x0 PUSH2 0x168 PUSH1 0x3 SLOAD PUSH2 0x4C2 SWAP2 SWAP1 PUSH2 0xAB4 JUMP JUMPDEST SUB PUSH2 0x4D0 JUMPI PUSH2 0x4CF PUSH2 0x548 JUMP JUMPDEST JUMPDEST PUSH1 0x3 SLOAD CALLER PUSH20 0xFFFFFFFFFFFFFFFFFFFFFFFFFFFFFFFFFFFFFFFF AND PUSH32 0x29643F1D9D27232F03FDE69ED2B07611552391828BD9AD615837E816C22FC358 DUP8 DUP5 DUP7 PUSH1 0x40 MLOAD PUSH2 0x51D SWAP4 SWAP3 SWAP2 SWAP1 PUSH2 0xAE5 JUMP JUMPDEST PUSH1 0x40 MLOAD DUP1 SWAP2 SUB SWAP1 LOG3 POP POP POP POP POP JUMP JUMPDEST PUSH1 0x2 SLOAD DUP2 JUMP JUMPDEST DUP1 PUSH1 0x0 DUP2 SWAP1 SSTORE POP POP JUMP JUMPDEST PUSH1 0x3 SLOAD DUP2 JUMP JUMPDEST PUSH2 0x168 DUP2 JUMP JUMPDEST PUSH1 0x0 PUSH1 0x2 SLOAD TIMESTAMP PUSH2 0x558 SWAP2 SWAP1 PUSH2 0x805 JUMP JUMPDEST SWAP1 POP PUSH1 0x0 PUSH2 0x168 PUSH1 0x3C PUSH2 0x56B SWAP2 SWAP1 PUSH2 0xB1C JUMP JUMPDEST SWAP1 POP PUSH1 0x4 DUP2 PUSH2 0x57A SWAP2 SWAP1 PUSH2 0x868 JUMP JUMPDEST DUP3 LT ISZERO PUSH2 0x591 JUMPI PUSH1 0x4 DUP2 PUSH2 0x58E SWAP2 SWAP1 PUSH2 0x868 JUMP JUMPDEST SWAP2 POP JUMPDEST PUSH1 0x4 DUP2 PUSH2 0x59E SWAP2 SWAP1 PUSH2 0xB1C JUMP JUMPDEST DUP3 GT ISZERO PUSH2 0x5B5 JUMPI PUSH1 0x4 DUP2 PUSH2 0x5B2 SWAP2 SWAP1 PUSH2 0xB1C JUMP JUMPDEST SWAP2 POP JUMPDEST PUSH1 0x0 DUP2 DUP4 PUSH1 0x0 SLOAD PUSH2 0x5C6 SWAP2 SWAP1 PUSH2 0xB1C JUMP JUMPDEST PUSH2 0x5D0 SWAP2 SWAP1 PUSH2 0x868 JUMP JUMPDEST SWAP1 POP PUSH1 0x0 DUP2 SUB PUSH2 0x5DF JUMPI PUSH1 0x1 SWAP1 POP JUMPDEST PUSH1 0x1 PUSH32 0xFFFFFFFFFFFFFFFFFFFFFFFFFFFFFFFFFFFFFFFFFFFFFFFFFFFFFFFFFFFFFFFF SWAP1 SHR DUP2 GT ISZERO PUSH2 0x633 JUMPI PUSH1 0x1 PUSH32 0xFFFFFFFFFFFFFFFFFFFFFFFFFFFFFFFFFFFFFFFFFFFFFFFFFFFFFFFFFFFFFFFF SWAP1 SHR SWAP1 POP JUMPDEST DUP1 PUSH1 0x0 DUP2 SWAP1 SSTORE POP PUSH32 0x42EBC15644FE1CA39E719C989E249095A01E7BF6C4E2EA33889A7E33A7664CAA DUP2 PUSH1 0x40 MLOAD PUSH2 0x669 SWAP2 SWAP1 PUSH2 0x68F JUMP JUMPDEST PUSH1 0x40 MLOAD DUP1 SWAP2 SUB SWAP1 LOG1 POP POP POP JUMP JUMPDEST PUSH1 0x0 DUP2 SWAP1 POP SWAP2 SWAP1 POP JUMP JUMPDEST PUSH2 0x689 DUP2 PUSH2 0x676 JUMP JUMPDEST DUP3 MSTORE POP POP JUMP JUMPDEST PUSH1 0x0 PUSH1 0x20 DUP3 ADD SWAP1 POP PUSH2 0x6A4 PUSH1 0x0 DUP4 ADD DUP5 PUSH2 0x680 JUMP JUMPDEST SWAP3 SWAP2 POP POP JUMP JUMPDEST PUSH1 0x0 PUSH20 0xFFFFFFFFFFFFFFFFFFFFFFFFFFFFFFFFFFFFFFFF DUP3 AND SWAP1 POP SWAP2 SWAP1 POP JUMP JUMPDEST PUSH1 0x0 DUP2 SWAP1 POP SWAP2 SWAP1 POP JUMP JUMPDEST PUSH1 0x0 PUSH2 0x6EF PUSH2 0x6EA PUSH2 0x6E5 DUP5 PUSH2 0x6AA JUMP JUMPDEST PUSH2 0x6CA JUMP JUMPDEST PUSH2 0x6AA JUMP JUMPDEST SWAP1 POP SWAP2 SWAP1 POP JUMP JUMPDEST PUSH1 0x0 PUSH2 0x701 DUP3 PUSH2 0x6D4 JUMP JUMPDEST SWAP1 POP SWAP2 SWAP1 POP JUMP JUMPDEST PUSH1 0x0 PUSH2 0x713 DUP3 PUSH2 0x6F6 JUMP JUMPDEST SWAP1 POP SWAP2 SWAP1 POP JUMP JUMPDEST PUSH2 0x723 DUP2 PUSH2 0x708 JUMP JUMPDEST DUP3 MSTORE POP POP JUMP JUMPDEST PUSH1 0x0 PUSH1 0x20 DUP3 ADD SWAP1 POP PUSH2 0x73E PUSH1 0x0 DUP4 ADD DUP5 PUSH2 0x71A JUMP JUMPDEST SWAP3 SWAP2 POP POP JUMP JUMPDEST PUSH1 0x0 DUP2 SWAP1 POP SWAP2 SWAP1 POP JUMP JUMPDEST PUSH2 0x757 DUP2 PUSH2 0x744 JUMP JUMPDEST DUP3 MSTORE POP POP JUMP JUMPDEST PUSH1 0x0 PUSH1 0x20 DUP3 ADD SWAP1 POP PUSH2 0x772 PUSH1 0x0 DUP4 ADD DUP5 PUSH2 0x74E JUMP JUMPDEST SWAP3 SWAP2 POP POP JUMP JUMPDEST PUSH1 0x0 DUP1 REVERT JUMPDEST PUSH2 0x786 DUP2 PUSH2 0x676 JUMP JUMPDEST DUP2 EQ PUSH2 0x791 JUMPI PUSH1 0x0 DUP1 REVERT JUMPDEST POP JUMP JUMPDEST PUSH1 0x0 DUP2 CALLDATALOAD SWAP1 POP PUSH2 0x7A3 DUP2 PUSH2 0x77D JUMP JUMPDEST SWAP3 SWAP2 POP POP JUMP JUMPDEST PUSH1 0x0 PUSH1 0x20 DUP3 DUP5 SUB SLT ISZERO PUSH2 0x7BF JUMPI PUSH2 0x7BE PUSH2 0x778 JUMP JUMPDEST JUMPDEST PUSH1 0x0 PUSH2 0x7CD DUP5 DUP3 DUP6 ADD PUSH2 0x794 JUMP JUMPDEST SWAP2 POP POP SWAP3 SWAP2 POP POP JUMP JUMPDEST PUSH32 0x4E487B7100000000000000000000000000000000000000000000000000000000 PUSH1 0x0 MSTORE PUSH1 0x11 PUSH1 0x4 MSTORE PUSH1 0x24 PUSH1 0x0 REVERT JUMPDEST PUSH1 0x0 PUSH2 0x810 DUP3 PUSH2 0x676 JUMP JUMPDEST SWAP2 POP PUSH2 0x81B DUP4 PUSH2 0x676 JUMP JUMPDEST SWAP3 POP DUP3 DUP3 SUB SWAP1 POP DUP2 DUP2 GT ISZERO PUSH2 0x833 JUMPI PUSH2 0x832 PUSH2 0x7D6 JUMP JUMPDEST JUMPDEST SWAP3 SWAP2 POP POP JUMP JUMPDEST PUSH32 0x4E487B7100000000000000000000000000000000000000000000000000000000 PUSH1 0x0 MSTORE PUSH1 0x12 PUSH1 0x4 MSTORE PUSH1 0x24 PUSH1 0x0 REVERT JUMPDEST PUSH1 0x0 PUSH2 0x873 DUP3 PUSH2 0x676 JUMP JUMPDEST SWAP2 POP PUSH2 0x87E DUP4 PUSH2 0x676 JUMP JUMPDEST SWAP3 POP DUP3 PUSH2 0x88E JUMPI PUSH2 0x88D PUSH2 0x839 JUMP JUMPDEST JUMPDEST DUP3 DUP3 DIV SWAP1 POP SWAP3 SWAP2 POP POP JUMP JUMPDEST PUSH1 0x0 PUSH2 0x8A4 DUP3 PUSH2 0x6AA JUMP JUMPDEST SWAP1 POP SWAP2 SWAP1 POP JUMP JUMPDEST PUSH1 0x0 DUP2 PUSH1 0x60 SHL SWAP1 POP SWAP2 SWAP1 POP JUMP JUMPDEST PUSH1 0x0 PUSH2 0x8C3 DUP3 PUSH2 0x8AB JUMP JUMPDEST SWAP1 POP SWAP2 SWAP1 POP JUMP JUMPDEST PUSH1 0x0 PUSH2 0x8D5 DUP3 PUSH2 0x8B8 JUMP JUMPDEST SWAP1 POP SWAP2 SWAP1 POP JUMP JUMPDEST PUSH2 0x8ED PUSH2 0x8E8 DUP3 PUSH2 0x899 JUMP JUMPDEST PUSH2 0x8CA JUMP JUMPDEST DUP3 MSTORE POP POP JUMP JUMPDEST PUSH1 0x0 DUP2 SWAP1 POP SWAP2 SWAP1 POP JUMP JUMPDEST PUSH2 0x90E PUSH2 0x909 DUP3 PUSH2 0x744 JUMP JUMPDEST PUSH2 0x8F3 JUMP JUMPDEST DUP3 MSTORE POP POP JUMP JUMPDEST PUSH1 0x0 DUP2 SWAP1 POP SWAP2 SWAP1 POP JUMP JUMPDEST PUSH2 0x92F PUSH2 0x92A DUP3 PUSH2 0x676 JUMP JUMPDEST PUSH2 0x914 JUMP JUMPDEST DUP3 MSTORE POP POP JUMP JUMPDEST PUSH1 0x0 PUSH2 0x941 DUP3 DUP8 PUSH2 0x8DC JUMP JUMPDEST PUSH1 0x14 DUP3 ADD SWAP2 POP PUSH2 0x951 DUP3 DUP7 PUSH2 0x8FD JUMP JUMPDEST PUSH1 0x20 DUP3 ADD SWAP2 POP PUSH2 0x961 DUP3 DUP6 PUSH2 0x91E JUMP JUMPDEST PUSH1 0x20 DUP3 ADD SWAP2 POP PUSH2 0x971 DUP3 DUP5 PUSH2 0x91E JUMP JUMPDEST PUSH1 0x20 DUP3 ADD SWAP2 POP DUP2 SWAP1 POP SWAP6 SWAP5 POP POP POP POP POP JUMP JUMPDEST PUSH1 0x0 DUP3 DUP3 MSTORE PUSH1 0x20 DUP3 ADD SWAP1 POP SWAP3 SWAP2 POP POP JUMP JUMPDEST PUSH32 0x4861736820646F65736E2774206D65657420646966666963756C747900000000 PUSH1 0x0 DUP3 ADD MSTORE POP JUMP JUMPDEST PUSH1 0x0 PUSH2 0x9CA PUSH1 0x1C DUP4 PUSH2 0x983 JUMP JUMPDEST SWAP2 POP PUSH2 0x9D5 DUP3 PUSH2 0x994 JUMP JUMPDEST PUSH1 0x20 DUP3 ADD SWAP1 POP SWAP2 SWAP1 POP JUMP JUMPDEST PUSH1 0x0 PUSH1 0x20 DUP3 ADD SWAP1 POP DUP2 DUP2 SUB PUSH1 0x0 DUP4 ADD MSTORE PUSH2 0x9F9 DUP2 PUSH2 0x9BD JUMP JUMPDEST SWAP1 POP SWAP2 SWAP1 POP JUMP JUMPDEST PUSH2 0xA09 DUP2 PUSH2 0x899 JUMP JUMPDEST DUP3 MSTORE POP POP JUMP JUMPDEST PUSH1 0x0 PUSH1 0x40 DUP3 ADD SWAP1 POP PUSH2 0xA24 PUSH1 0x0 DUP4 ADD DUP6 PUSH2 0xA00 JUMP JUMPDEST PUSH2 0xA31 PUSH1 0x20 DUP4 ADD DUP5 PUSH2 0x680 JUMP JUMPDEST SWAP4 SWAP3 POP POP POP JUMP JUMPDEST PUSH1 0x0 PUSH2 0xA43 DUP3 PUSH2 0x676 JUMP JUMPDEST SWAP2 POP PUSH32 0xFFFFFFFFFFFFFFFFFFFFFFFFFFFFFFFFFFFFFFFFFFFFFFFFFFFFFFFFFFFFFFFF DUP3 SUB PUSH2 0xA75 JUMPI PUSH2 0xA74 PUSH2 0x7D6 JUMP JUMPDEST JUMPDEST PUSH1 0x1 DUP3 ADD SWAP1 POP SWAP2 SWAP1 POP JUMP JUMPDEST PUSH1 0x0 PUSH2 0xA8B DUP3 PUSH2 0x676 JUMP JUMPDEST SWAP2 POP PUSH2 0xA96 DUP4 PUSH2 0x676 JUMP JUMPDEST SWAP3 POP DUP3 DUP3 ADD SWAP1 POP DUP1 DUP3 GT ISZERO PUSH2 0xAAE JUMPI PUSH2 0xAAD PUSH2 0x7D6 JUMP JUMPDEST JUMPDEST SWAP3 SWAP2 POP POP JUMP JUMPDEST PUSH1 0x0 PUSH2 0xABF DUP3 PUSH2 0x676 JUMP JUMPDEST SWAP2 POP PUSH2 0xACA DUP4 PUSH2 0x676 JUMP JUMPDEST SWAP3 POP DUP3 PUSH2 0xADA JUMPI PUSH2 0xAD9 PUSH2 0x839 JUMP JUMPDEST JUMPDEST DUP3 DUP3 MOD SWAP1 POP SWAP3 SWAP2 POP POP JUMP JUMPDEST PUSH1 0x0 PUSH1 0x60 DUP3 ADD SWAP1 POP PUSH2 0xAFA PUSH1 0x0 DUP4 ADD DUP7 PUSH2 0x680 JUMP JUMPDEST PUSH2 0xB07 PUSH1 0x20 DUP4 ADD DUP6 PUSH2 0x680 JUMP JUMPDEST PUSH2 0xB14 PUSH1 0x40 DUP4 ADD DUP5 PUSH2 0x680 JUMP JUMPDEST SWAP5 SWAP4 POP POP POP POP JUMP JUMPDEST PUSH1 0x0 PUSH2 0xB27 DUP3 PUSH2 0x676 JUMP JUMPDEST SWAP2 POP PUSH2 0xB32 DUP4 PUSH2 0x676 JUMP JUMPDEST SWAP3 POP DUP3 DUP3 MUL PUSH2 0xB40 DUP2 PUSH2 0x676 JUMP JUMPDEST SWAP2 POP DUP3 DUP3 DIV DUP5 EQ DUP4 ISZERO OR PUSH2 0xB57 JUMPI PUSH2 0xB56 PUSH2 0x7D6 JUMP JUMPDEST JUMPDEST POP SWAP3 SWAP2 POP POP JUMP INVALID LOG2 PUSH5 0x6970667358 0x22 SLT KECCAK256 DIV CHAINID LOG0 DUP7 0x2A BLOCKHASH 0xB7 0xDD EQ 0xAE 0xD7 0xBC REVERT 0xD1 PUSH2 0x6A41 SWAP15 SELFDESTRUCT 0xE 0x5E 0xEF 0x4B SWAP7 SWAP10 PUSH32 0x6BF86BE603E664736F6C63430008140033000000000000000000000000000000 "
        },
        "methodIdentifiers": {
          "DIFFICULTY_ADJUSTMENT_INTERVAL()": "f7d13407",
          "HALVING_INTERVAL()": "5fd9491d",
          "INITIAL_REWARD()": "36bcf7d6",
          "TARGET_BLOCK_TIME()": "474c9ea2",
          "blockHeight()": "f44ff712",
          "bohriumToken()": "17ab667f",
          "currentDifficulty()": "5c062d6c",
          "currentReward()": "07621eca",
          "lastBlockHash()": "5c0ecfad",
          "lastBlockTimestamp()": "85e63fc6",
          "lastHalvingTimestamp()": "391e0d09",
          "setCurrentDifficulty(uint256)": "a8e2f935",
          "submitBlock(uint256)": "73e9710f"
        }
      }
    }
  }
}