{
  "contracts/BohriumMining.sol": {
    "BohriumMining": {
      "abi": [
        {
          "inputs": [
            {
              "internalType": "address",
              "name": "_bohriumTokenAddress",
              "type": "address"
            }
          ],
          "stateMutability": "nonpayable",
          "type": "constructor"
        },
        {
          "anonymous": false,
          "inputs": [
            {
              "indexed": true,
              "internalType": "address",
              "name": "miner",
              "type": "address"
            },
            {
              "indexed": true,
              "internalType": "uint256",
              "name": "blockHeight",
              "type": "uint256"
            },
            {
              "indexed": false,
              "internalType": "uint256",
              "name": "nonce",
              "type": "uint256"
            },
            {
              "indexed": false,
              "internalType": "uint256",
              "name": "reward",
              "type": "uint256"
            },
            {
              "indexed": false,
              "internalType": "uint256",
              "name": "timeTaken",
              "type": "uint256"
            }
          ],
          "name": "BlockMined",
          "type": "event"
        },
        {
          "anonymous": false,
          "inputs": [
            {
              "indexed": false,
              "internalType": "uint256",
              "name": "newDifficulty",
              "type": "uint256"
            }
          ],
          "name": "DifficultyAdjusted",
          "type": "event"
        },
        {
          "anonymous": false,
          "inputs": [
            {
              "indexed": false,
              "internalType": "uint256",
              "name": "newReward",
              "type": "uint256"
            }
          ],
          "name": "RewardHalved",
          "type": "event"
        },
        {
          "inputs": [],
          "name": "DIFFICULTY_ADJUSTMENT_BLOCKS",
          "outputs": [
            {
              "internalType": "uint256",
              "name": "",
              "type": "uint256"
            }
          ],
          "stateMutability": "view",
          "type": "function"
        },
        {
          "inputs": [],
          "name": "HALVING_INTERVAL",
          "outputs": [
            {
              "internalType": "uint256",
              "name": "",
              "type": "uint256"
            }
          ],
          "stateMutability": "view",
          "type": "function"
        },
        {
          "inputs": [],
          "name": "INITIAL_REWARD",
          "outputs": [
            {
              "internalType": "uint256",
              "name": "",
              "type": "uint256"
            }
          ],
          "stateMutability": "view",
          "type": "function"
        },
        {
          "inputs": [],
          "name": "TARGET_BLOCK_TIME",
          "outputs": [
            {
              "internalType": "uint256",
              "name": "",
              "type": "uint256"
            }
          ],
          "stateMutability": "view",
          "type": "function"
        },
        {
          "inputs": [],
          "name": "adjustmentStartTimestamp",
          "outputs": [
            {
              "internalType": "uint256",
              "name": "",
              "type": "uint256"
            }
          ],
          "stateMutability": "view",
          "type": "function"
        },
        {
          "inputs": [],
          "name": "blockHeight",
          "outputs": [
            {
              "internalType": "uint256",
              "name": "",
              "type": "uint256"
            }
          ],
          "stateMutability": "view",
          "type": "function"
        },
        {
          "inputs": [],
          "name": "bohriumToken",
          "outputs": [
            {
              "internalType": "contract IBohriumToken",
              "name": "",
              "type": "address"
            }
          ],
          "stateMutability": "view",
          "type": "function"
        },
        {
          "inputs": [],
          "name": "currentDifficulty",
          "outputs": [
            {
              "internalType": "uint256",
              "name": "",
              "type": "uint256"
            }
          ],
          "stateMutability": "view",
          "type": "function"
        },
        {
          "inputs": [],
          "name": "currentReward",
          "outputs": [
            {
              "internalType": "uint256",
              "name": "",
              "type": "uint256"
            }
          ],
          "stateMutability": "view",
          "type": "function"
        },
        {
          "inputs": [],
          "name": "lastBlockHash",
          "outputs": [
            {
              "internalType": "bytes32",
              "name": "",
              "type": "bytes32"
            }
          ],
          "stateMutability": "view",
          "type": "function"
        },
        {
          "inputs": [],
          "name": "lastBlockTimestamp",
          "outputs": [
            {
              "internalType": "uint256",
              "name": "",
              "type": "uint256"
            }
          ],
          "stateMutability": "view",
          "type": "function"
        },
        {
          "inputs": [],
          "name": "lastHalvingTimestamp",
          "outputs": [
            {
              "internalType": "uint256",
              "name": "",
              "type": "uint256"
            }
          ],
          "stateMutability": "view",
          "type": "function"
        },
        {
          "inputs": [
            {
              "internalType": "uint256",
              "name": "_difficulty",
              "type": "uint256"
            }
          ],
          "name": "setCurrentDifficulty",
          "outputs": [],
          "stateMutability": "nonpayable",
          "type": "function"
        },
        {
          "inputs": [
            {
              "internalType": "uint256",
              "name": "nonce",
              "type": "uint256"
            }
          ],
          "name": "submitBlock",
          "outputs": [],
          "stateMutability": "nonpayable",
          "type": "function"
        }
      ],
      "evm": {
        "bytecode": {
          "linkReferences": {},
          "object": "60a060405234801561001057600080fd5b50604051610d74380380610d7483398181016040528101906100329190610112565b8073ffffffffffffffffffffffffffffffffffffffff1660808173ffffffffffffffffffffffffffffffffffffffff1681525050426001819055504260028190555060107fffffffffffffffffffffffffffffffffffffffffffffffffffffffffffffffff901c6000819055506000801b6004819055505061013f565b600080fd5b600073ffffffffffffffffffffffffffffffffffffffff82169050919050565b60006100df826100b4565b9050919050565b6100ef816100d4565b81146100fa57600080fd5b50565b60008151905061010c816100e6565b92915050565b600060208284031215610128576101276100af565b5b6000610136848285016100fd565b91505092915050565b608051610c13610161600039600081816102f001526103e80152610c136000f3fe608060405234801561001057600080fd5b50600436106100e95760003560e01c80635c0ecfad1161008c57806385e63fc61161006657806385e63fc614610218578063a8e2f93514610236578063f44ff71214610252578063fcd4d27914610270576100e9565b80635c0ecfad146101c05780635fd9491d146101de57806373e9710f146101fc576100e9565b806336bcf7d6116100c857806336bcf7d614610148578063391e0d0914610166578063474c9ea2146101845780635c062d6c146101a2576100e9565b8062d4d2a0146100ee57806307621eca1461010c57806317ab667f1461012a575b600080fd5b6100f661028e565b604051610103919061070e565b60405180910390f35b610114610294565b604051610121919061070e565b60405180910390f35b6101326102ee565b60405161013f91906107a8565b60405180910390f35b610150610312565b60405161015d919061070e565b60405180910390f35b61016e61031e565b60405161017b919061070e565b60405180910390f35b61018c610324565b604051610199919061070e565b60405180910390f35b6101aa610329565b6040516101b7919061070e565b60405180910390f35b6101c861032f565b6040516101d591906107dc565b60405180910390f35b6101e6610335565b6040516101f3919061070e565b60405180910390f35b61021660048036038101906102119190610828565b61033d565b005b610220610553565b60405161022d919061070e565b60405180910390f35b610250600480360381019061024b9190610828565b610559565b005b61025a610563565b604051610267919061070e565b60405180910390f35b610278610569565b604051610285919061070e565b60405180910390f35b60055481565b600080600154426102a59190610884565b905060006301e13380826102b991906108e7565b9050600081678ac7230489e80000901c9050655af3107a400081116102e457655af3107a40006102e6565b805b935050505090565b7f000000000000000000000000000000000000000000000000000000000000000081565b678ac7230489e8000081565b60015481565b603c81565b60005481565b60045481565b6301e1338081565b6000336004546000548460405160200161035a94939291906109b4565b60405160208183030381529060405280519060200120905060008160001c90506000548111156103bf576040517f08c379a00000000000000000000000000000000000000000000000000000000081526004016103b690610a5f565b60405180910390fd5b6000600254426103cf9190610884565b90506103da8161056e565b60006103e4610294565b90507f000000000000000000000000000000000000000000000000000000000000000073ffffffffffffffffffffffffffffffffffffffff166340c10f1933836040518363ffffffff1660e01b8152600401610441929190610a8e565b600060405180830381600087803b15801561045b57600080fd5b505af115801561046f573d6000803e3d6000fd5b5050505083600481905550426002819055506003600081548092919061049490610ab7565b91905055506301e133806001546104ab9190610aff565b42106104f757426001819055507ff92b4d3a8d8ba77170dd5cf6b65260191092093f924263a88c3c60dd8495f0916104e1610294565b6040516104ee919061070e565b60405180910390a15b6003543373ffffffffffffffffffffffffffffffffffffffff167f29643f1d9d27232f03fde69ed2b07611552391828bd9ad615837e816c22fc35887848660405161054493929190610b33565b60405180910390a35050505050565b60025481565b8060008190555050565b60035481565b600581565b6000600560035461057f9190610b6a565b0361058c57426005819055505b426002819055506000600560016003546105a69190610aff565b6105b09190610b6a565b036106f2576000600554426105c59190610884565b905060006005603c6105d79190610b9b565b90506004816105e691906108e7565b8210156105fd576004816105fa91906108e7565b91505b60048161060a9190610b9b565b8211156106215760048161061e9190610b9b565b91505b600081836000546106329190610b9b565b61063c91906108e7565b9050600060017fffffffffffffffffffffffffffffffffffffffffffffffffffffffffffffffff901c9050600060207fffffffffffffffffffffffffffffffffffffffffffffffffffffffffffffffff901c90508083106106ab578183116106a457826106a6565b815b6106ad565b805b6000819055507f42ebc15644fe1ca39e719c989e249095a01e7bf6c4e2ea33889a7e33a7664caa6000546040516106e4919061070e565b60405180910390a150505050505b50565b6000819050919050565b610708816106f5565b82525050565b600060208201905061072360008301846106ff565b92915050565b600073ffffffffffffffffffffffffffffffffffffffff82169050919050565b6000819050919050565b600061076e61076961076484610729565b610749565b610729565b9050919050565b600061078082610753565b9050919050565b600061079282610775565b9050919050565b6107a281610787565b82525050565b60006020820190506107bd6000830184610799565b92915050565b6000819050919050565b6107d6816107c3565b82525050565b60006020820190506107f160008301846107cd565b92915050565b600080fd5b610805816106f5565b811461081057600080fd5b50565b600081359050610822816107fc565b92915050565b60006020828403121561083e5761083d6107f7565b5b600061084c84828501610813565b91505092915050565b7f4e487b7100000000000000000000000000000000000000000000000000000000600052601160045260246000fd5b600061088f826106f5565b915061089a836106f5565b92508282039050818111156108b2576108b1610855565b5b92915050565b7f4e487b7100000000000000000000000000000000000000000000000000000000600052601260045260246000fd5b60006108f2826106f5565b91506108fd836106f5565b92508261090d5761090c6108b8565b5b828204905092915050565b600061092382610729565b9050919050565b60008160601b9050919050565b60006109428261092a565b9050919050565b600061095482610937565b9050919050565b61096c61096782610918565b610949565b82525050565b6000819050919050565b61098d610988826107c3565b610972565b82525050565b6000819050919050565b6109ae6109a9826106f5565b610993565b82525050565b60006109c0828761095b565b6014820191506109d0828661097c565b6020820191506109e0828561099d565b6020820191506109f0828461099d565b60208201915081905095945050505050565b600082825260208201905092915050565b7f4861736820646f65736e2774206d65657420646966666963756c747900000000600082015250565b6000610a49601c83610a02565b9150610a5482610a13565b602082019050919050565b60006020820190508181036000830152610a7881610a3c565b9050919050565b610a8881610918565b82525050565b6000604082019050610aa36000830185610a7f565b610ab060208301846106ff565b9392505050565b6000610ac2826106f5565b91507fffffffffffffffffffffffffffffffffffffffffffffffffffffffffffffffff8203610af457610af3610855565b5b600182019050919050565b6000610b0a826106f5565b9150610b15836106f5565b9250828201905080821115610b2d57610b2c610855565b5b92915050565b6000606082019050610b4860008301866106ff565b610b5560208301856106ff565b610b6260408301846106ff565b949350505050565b6000610b75826106f5565b9150610b80836106f5565b925082610b9057610b8f6108b8565b5b828206905092915050565b6000610ba6826106f5565b9150610bb1836106f5565b9250828202610bbf816106f5565b91508282048414831517610bd657610bd5610855565b5b509291505056fea2646970667358221220057e00740748dc4adaa6f3261f512690d780da2a8724fd4021fb1068d7fd408a64736f6c63430008140033",
          "opcodes": "PUSH1 0xA0 PUSH1 0x40 MSTORE CALLVALUE DUP1 ISZERO PUSH2 0x10 JUMPI PUSH1 0x0 DUP1 REVERT JUMPDEST POP PUSH1 0x40 MLOAD PUSH2 0xD74 CODESIZE SUB DUP1 PUSH2 0xD74 DUP4 CODECOPY DUP2 DUP2 ADD PUSH1 0x40 MSTORE DUP2 ADD SWAP1 PUSH2 0x32 SWAP2 SWAP1 PUSH2 0x112 JUMP JUMPDEST DUP1 PUSH20 0xFFFFFFFFFFFFFFFFFFFFFFFFFFFFFFFFFFFFFFFF AND PUSH1 0x80 DUP2 PUSH20 0xFFFFFFFFFFFFFFFFFFFFFFFFFFFFFFFFFFFFFFFF AND DUP2 MSTORE POP POP TIMESTAMP PUSH1 0x1 DUP2 SWAP1 SSTORE POP TIMESTAMP PUSH1 0x2 DUP2 SWAP1 SSTORE POP PUSH1 0x10 PUSH32 0xFFFFFFFFFFFFFFFFFFFFFFFFFFFFFFFFFFFFFFFFFFFFFFFFFFFFFFFFFFFFFFFF SWAP1 SHR PUSH1 0x0 DUP2 SWAP1 SSTORE POP PUSH1 0x0 DUP1 SHL PUSH1 0x4 DUP2 SWAP1 SSTORE POP POP PUSH2 0x13F JUMP JUMPDEST PUSH1 0x0 DUP1 REVERT JUMPDEST PUSH1 0x0 PUSH20 0xFFFFFFFFFFFFFFFFFFFFFFFFFFFFFFFFFFFFFFFF DUP3 AND SWAP1 POP SWAP2 SWAP1 POP JUMP JUMPDEST PUSH1 0x0 PUSH2 0xDF DUP3 PUSH2 0xB4 JUMP JUMPDEST SWAP1 POP SWAP2 SWAP1 POP JUMP JUMPDEST PUSH2 0xEF DUP2 PUSH2 0xD4 JUMP JUMPDEST DUP2 EQ PUSH2 0xFA JUMPI PUSH1 0x0 DUP1 REVERT JUMPDEST POP JUMP JUMPDEST PUSH1 0x0 DUP2 MLOAD SWAP1 POP PUSH2 0x10C DUP2 PUSH2 0xE6 JUMP JUMPDEST SWAP3 SWAP2 POP POP JUMP JUMPDEST PUSH1 0x0 PUSH1 0x20 DUP3 DUP5 SUB SLT ISZERO PUSH2 0x128 JUMPI PUSH2 0x127 PUSH2 0xAF JUMP JUMPDEST JUMPDEST PUSH1 0x0 PUSH2 0x136 DUP5 DUP3 DUP6 ADD PUSH2 0xFD JUMP JUMPDEST SWAP2 POP POP SWAP3 SWAP2 POP POP JUMP JUMPDEST PUSH1 0x80 MLOAD PUSH2 0xC13 PUSH2 0x161 PUSH1 0x0 CODECOPY PUSH1 0x0 DUP2 DUP2 PUSH2 0x2F0 ADD MSTORE PUSH2 0x3E8 ADD MSTORE PUSH2 0xC13 PUSH1 0x0 RETURN INVALID PUSH1 0x80 PUSH1 0x40 MSTORE CALLVALUE DUP1 ISZERO PUSH2 0x10 JUMPI PUSH1 0x0 DUP1 REVERT JUMPDEST POP PUSH1 0x4 CALLDATASIZE LT PUSH2 0xE9 JUMPI PUSH1 0x0 CALLDATALOAD PUSH1 0xE0 SHR DUP1 PUSH4 0x5C0ECFAD GT PUSH2 0x8C JUMPI DUP1 PUSH4 0x85E63FC6 GT PUSH2 0x66 JUMPI DUP1 PUSH4 0x85E63FC6 EQ PUSH2 0x218 JUMPI DUP1 PUSH4 0xA8E2F935 EQ PUSH2 0x236 JUMPI DUP1 PUSH4 0xF44FF712 EQ PUSH2 0x252 JUMPI DUP1 PUSH4 0xFCD4D279 EQ PUSH2 0x270 JUMPI PUSH2 0xE9 JUMP JUMPDEST DUP1 PUSH4 0x5C0ECFAD EQ PUSH2 0x1C0 JUMPI DUP1 PUSH4 0x5FD9491D EQ PUSH2 0x1DE JUMPI DUP1 PUSH4 0x73E9710F EQ PUSH2 0x1FC JUMPI PUSH2 0xE9 JUMP JUMPDEST DUP1 PUSH4 0x36BCF7D6 GT PUSH2 0xC8 JUMPI DUP1 PUSH4 0x36BCF7D6 EQ PUSH2 0x148 JUMPI DUP1 PUSH4 0x391E0D09 EQ PUSH2 0x166 JUMPI DUP1 PUSH4 0x474C9EA2 EQ PUSH2 0x184 JUMPI DUP1 PUSH4 0x5C062D6C EQ PUSH2 0x1A2 JUMPI PUSH2 0xE9 JUMP JUMPDEST DUP1 PUSH3 0xD4D2A0 EQ PUSH2 0xEE JUMPI DUP1 PUSH4 0x7621ECA EQ PUSH2 0x10C JUMPI DUP1 PUSH4 0x17AB667F EQ PUSH2 0x12A JUMPI JUMPDEST PUSH1 0x0 DUP1 REVERT JUMPDEST PUSH2 0xF6 PUSH2 0x28E JUMP JUMPDEST PUSH1 0x40 MLOAD PUSH2 0x103 SWAP2 SWAP1 PUSH2 0x70E JUMP JUMPDEST PUSH1 0x40 MLOAD DUP1 SWAP2 SUB SWAP1 RETURN JUMPDEST PUSH2 0x114 PUSH2 0x294 JUMP JUMPDEST PUSH1 0x40 MLOAD PUSH2 0x121 SWAP2 SWAP1 PUSH2 0x70E JUMP JUMPDEST PUSH1 0x40 MLOAD DUP1 SWAP2 SUB SWAP1 RETURN JUMPDEST PUSH2 0x132 PUSH2 0x2EE JUMP JUMPDEST PUSH1 0x40 MLOAD PUSH2 0x13F SWAP2 SWAP1 PUSH2 0x7A8 JUMP JUMPDEST PUSH1 0x40 MLOAD DUP1 SWAP2 SUB SWAP1 RETURN JUMPDEST PUSH2 0x150 PUSH2 0x312 JUMP JUMPDEST PUSH1 0x40 MLOAD PUSH2 0x15D SWAP2 SWAP1 PUSH2 0x70E JUMP JUMPDEST PUSH1 0x40 MLOAD DUP1 SWAP2 SUB SWAP1 RETURN JUMPDEST PUSH2 0x16E PUSH2 0x31E JUMP JUMPDEST PUSH1 0x40 MLOAD PUSH2 0x17B SWAP2 SWAP1 PUSH2 0x70E JUMP JUMPDEST PUSH1 0x40 MLOAD DUP1 SWAP2 SUB SWAP1 RETURN JUMPDEST PUSH2 0x18C PUSH2 0x324 JUMP JUMPDEST PUSH1 0x40 MLOAD PUSH2 0x199 SWAP2 SWAP1 PUSH2 0x70E JUMP JUMPDEST PUSH1 0x40 MLOAD DUP1 SWAP2 SUB SWAP1 RETURN JUMPDEST PUSH2 0x1AA PUSH2 0x329 JUMP JUMPDEST PUSH1 0x40 MLOAD PUSH2 0x1B7 SWAP2 SWAP1 PUSH2 0x70E JUMP JUMPDEST PUSH1 0x40 MLOAD DUP1 SWAP2 SUB SWAP1 RETURN JUMPDEST PUSH2 0x1C8 PUSH2 0x32F JUMP JUMPDEST PUSH1 0x40 MLOAD PUSH2 0x1D5 SWAP2 SWAP1 PUSH2 0x7DC JUMP JUMPDEST PUSH1 0x40 MLOAD DUP1 SWAP2 SUB SWAP1 RETURN JUMPDEST PUSH2 0x1E6 PUSH2 0x335 JUMP JUMPDEST PUSH1 0x40 MLOAD PUSH2 0x1F3 SWAP2 SWAP1 PUSH2 0x70E JUMP JUMPDEST PUSH1 0x40 MLOAD DUP1 SWAP2 SUB SWAP1 RETURN JUMPDEST PUSH2 0x216 PUSH1 0x4 DUP1 CALLDATASIZE SUB DUP2 ADD SWAP1 PUSH2 0x211 SWAP2 SWAP1 PUSH2 0x828 JUMP JUMPDEST PUSH2 0x33D JUMP JUMPDEST STOP JUMPDEST PUSH2 0x220 PUSH2 0x553 JUMP JUMPDEST PUSH1 0x40 MLOAD PUSH2 0x22D SWAP2 SWAP1 PUSH2 0x70E JUMP JUMPDEST PUSH1 0x40 MLOAD DUP1 SWAP2 SUB SWAP1 RETURN JUMPDEST PUSH2 0x250 PUSH1 0x4 DUP1 CALLDATASIZE SUB DUP2 ADD SWAP1 PUSH2 0x24B SWAP2 SWAP1 PUSH2 0x828 JUMP JUMPDEST PUSH2 0x559 JUMP JUMPDEST STOP JUMPDEST PUSH2 0x25A PUSH2 0x563 JUMP JUMPDEST PUSH1 0x40 MLOAD PUSH2 0x267 SWAP2 SWAP1 PUSH2 0x70E JUMP JUMPDEST PUSH1 0x40 MLOAD DUP1 SWAP2 SUB SWAP1 RETURN JUMPDEST PUSH2 0x278 PUSH2 0x569 JUMP JUMPDEST PUSH1 0x40 MLOAD PUSH2 0x285 SWAP2 SWAP1 PUSH2 0x70E JUMP JUMPDEST PUSH1 0x40 MLOAD DUP1 SWAP2 SUB SWAP1 RETURN JUMPDEST PUSH1 0x5 SLOAD DUP2 JUMP JUMPDEST PUSH1 0x0 DUP1 PUSH1 0x1 SLOAD TIMESTAMP PUSH2 0x2A5 SWAP2 SWAP1 PUSH2 0x884 JUMP JUMPDEST SWAP1 POP PUSH1 0x0 PUSH4 0x1E13380 DUP3 PUSH2 0x2B9 SWAP2 SWAP1 PUSH2 0x8E7 JUMP JUMPDEST SWAP1 POP PUSH1 0x0 DUP2 PUSH8 0x8AC7230489E80000 SWAP1 SHR SWAP1 POP PUSH6 0x5AF3107A4000 DUP2 GT PUSH2 0x2E4 JUMPI PUSH6 0x5AF3107A4000 PUSH2 0x2E6 JUMP JUMPDEST DUP1 JUMPDEST SWAP4 POP POP POP POP SWAP1 JUMP JUMPDEST PUSH32 0x0 DUP2 JUMP JUMPDEST PUSH8 0x8AC7230489E80000 DUP2 JUMP JUMPDEST PUSH1 0x1 SLOAD DUP2 JUMP JUMPDEST PUSH1 0x3C DUP2 JUMP JUMPDEST PUSH1 0x0 SLOAD DUP2 JUMP JUMPDEST PUSH1 0x4 SLOAD DUP2 JUMP JUMPDEST PUSH4 0x1E13380 DUP2 JUMP JUMPDEST PUSH1 0x0 CALLER PUSH1 0x4 SLOAD PUSH1 0x0 SLOAD DUP5 PUSH1 0x40 MLOAD PUSH1 0x20 ADD PUSH2 0x35A SWAP5 SWAP4 SWAP3 SWAP2 SWAP1 PUSH2 0x9B4 JUMP JUMPDEST PUSH1 0x40 MLOAD PUSH1 0x20 DUP2 DUP4 SUB SUB DUP2 MSTORE SWAP1 PUSH1 0x40 MSTORE DUP1 MLOAD SWAP1 PUSH1 0x20 ADD KECCAK256 SWAP1 POP PUSH1 0x0 DUP2 PUSH1 0x0 SHR SWAP1 POP PUSH1 0x0 SLOAD DUP2 GT ISZERO PUSH2 0x3BF JUMPI PUSH1 0x40 MLOAD PUSH32 0x8C379A000000000000000000000000000000000000000000000000000000000 DUP2 MSTORE PUSH1 0x4 ADD PUSH2 0x3B6 SWAP1 PUSH2 0xA5F JUMP JUMPDEST PUSH1 0x40 MLOAD DUP1 SWAP2 SUB SWAP1 REVERT JUMPDEST PUSH1 0x0 PUSH1 0x2 SLOAD TIMESTAMP PUSH2 0x3CF SWAP2 SWAP1 PUSH2 0x884 JUMP JUMPDEST SWAP1 POP PUSH2 0x3DA DUP2 PUSH2 0x56E JUMP JUMPDEST PUSH1 0x0 PUSH2 0x3E4 PUSH2 0x294 JUMP JUMPDEST SWAP1 POP PUSH32 0x0 PUSH20 0xFFFFFFFFFFFFFFFFFFFFFFFFFFFFFFFFFFFFFFFF AND PUSH4 0x40C10F19 CALLER DUP4 PUSH1 0x40 MLOAD DUP4 PUSH4 0xFFFFFFFF AND PUSH1 0xE0 SHL DUP2 MSTORE PUSH1 0x4 ADD PUSH2 0x441 SWAP3 SWAP2 SWAP1 PUSH2 0xA8E JUMP JUMPDEST PUSH1 0x0 PUSH1 0x40 MLOAD DUP1 DUP4 SUB DUP2 PUSH1 0x0 DUP8 DUP1 EXTCODESIZE ISZERO DUP1 ISZERO PUSH2 0x45B JUMPI PUSH1 0x0 DUP1 REVERT JUMPDEST POP GAS CALL ISZERO DUP1 ISZERO PUSH2 0x46F JUMPI RETURNDATASIZE PUSH1 0x0 DUP1 RETURNDATACOPY RETURNDATASIZE PUSH1 0x0 REVERT JUMPDEST POP POP POP POP DUP4 PUSH1 0x4 DUP2 SWAP1 SSTORE POP TIMESTAMP PUSH1 0x2 DUP2 SWAP1 SSTORE POP PUSH1 0x3 PUSH1 0x0 DUP2 SLOAD DUP1 SWAP3 SWAP2 SWAP1 PUSH2 0x494 SWAP1 PUSH2 0xAB7 JUMP JUMPDEST SWAP2 SWAP1 POP SSTORE POP PUSH4 0x1E13380 PUSH1 0x1 SLOAD PUSH2 0x4AB SWAP2 SWAP1 PUSH2 0xAFF JUMP JUMPDEST TIMESTAMP LT PUSH2 0x4F7 JUMPI TIMESTAMP PUSH1 0x1 DUP2 SWAP1 SSTORE POP PUSH32 0xF92B4D3A8D8BA77170DD5CF6B65260191092093F924263A88C3C60DD8495F091 PUSH2 0x4E1 PUSH2 0x294 JUMP JUMPDEST PUSH1 0x40 MLOAD PUSH2 0x4EE SWAP2 SWAP1 PUSH2 0x70E JUMP JUMPDEST PUSH1 0x40 MLOAD DUP1 SWAP2 SUB SWAP1 LOG1 JUMPDEST PUSH1 0x3 SLOAD CALLER PUSH20 0xFFFFFFFFFFFFFFFFFFFFFFFFFFFFFFFFFFFFFFFF AND PUSH32 0x29643F1D9D27232F03FDE69ED2B07611552391828BD9AD615837E816C22FC358 DUP8 DUP5 DUP7 PUSH1 0x40 MLOAD PUSH2 0x544 SWAP4 SWAP3 SWAP2 SWAP1 PUSH2 0xB33 JUMP JUMPDEST PUSH1 0x40 MLOAD DUP1 SWAP2 SUB SWAP1 LOG3 POP POP POP POP POP JUMP JUMPDEST PUSH1 0x2 SLOAD DUP2 JUMP JUMPDEST DUP1 PUSH1 0x0 DUP2 SWAP1 SSTORE POP POP JUMP JUMPDEST PUSH1 0x3 SLOAD DUP2 JUMP JUMPDEST PUSH1 0x5 DUP2 JUMP JUMPDEST PUSH1 0x0 PUSH1 0x5 PUSH1 0x3 SLOAD PUSH2 0x57F SWAP2 SWAP1 PUSH2 0xB6A JUMP JUMPDEST SUB PUSH2 0x58C JUMPI TIMESTAMP PUSH1 0x5 DUP2 SWAP1 SSTORE POP JUMPDEST TIMESTAMP PUSH1 0x2 DUP2 SWAP1 SSTORE POP PUSH1 0x0 PUSH1 0x5 PUSH1 0x1 PUSH1 0x3 SLOAD PUSH2 0x5A6 SWAP2 SWAP1 PUSH2 0xAFF JUMP JUMPDEST PUSH2 0x5B0 SWAP2 SWAP1 PUSH2 0xB6A JUMP JUMPDEST SUB PUSH2 0x6F2 JUMPI PUSH1 0x0 PUSH1 0x5 SLOAD TIMESTAMP PUSH2 0x5C5 SWAP2 SWAP1 PUSH2 0x884 JUMP JUMPDEST SWAP1 POP PUSH1 0x0 PUSH1 0x5 PUSH1 0x3C PUSH2 0x5D7 SWAP2 SWAP1 PUSH2 0xB9B JUMP JUMPDEST SWAP1 POP PUSH1 0x4 DUP2 PUSH2 0x5E6 SWAP2 SWAP1 PUSH2 0x8E7 JUMP JUMPDEST DUP3 LT ISZERO PUSH2 0x5FD JUMPI PUSH1 0x4 DUP2 PUSH2 0x5FA SWAP2 SWAP1 PUSH2 0x8E7 JUMP JUMPDEST SWAP2 POP JUMPDEST PUSH1 0x4 DUP2 PUSH2 0x60A SWAP2 SWAP1 PUSH2 0xB9B JUMP JUMPDEST DUP3 GT ISZERO PUSH2 0x621 JUMPI PUSH1 0x4 DUP2 PUSH2 0x61E SWAP2 SWAP1 PUSH2 0xB9B JUMP JUMPDEST SWAP2 POP JUMPDEST PUSH1 0x0 DUP2 DUP4 PUSH1 0x0 SLOAD PUSH2 0x632 SWAP2 SWAP1 PUSH2 0xB9B JUMP JUMPDEST PUSH2 0x63C SWAP2 SWAP1 PUSH2 0x8E7 JUMP JUMPDEST SWAP1 POP PUSH1 0x0 PUSH1 0x1 PUSH32 0xFFFFFFFFFFFFFFFFFFFFFFFFFFFFFFFFFFFFFFFFFFFFFFFFFFFFFFFFFFFFFFFF SWAP1 SHR SWAP1 POP PUSH1 0x0 PUSH1 0x20 PUSH32 0xFFFFFFFFFFFFFFFFFFFFFFFFFFFFFFFFFFFFFFFFFFFFFFFFFFFFFFFFFFFFFFFF SWAP1 SHR SWAP1 POP DUP1 DUP4 LT PUSH2 0x6AB JUMPI DUP2 DUP4 GT PUSH2 0x6A4 JUMPI DUP3 PUSH2 0x6A6 JUMP JUMPDEST DUP2 JUMPDEST PUSH2 0x6AD JUMP JUMPDEST DUP1 JUMPDEST PUSH1 0x0 DUP2 SWAP1 SSTORE POP PUSH32 0x42EBC15644FE1CA39E719C989E249095A01E7BF6C4E2EA33889A7E33A7664CAA PUSH1 0x0 SLOAD PUSH1 0x40 MLOAD PUSH2 0x6E4 SWAP2 SWAP1 PUSH2 0x70E JUMP JUMPDEST PUSH1 0x40 MLOAD DUP1 SWAP2 SUB SWAP1 LOG1 POP POP POP POP POP JUMPDEST POP JUMP JUMPDEST PUSH1 0x0 DUP2 SWAP1 POP SWAP2 SWAP1 POP JUMP JUMPDEST PUSH2 0x708 DUP2 PUSH2 0x6F5 JUMP JUMPDEST DUP3 MSTORE POP POP JUMP JUMPDEST PUSH1 0x0 PUSH1 0x20 DUP3 ADD SWAP1 POP PUSH2 0x723 PUSH1 0x0 DUP4 ADD DUP5 PUSH2 0x6FF JUMP JUMPDEST SWAP3 SWAP2 POP POP JUMP JUMPDEST PUSH1 0x0 PUSH20 0xFFFFFFFFFFFFFFFFFFFFFFFFFFFFFFFFFFFFFFFF DUP3 AND SWAP1 POP SWAP2 SWAP1 POP JUMP JUMPDEST PUSH1 0x0 DUP2 SWAP1 POP SWAP2 SWAP1 POP JUMP JUMPDEST PUSH1 0x0 PUSH2 0x76E PUSH2 0x769 PUSH2 0x764 DUP5 PUSH2 0x729 JUMP JUMPDEST PUSH2 0x749 JUMP JUMPDEST PUSH2 0x729 JUMP JUMPDEST SWAP1 POP SWAP2 SWAP1 POP JUMP JUMPDEST PUSH1 0x0 PUSH2 0x780 DUP3 PUSH2 0x753 JUMP JUMPDEST SWAP1 POP SWAP2 SWAP1 POP JUMP JUMPDEST PUSH1 0x0 PUSH2 0x792 DUP3 PUSH2 0x775 JUMP JUMPDEST SWAP1 POP SWAP2 SWAP1 POP JUMP JUMPDEST PUSH2 0x7A2 DUP2 PUSH2 0x787 JUMP JUMPDEST DUP3 MSTORE POP POP JUMP JUMPDEST PUSH1 0x0 PUSH1 0x20 DUP3 ADD SWAP1 POP PUSH2 0x7BD PUSH1 0x0 DUP4 ADD DUP5 PUSH2 0x799 JUMP JUMPDEST SWAP3 SWAP2 POP POP JUMP JUMPDEST PUSH1 0x0 DUP2 SWAP1 POP SWAP2 SWAP1 POP JUMP JUMPDEST PUSH2 0x7D6 DUP2 PUSH2 0x7C3 JUMP JUMPDEST DUP3 MSTORE POP POP JUMP JUMPDEST PUSH1 0x0 PUSH1 0x20 DUP3 ADD SWAP1 POP PUSH2 0x7F1 PUSH1 0x0 DUP4 ADD DUP5 PUSH2 0x7CD JUMP JUMPDEST SWAP3 SWAP2 POP POP JUMP JUMPDEST PUSH1 0x0 DUP1 REVERT JUMPDEST PUSH2 0x805 DUP2 PUSH2 0x6F5 JUMP JUMPDEST DUP2 EQ PUSH2 0x810 JUMPI PUSH1 0x0 DUP1 REVERT JUMPDEST POP JUMP JUMPDEST PUSH1 0x0 DUP2 CALLDATALOAD SWAP1 POP PUSH2 0x822 DUP2 PUSH2 0x7FC JUMP JUMPDEST SWAP3 SWAP2 POP POP JUMP JUMPDEST PUSH1 0x0 PUSH1 0x20 DUP3 DUP5 SUB SLT ISZERO PUSH2 0x83E JUMPI PUSH2 0x83D PUSH2 0x7F7 JUMP JUMPDEST JUMPDEST PUSH1 0x0 PUSH2 0x84C DUP5 DUP3 DUP6 ADD PUSH2 0x813 JUMP JUMPDEST SWAP2 POP POP SWAP3 SWAP2 POP POP JUMP JUMPDEST PUSH32 0x4E487B7100000000000000000000000000000000000000000000000000000000 PUSH1 0x0 MSTORE PUSH1 0x11 PUSH1 0x4 MSTORE PUSH1 0x24 PUSH1 0x0 REVERT JUMPDEST PUSH1 0x0 PUSH2 0x88F DUP3 PUSH2 0x6F5 JUMP JUMPDEST SWAP2 POP PUSH2 0x89A DUP4 PUSH2 0x6F5 JUMP JUMPDEST SWAP3 POP DUP3 DUP3 SUB SWAP1 POP DUP2 DUP2 GT ISZERO PUSH2 0x8B2 JUMPI PUSH2 0x8B1 PUSH2 0x855 JUMP JUMPDEST JUMPDEST SWAP3 SWAP2 POP POP JUMP JUMPDEST PUSH32 0x4E487B7100000000000000000000000000000000000000000000000000000000 PUSH1 0x0 MSTORE PUSH1 0x12 PUSH1 0x4 MSTORE PUSH1 0x24 PUSH1 0x0 REVERT JUMPDEST PUSH1 0x0 PUSH2 0x8F2 DUP3 PUSH2 0x6F5 JUMP JUMPDEST SWAP2 POP PUSH2 0x8FD DUP4 PUSH2 0x6F5 JUMP JUMPDEST SWAP3 POP DUP3 PUSH2 0x90D JUMPI PUSH2 0x90C PUSH2 0x8B8 JUMP JUMPDEST JUMPDEST DUP3 DUP3 DIV SWAP1 POP SWAP3 SWAP2 POP POP JUMP JUMPDEST PUSH1 0x0 PUSH2 0x923 DUP3 PUSH2 0x729 JUMP JUMPDEST SWAP1 POP SWAP2 SWAP1 POP JUMP JUMPDEST PUSH1 0x0 DUP2 PUSH1 0x60 SHL SWAP1 POP SWAP2 SWAP1 POP JUMP JUMPDEST PUSH1 0x0 PUSH2 0x942 DUP3 PUSH2 0x92A JUMP JUMPDEST SWAP1 POP SWAP2 SWAP1 POP JUMP JUMPDEST PUSH1 0x0 PUSH2 0x954 DUP3 PUSH2 0x937 JUMP JUMPDEST SWAP1 POP SWAP2 SWAP1 POP JUMP JUMPDEST PUSH2 0x96C PUSH2 0x967 DUP3 PUSH2 0x918 JUMP JUMPDEST PUSH2 0x949 JUMP JUMPDEST DUP3 MSTORE POP POP JUMP JUMPDEST PUSH1 0x0 DUP2 SWAP1 POP SWAP2 SWAP1 POP JUMP JUMPDEST PUSH2 0x98D PUSH2 0x988 DUP3 PUSH2 0x7C3 JUMP JUMPDEST PUSH2 0x972 JUMP JUMPDEST DUP3 MSTORE POP POP JUMP JUMPDEST PUSH1 0x0 DUP2 SWAP1 POP SWAP2 SWAP1 POP JUMP JUMPDEST PUSH2 0x9AE PUSH2 0x9A9 DUP3 PUSH2 0x6F5 JUMP JUMPDEST PUSH2 0x993 JUMP JUMPDEST DUP3 MSTORE POP POP JUMP JUMPDEST PUSH1 0x0 PUSH2 0x9C0 DUP3 DUP8 PUSH2 0x95B JUMP JUMPDEST PUSH1 0x14 DUP3 ADD SWAP2 POP PUSH2 0x9D0 DUP3 DUP7 PUSH2 0x97C JUMP JUMPDEST PUSH1 0x20 DUP3 ADD SWAP2 POP PUSH2 0x9E0 DUP3 DUP6 PUSH2 0x99D JUMP JUMPDEST PUSH1 0x20 DUP3 ADD SWAP2 POP PUSH2 0x9F0 DUP3 DUP5 PUSH2 0x99D JUMP JUMPDEST PUSH1 0x20 DUP3 ADD SWAP2 POP DUP2 SWAP1 POP SWAP6 SWAP5 POP POP POP POP POP JUMP JUMPDEST PUSH1 0x0 DUP3 DUP3 MSTORE PUSH1 0x20 DUP3 ADD SWAP1 POP SWAP3 SWAP2 POP POP JUMP JUMPDEST PUSH32 0x4861736820646F65736E2774206D65657420646966666963756C747900000000 PUSH1 0x0 DUP3 ADD MSTORE POP JUMP JUMPDEST PUSH1 0x0 PUSH2 0xA49 PUSH1 0x1C DUP4 PUSH2 0xA02 JUMP JUMPDEST SWAP2 POP PUSH2 0xA54 DUP3 PUSH2 0xA13 JUMP JUMPDEST PUSH1 0x20 DUP3 ADD SWAP1 POP SWAP2 SWAP1 POP JUMP JUMPDEST PUSH1 0x0 PUSH1 0x20 DUP3 ADD SWAP1 POP DUP2 DUP2 SUB PUSH1 0x0 DUP4 ADD MSTORE PUSH2 0xA78 DUP2 PUSH2 0xA3C JUMP JUMPDEST SWAP1 POP SWAP2 SWAP1 POP JUMP JUMPDEST PUSH2 0xA88 DUP2 PUSH2 0x918 JUMP JUMPDEST DUP3 MSTORE POP POP JUMP JUMPDEST PUSH1 0x0 PUSH1 0x40 DUP3 ADD SWAP1 POP PUSH2 0xAA3 PUSH1 0x0 DUP4 ADD DUP6 PUSH2 0xA7F JUMP JUMPDEST PUSH2 0xAB0 PUSH1 0x20 DUP4 ADD DUP5 PUSH2 0x6FF JUMP JUMPDEST SWAP4 SWAP3 POP POP POP JUMP JUMPDEST PUSH1 0x0 PUSH2 0xAC2 DUP3 PUSH2 0x6F5 JUMP JUMPDEST SWAP2 POP PUSH32 0xFFFFFFFFFFFFFFFFFFFFFFFFFFFFFFFFFFFFFFFFFFFFFFFFFFFFFFFFFFFFFFFF DUP3 SUB PUSH2 0xAF4 JUMPI PUSH2 0xAF3 PUSH2 0x855 JUMP JUMPDEST JUMPDEST PUSH1 0x1 DUP3 ADD SWAP1 POP SWAP2 SWAP1 POP JUMP JUMPDEST PUSH1 0x0 PUSH2 0xB0A DUP3 PUSH2 0x6F5 JUMP JUMPDEST SWAP2 POP PUSH2 0xB15 DUP4 PUSH2 0x6F5 JUMP JUMPDEST SWAP3 POP DUP3 DUP3 ADD SWAP1 POP DUP1 DUP3 GT ISZERO PUSH2 0xB2D JUMPI PUSH2 0xB2C PUSH2 0x855 JUMP JUMPDEST JUMPDEST SWAP3 SWAP2 POP POP JUMP JUMPDEST PUSH1 0x0 PUSH1 0x60 DUP3 ADD SWAP1 POP PUSH2 0xB48 PUSH1 0x0 DUP4 ADD DUP7 PUSH2 0x6FF JUMP JUMPDEST PUSH2 0xB55 PUSH1 0x20 DUP4 ADD DUP6 PUSH2 0x6FF JUMP JUMPDEST PUSH2 0xB62 PUSH1 0x40 DUP4 ADD DUP5 PUSH2 0x6FF JUMP JUMPDEST SWAP5 SWAP4 POP POP POP POP JUMP JUMPDEST PUSH1 0x0 PUSH2 0xB75 DUP3 PUSH2 0x6F5 JUMP JUMPDEST SWAP2 POP PUSH2 0xB80 DUP4 PUSH2 0x6F5 JUMP JUMPDEST SWAP3 POP DUP3 PUSH2 0xB90 JUMPI PUSH2 0xB8F PUSH2 0x8B8 JUMP JUMPDEST JUMPDEST DUP3 DUP3 MOD SWAP1 POP SWAP3 SWAP2 POP POP JUMP JUMPDEST PUSH1 0x0 PUSH2 0xBA6 DUP3 PUSH2 0x6F5 JUMP JUMPDEST SWAP2 POP PUSH2 0xBB1 DUP4 PUSH2 0x6F5 JUMP JUMPDEST SWAP3 POP DUP3 DUP3 MUL PUSH2 0xBBF DUP2 PUSH2 0x6F5 JUMP JUMPDEST SWAP2 POP DUP3 DUP3 DIV DUP5 EQ DUP4 ISZERO OR PUSH2 0xBD6 JUMPI PUSH2 0xBD5 PUSH2 0x855 JUMP JUMPDEST JUMPDEST POP SWAP3 SWAP2 POP POP JUMP INVALID LOG2 PUSH5 0x6970667358 0x22 SLT KECCAK256 SDIV PUSH31 0x740748DC4ADAA6F3261F512690D780DA2A8724FD4021FB1068D7FD408A64 PUSH20 0x6F6C634300081400330000000000000000000000 "
        },
        "methodIdentifiers": {
          "DIFFICULTY_ADJUSTMENT_BLOCKS()": "fcd4d279",
          "HALVING_INTERVAL()": "5fd9491d",
          "INITIAL_REWARD()": "36bcf7d6",
          "TARGET_BLOCK_TIME()": "474c9ea2",
          "adjustmentStartTimestamp()": "00d4d2a0",
          "blockHeight()": "f44ff712",
          "bohriumToken()": "17ab667f",
          "currentDifficulty()": "5c062d6c",
          "currentReward()": "07621eca",
          "lastBlockHash()": "5c0ecfad",
          "lastBlockTimestamp()": "85e63fc6",
          "lastHalvingTimestamp()": "391e0d09",
          "setCurrentDifficulty(uint256)": "a8e2f935",
          "submitBlock(uint256)": "73e9710f"
        }
      }
    }
  }
}