{
  "contracts/BohriumMining.sol": {
    "BohriumMining": {
      "abi": [
        {
          "inputs": [
            {
              "internalType": "address",
              "name": "_bohriumTokenAddress",
              "type": "address"
            },
            {
              "internalType": "address",
              "name": "_stakedBohrTokenAddress",
              "type": "address"
            }
          ],
          "stateMutability": "nonpayable",
          "type": "constructor"
        },
        {
          "inputs": [
            {
              "internalType": "address",
              "name": "owner",
              "type": "address"
            }
          ],
          "name": "OwnableInvalidOwner",
          "type": "error"
        },
        {
          "inputs": [
            {
              "internalType": "address",
              "name": "account",
              "type": "address"
            }
          ],
          "name": "OwnableUnauthorizedAccount",
          "type": "error"
        },
        {
          "anonymous": false,
          "inputs": [
            {
              "indexed": true,
              "internalType": "address",
              "name": "miner",
              "type": "address"
            },
            {
              "indexed": true,
              "internalType": "uint256",
              "name": "blockHeight",
              "type": "uint256"
            },
            {
              "indexed": false,
              "internalType": "uint256",
              "name": "nonce",
              "type": "uint256"
            },
            {
              "indexed": false,
              "internalType": "uint256",
              "name": "reward",
              "type": "uint256"
            },
            {
              "indexed": false,
              "internalType": "uint256",
              "name": "timeTaken",
              "type": "uint256"
            },
            {
              "indexed": false,
              "internalType": "address",
              "name": "rewardRecipient",
              "type": "address"
            }
          ],
          "name": "BlockMined",
          "type": "event"
        },
        {
          "anonymous": false,
          "inputs": [
            {
              "indexed": false,
              "internalType": "uint256",
              "name": "newDifficulty",
              "type": "uint256"
            }
          ],
          "name": "DifficultyAdjusted",
          "type": "event"
        },
        {
          "anonymous": false,
          "inputs": [
            {
              "indexed": true,
              "internalType": "address",
              "name": "previousOwner",
              "type": "address"
            },
            {
              "indexed": true,
              "internalType": "address",
              "name": "newOwner",
              "type": "address"
            }
          ],
          "name": "OwnershipTransferred",
          "type": "event"
        },
        {
          "anonymous": false,
          "inputs": [
            {
              "indexed": false,
              "internalType": "uint256",
              "name": "newReward",
              "type": "uint256"
            }
          ],
          "name": "RewardHalved",
          "type": "event"
        },
        {
          "inputs": [],
          "name": "DIFFICULTY_ADJUSTMENT_BLOCKS",
          "outputs": [
            {
              "internalType": "uint256",
              "name": "",
              "type": "uint256"
            }
          ],
          "stateMutability": "view",
          "type": "function"
        },
        {
          "inputs": [],
          "name": "HALVING_INTERVAL",
          "outputs": [
            {
              "internalType": "uint256",
              "name": "",
              "type": "uint256"
            }
          ],
          "stateMutability": "view",
          "type": "function"
        },
        {
          "inputs": [],
          "name": "INITIAL_REWARD",
          "outputs": [
            {
              "internalType": "uint256",
              "name": "",
              "type": "uint256"
            }
          ],
          "stateMutability": "view",
          "type": "function"
        },
        {
          "inputs": [],
          "name": "TARGET_BLOCK_TIME",
          "outputs": [
            {
              "internalType": "uint256",
              "name": "",
              "type": "uint256"
            }
          ],
          "stateMutability": "view",
          "type": "function"
        },
        {
          "inputs": [],
          "name": "adjustmentStartTimestamp",
          "outputs": [
            {
              "internalType": "uint256",
              "name": "",
              "type": "uint256"
            }
          ],
          "stateMutability": "view",
          "type": "function"
        },
        {
          "inputs": [],
          "name": "baseDifficulty",
          "outputs": [
            {
              "internalType": "uint256",
              "name": "",
              "type": "uint256"
            }
          ],
          "stateMutability": "view",
          "type": "function"
        },
        {
          "inputs": [],
          "name": "blockHeight",
          "outputs": [
            {
              "internalType": "uint256",
              "name": "",
              "type": "uint256"
            }
          ],
          "stateMutability": "view",
          "type": "function"
        },
        {
          "inputs": [],
          "name": "bohriumToken",
          "outputs": [
            {
              "internalType": "contract IBohriumToken",
              "name": "",
              "type": "address"
            }
          ],
          "stateMutability": "view",
          "type": "function"
        },
        {
          "inputs": [],
          "name": "currentReward",
          "outputs": [
            {
              "internalType": "uint256",
              "name": "",
              "type": "uint256"
            }
          ],
          "stateMutability": "view",
          "type": "function"
        },
        {
          "inputs": [
            {
              "internalType": "address",
              "name": "miner",
              "type": "address"
            }
          ],
          "name": "getMinerDifficulty",
          "outputs": [
            {
              "internalType": "uint256",
              "name": "",
              "type": "uint256"
            }
          ],
          "stateMutability": "view",
          "type": "function"
        },
        {
          "inputs": [],
          "name": "lastBlockHash",
          "outputs": [
            {
              "internalType": "bytes32",
              "name": "",
              "type": "bytes32"
            }
          ],
          "stateMutability": "view",
          "type": "function"
        },
        {
          "inputs": [],
          "name": "lastBlockTimestamp",
          "outputs": [
            {
              "internalType": "uint256",
              "name": "",
              "type": "uint256"
            }
          ],
          "stateMutability": "view",
          "type": "function"
        },
        {
          "inputs": [],
          "name": "lastHalvingTimestamp",
          "outputs": [
            {
              "internalType": "uint256",
              "name": "",
              "type": "uint256"
            }
          ],
          "stateMutability": "view",
          "type": "function"
        },
        {
          "inputs": [
            {
              "internalType": "address",
              "name": "to",
              "type": "address"
            },
            {
              "internalType": "uint256",
              "name": "amount",
              "type": "uint256"
            }
          ],
          "name": "mintForTesting",
          "outputs": [],
          "stateMutability": "nonpayable",
          "type": "function"
        },
        {
          "inputs": [],
          "name": "owner",
          "outputs": [
            {
              "internalType": "address",
              "name": "",
              "type": "address"
            }
          ],
          "stateMutability": "view",
          "type": "function"
        },
        {
          "inputs": [],
          "name": "renounceOwnership",
          "outputs": [],
          "stateMutability": "nonpayable",
          "type": "function"
        },
        {
          "inputs": [
            {
              "internalType": "uint256",
              "name": "_difficulty",
              "type": "uint256"
            }
          ],
          "name": "setCurrentDifficulty",
          "outputs": [],
          "stateMutability": "nonpayable",
          "type": "function"
        },
        {
          "inputs": [],
          "name": "stakedBohrToken",
          "outputs": [
            {
              "internalType": "contract IStakedBohrToken",
              "name": "",
              "type": "address"
            }
          ],
          "stateMutability": "view",
          "type": "function"
        },
        {
          "inputs": [
            {
              "internalType": "uint256",
              "name": "nonce",
              "type": "uint256"
            }
          ],
          "name": "submitBlock",
          "outputs": [],
          "stateMutability": "nonpayable",
          "type": "function"
        },
        {
          "inputs": [
            {
              "internalType": "address",
              "name": "newOwner",
              "type": "address"
            }
          ],
          "name": "transferOwnership",
          "outputs": [],
          "stateMutability": "nonpayable",
          "type": "function"
        }
      ],
      "evm": {
        "bytecode": {
          "linkReferences": {},
          "object": "60c06040523480156200001157600080fd5b50604051620016ec380380620016ec8339818101604052810190620000379190620002a0565b33600073ffffffffffffffffffffffffffffffffffffffff168173ffffffffffffffffffffffffffffffffffffffff1603620000ad5760006040517f1e4fbdf7000000000000000000000000000000000000000000000000000000008152600401620000a49190620002f8565b60405180910390fd5b620000be816200017260201b60201c565b508173ffffffffffffffffffffffffffffffffffffffff1660808173ffffffffffffffffffffffffffffffffffffffff16815250508073ffffffffffffffffffffffffffffffffffffffff1660a08173ffffffffffffffffffffffffffffffffffffffff1681525050426002819055504260038190555060107fffffffffffffffffffffffffffffffffffffffffffffffffffffffffffffffff901c6001819055506000801b600581905550505062000315565b60008060009054906101000a900473ffffffffffffffffffffffffffffffffffffffff169050816000806101000a81548173ffffffffffffffffffffffffffffffffffffffff021916908373ffffffffffffffffffffffffffffffffffffffff1602179055508173ffffffffffffffffffffffffffffffffffffffff168173ffffffffffffffffffffffffffffffffffffffff167f8be0079c531659141344cd1fd0a4f28419497f9722a3daafe3b4186f6b6457e060405160405180910390a35050565b600080fd5b600073ffffffffffffffffffffffffffffffffffffffff82169050919050565b600062000268826200023b565b9050919050565b6200027a816200025b565b81146200028657600080fd5b50565b6000815190506200029a816200026f565b92915050565b60008060408385031215620002ba57620002b962000236565b5b6000620002ca8582860162000289565b9250506020620002dd8582860162000289565b9150509250929050565b620002f2816200025b565b82525050565b60006020820190506200030f6000830184620002e7565b92915050565b60805160a05161139562000357600039600081816104d80152818161075101526108dd0152600081816103ce015281816105b801526107b801526113956000f3fe608060405234801561001057600080fd5b506004361061012b5760003560e01c806373e9710f116100ad578063e152094711610071578063e1520947146102da578063f2fde38b146102f6578063f44ff71214610312578063fcd4d27914610330578063fdd0ce911461034e5761012b565b806373e9710f1461024857806385e63fc6146102645780638da5cb5b1461028257806393621d15146102a0578063a8e2f935146102be5761012b565b8063391e0d09116100f4578063391e0d09146101c6578063474c9ea2146101e45780635c0ecfad146102025780635fd9491d14610220578063715018a61461023e5761012b565b8062d4d2a01461013057806307621eca1461014e57806317ab667f1461016c57806327f8dfa11461018a57806336bcf7d6146101a8575b600080fd5b61013861037e565b6040516101459190610d0e565b60405180910390f35b610156610384565b6040516101639190610d0e565b60405180910390f35b6101746103cc565b6040516101819190610da8565b60405180910390f35b6101926103f0565b60405161019f9190610d0e565b60405180910390f35b6101b06103f6565b6040516101bd9190610d0e565b60405180910390f35b6101ce610402565b6040516101db9190610d0e565b60405180910390f35b6101ec610408565b6040516101f99190610d0e565b60405180910390f35b61020a61040d565b6040516102179190610ddc565b60405180910390f35b610228610413565b6040516102359190610d0e565b60405180910390f35b61024661041a565b005b610262600480360381019061025d9190610e28565b61042e565b005b61026c610720565b6040516102799190610d0e565b60405180910390f35b61028a610726565b6040516102979190610e76565b60405180910390f35b6102a861074f565b6040516102b59190610eb2565b60405180910390f35b6102d860048036038101906102d39190610e28565b610773565b005b6102f460048036038101906102ef9190610ef9565b6107b6565b005b610310600480360381019061030b9190610f39565b610847565b005b61031a6108cd565b6040516103279190610d0e565b60405180910390f35b6103386108d3565b6040516103459190610d0e565b60405180910390f35b61036860048036038101906103639190610f39565b6108d8565b6040516103759190610d0e565b60405180910390f35b60065481565b600080620402906004546103989190610fc4565b9050600081678ac7230489e80000901c9050655af3107a400081116103c357655af3107a40006103c5565b805b9250505090565b7f000000000000000000000000000000000000000000000000000000000000000081565b60015481565b678ac7230489e8000081565b60025481565b607881565b60055481565b6204029081565b610422610a6a565b61042c6000610af1565b565b6000610439336108d8565b90506000336005548385604051602001610456949392919061107f565b604051602081830303815290604052805190602001209050818160001c11156104b4576040517f08c379a00000000000000000000000000000000000000000000000000000000081526004016104ab9061112a565b60405180910390fd5b6000600354426104c4919061114a565b90506104cf81610bb5565b600033905060007f000000000000000000000000000000000000000000000000000000000000000073ffffffffffffffffffffffffffffffffffffffff16636bf45d90336040518263ffffffff1660e01b815260040161052f9190610e76565b602060405180830381865afa15801561054c573d6000803e3d6000fd5b505050506040513d601f19601f820116820180604052508101906105709190611193565b9050600073ffffffffffffffffffffffffffffffffffffffff168173ffffffffffffffffffffffffffffffffffffffff16146105aa578091505b60006105b4610384565b90507f000000000000000000000000000000000000000000000000000000000000000073ffffffffffffffffffffffffffffffffffffffff166340c10f1984836040518363ffffffff1660e01b81526004016106119291906111c0565b600060405180830381600087803b15801561062b57600080fd5b505af115801561063f573d6000803e3d6000fd5b50505050846005819055504260038190555060046000815480929190610664906111e9565b919050555060006204029060045461067c9190611231565b036106c0577ff92b4d3a8d8ba77170dd5cf6b65260191092093f924263a88c3c60dd8495f0916106aa610384565b6040516106b79190610d0e565b60405180910390a15b6004543373ffffffffffffffffffffffffffffffffffffffff167f20349893b1eedc154b028f191c7ee4d0d67da83d71803da1649defe35ddc87ab8984888860405161070f9493929190611262565b60405180910390a350505050505050565b60035481565b60008060009054906101000a900473ffffffffffffffffffffffffffffffffffffffff16905090565b7f000000000000000000000000000000000000000000000000000000000000000081565b806001819055507f42ebc15644fe1ca39e719c989e249095a01e7bf6c4e2ea33889a7e33a7664caa6001546040516107ab9190610d0e565b60405180910390a150565b7f000000000000000000000000000000000000000000000000000000000000000073ffffffffffffffffffffffffffffffffffffffff166340c10f1983836040518363ffffffff1660e01b81526004016108119291906111c0565b600060405180830381600087803b15801561082b57600080fd5b505af115801561083f573d6000803e3d6000fd5b505050505050565b61084f610a6a565b600073ffffffffffffffffffffffffffffffffffffffff168173ffffffffffffffffffffffffffffffffffffffff16036108c15760006040517f1e4fbdf70000000000000000000000000000000000000000000000000000000081526004016108b89190610e76565b60405180910390fd5b6108ca81610af1565b50565b60045481565b600581565b6000807f000000000000000000000000000000000000000000000000000000000000000073ffffffffffffffffffffffffffffffffffffffff1663e45aa098846040518263ffffffff1660e01b81526004016109349190610e76565b602060405180830381865afa158015610951573d6000803e3d6000fd5b505050506040513d601f19601f8201168201806040525081019061097591906112bc565b90506000600a610983610384565b61098d91906112e9565b905060006001549050818310156109af57600281029050809350505050610a65565b818310610a5e57600082036109c957809350505050610a65565b6000826064856109d991906112e9565b6109e39190610fc4565b9050606481116109f95781945050505050610a65565b600060646005606484610a0c919061114a565b610a1691906112e9565b610a209190610fc4565b905060328111610a305780610a33565b60325b90506064816064610a44919061114a565b84610a4f91906112e9565b610a599190610fc4565b925050505b8093505050505b919050565b610a72610ced565b73ffffffffffffffffffffffffffffffffffffffff16610a90610726565b73ffffffffffffffffffffffffffffffffffffffff1614610aef57610ab3610ced565b6040517f118cdaa7000000000000000000000000000000000000000000000000000000008152600401610ae69190610e76565b60405180910390fd5b565b60008060009054906101000a900473ffffffffffffffffffffffffffffffffffffffff169050816000806101000a81548173ffffffffffffffffffffffffffffffffffffffff021916908373ffffffffffffffffffffffffffffffffffffffff1602179055508173ffffffffffffffffffffffffffffffffffffffff168173ffffffffffffffffffffffffffffffffffffffff167f8be0079c531659141344cd1fd0a4f28419497f9722a3daafe3b4186f6b6457e060405160405180910390a35050565b60006005600454610bc69190611231565b03610bd357426006819055505b42600381905550600060056001600454610bed919061132b565b610bf79190611231565b03610cea5760046078610c0a9190610fc4565b8110610c3e5760046078610c1e91906112e9565b8111610c2a5780610c39565b60046078610c3891906112e9565b5b610c4d565b60046078610c4c9190610fc4565b5b90506000607882600154610c6191906112e9565b610c6b9190610fc4565b9050600060207fffffffffffffffffffffffffffffffffffffffffffffffffffffffffffffffff901c9050808210610ca35781610ca5565b805b9150816001819055507f42ebc15644fe1ca39e719c989e249095a01e7bf6c4e2ea33889a7e33a7664caa600154604051610cdf9190610d0e565b60405180910390a150505b50565b600033905090565b6000819050919050565b610d0881610cf5565b82525050565b6000602082019050610d236000830184610cff565b92915050565b600073ffffffffffffffffffffffffffffffffffffffff82169050919050565b6000819050919050565b6000610d6e610d69610d6484610d29565b610d49565b610d29565b9050919050565b6000610d8082610d53565b9050919050565b6000610d9282610d75565b9050919050565b610da281610d87565b82525050565b6000602082019050610dbd6000830184610d99565b92915050565b6000819050919050565b610dd681610dc3565b82525050565b6000602082019050610df16000830184610dcd565b92915050565b600080fd5b610e0581610cf5565b8114610e1057600080fd5b50565b600081359050610e2281610dfc565b92915050565b600060208284031215610e3e57610e3d610df7565b5b6000610e4c84828501610e13565b91505092915050565b6000610e6082610d29565b9050919050565b610e7081610e55565b82525050565b6000602082019050610e8b6000830184610e67565b92915050565b6000610e9c82610d75565b9050919050565b610eac81610e91565b82525050565b6000602082019050610ec76000830184610ea3565b92915050565b610ed681610e55565b8114610ee157600080fd5b50565b600081359050610ef381610ecd565b92915050565b60008060408385031215610f1057610f0f610df7565b5b6000610f1e85828601610ee4565b9250506020610f2f85828601610e13565b9150509250929050565b600060208284031215610f4f57610f4e610df7565b5b6000610f5d84828501610ee4565b91505092915050565b7f4e487b7100000000000000000000000000000000000000000000000000000000600052601260045260246000fd5b7f4e487b7100000000000000000000000000000000000000000000000000000000600052601160045260246000fd5b6000610fcf82610cf5565b9150610fda83610cf5565b925082610fea57610fe9610f66565b5b828204905092915050565b60008160601b9050919050565b600061100d82610ff5565b9050919050565b600061101f82611002565b9050919050565b61103761103282610e55565b611014565b82525050565b6000819050919050565b61105861105382610dc3565b61103d565b82525050565b6000819050919050565b61107961107482610cf5565b61105e565b82525050565b600061108b8287611026565b60148201915061109b8286611047565b6020820191506110ab8285611068565b6020820191506110bb8284611068565b60208201915081905095945050505050565b600082825260208201905092915050565b7f4861736820646f65736e2774206d65657420646966666963756c747900000000600082015250565b6000611114601c836110cd565b915061111f826110de565b602082019050919050565b6000602082019050818103600083015261114381611107565b9050919050565b600061115582610cf5565b915061116083610cf5565b925082820390508181111561117857611177610f95565b5b92915050565b60008151905061118d81610ecd565b92915050565b6000602082840312156111a9576111a8610df7565b5b60006111b78482850161117e565b91505092915050565b60006040820190506111d56000830185610e67565b6111e26020830184610cff565b9392505050565b60006111f482610cf5565b91507fffffffffffffffffffffffffffffffffffffffffffffffffffffffffffffffff820361122657611225610f95565b5b600182019050919050565b600061123c82610cf5565b915061124783610cf5565b92508261125757611256610f66565b5b828206905092915050565b60006080820190506112776000830187610cff565b6112846020830186610cff565b6112916040830185610cff565b61129e6060830184610e67565b95945050505050565b6000815190506112b681610dfc565b92915050565b6000602082840312156112d2576112d1610df7565b5b60006112e0848285016112a7565b91505092915050565b60006112f482610cf5565b91506112ff83610cf5565b925082820261130d81610cf5565b9150828204841483151761132457611323610f95565b5b5092915050565b600061133682610cf5565b915061134183610cf5565b925082820190508082111561135957611358610f95565b5b9291505056fea2646970667358221220a7bb806ff0e5744bfd77ddff754504fec175f69465db4159d844bad3ab08f38b64736f6c63430008140033",
          "opcodes": "PUSH1 0xC0 PUSH1 0x40 MSTORE CALLVALUE DUP1 ISZERO PUSH3 0x11 JUMPI PUSH1 0x0 DUP1 REVERT JUMPDEST POP PUSH1 0x40 MLOAD PUSH3 0x16EC CODESIZE SUB DUP1 PUSH3 0x16EC DUP4 CODECOPY DUP2 DUP2 ADD PUSH1 0x40 MSTORE DUP2 ADD SWAP1 PUSH3 0x37 SWAP2 SWAP1 PUSH3 0x2A0 JUMP JUMPDEST CALLER PUSH1 0x0 PUSH20 0xFFFFFFFFFFFFFFFFFFFFFFFFFFFFFFFFFFFFFFFF AND DUP2 PUSH20 0xFFFFFFFFFFFFFFFFFFFFFFFFFFFFFFFFFFFFFFFF AND SUB PUSH3 0xAD JUMPI PUSH1 0x0 PUSH1 0x40 MLOAD PUSH32 0x1E4FBDF700000000000000000000000000000000000000000000000000000000 DUP2 MSTORE PUSH1 0x4 ADD PUSH3 0xA4 SWAP2 SWAP1 PUSH3 0x2F8 JUMP JUMPDEST PUSH1 0x40 MLOAD DUP1 SWAP2 SUB SWAP1 REVERT JUMPDEST PUSH3 0xBE DUP2 PUSH3 0x172 PUSH1 0x20 SHL PUSH1 0x20 SHR JUMP JUMPDEST POP DUP2 PUSH20 0xFFFFFFFFFFFFFFFFFFFFFFFFFFFFFFFFFFFFFFFF AND PUSH1 0x80 DUP2 PUSH20 0xFFFFFFFFFFFFFFFFFFFFFFFFFFFFFFFFFFFFFFFF AND DUP2 MSTORE POP POP DUP1 PUSH20 0xFFFFFFFFFFFFFFFFFFFFFFFFFFFFFFFFFFFFFFFF AND PUSH1 0xA0 DUP2 PUSH20 0xFFFFFFFFFFFFFFFFFFFFFFFFFFFFFFFFFFFFFFFF AND DUP2 MSTORE POP POP TIMESTAMP PUSH1 0x2 DUP2 SWAP1 SSTORE POP TIMESTAMP PUSH1 0x3 DUP2 SWAP1 SSTORE POP PUSH1 0x10 PUSH32 0xFFFFFFFFFFFFFFFFFFFFFFFFFFFFFFFFFFFFFFFFFFFFFFFFFFFFFFFFFFFFFFFF SWAP1 SHR PUSH1 0x1 DUP2 SWAP1 SSTORE POP PUSH1 0x0 DUP1 SHL PUSH1 0x5 DUP2 SWAP1 SSTORE POP POP POP PUSH3 0x315 JUMP JUMPDEST PUSH1 0x0 DUP1 PUSH1 0x0 SWAP1 SLOAD SWAP1 PUSH2 0x100 EXP SWAP1 DIV PUSH20 0xFFFFFFFFFFFFFFFFFFFFFFFFFFFFFFFFFFFFFFFF AND SWAP1 POP DUP2 PUSH1 0x0 DUP1 PUSH2 0x100 EXP DUP2 SLOAD DUP2 PUSH20 0xFFFFFFFFFFFFFFFFFFFFFFFFFFFFFFFFFFFFFFFF MUL NOT AND SWAP1 DUP4 PUSH20 0xFFFFFFFFFFFFFFFFFFFFFFFFFFFFFFFFFFFFFFFF AND MUL OR SWAP1 SSTORE POP DUP2 PUSH20 0xFFFFFFFFFFFFFFFFFFFFFFFFFFFFFFFFFFFFFFFF AND DUP2 PUSH20 0xFFFFFFFFFFFFFFFFFFFFFFFFFFFFFFFFFFFFFFFF AND PUSH32 0x8BE0079C531659141344CD1FD0A4F28419497F9722A3DAAFE3B4186F6B6457E0 PUSH1 0x40 MLOAD PUSH1 0x40 MLOAD DUP1 SWAP2 SUB SWAP1 LOG3 POP POP JUMP JUMPDEST PUSH1 0x0 DUP1 REVERT JUMPDEST PUSH1 0x0 PUSH20 0xFFFFFFFFFFFFFFFFFFFFFFFFFFFFFFFFFFFFFFFF DUP3 AND SWAP1 POP SWAP2 SWAP1 POP JUMP JUMPDEST PUSH1 0x0 PUSH3 0x268 DUP3 PUSH3 0x23B JUMP JUMPDEST SWAP1 POP SWAP2 SWAP1 POP JUMP JUMPDEST PUSH3 0x27A DUP2 PUSH3 0x25B JUMP JUMPDEST DUP2 EQ PUSH3 0x286 JUMPI PUSH1 0x0 DUP1 REVERT JUMPDEST POP JUMP JUMPDEST PUSH1 0x0 DUP2 MLOAD SWAP1 POP PUSH3 0x29A DUP2 PUSH3 0x26F JUMP JUMPDEST SWAP3 SWAP2 POP POP JUMP JUMPDEST PUSH1 0x0 DUP1 PUSH1 0x40 DUP4 DUP6 SUB SLT ISZERO PUSH3 0x2BA JUMPI PUSH3 0x2B9 PUSH3 0x236 JUMP JUMPDEST JUMPDEST PUSH1 0x0 PUSH3 0x2CA DUP6 DUP3 DUP7 ADD PUSH3 0x289 JUMP JUMPDEST SWAP3 POP POP PUSH1 0x20 PUSH3 0x2DD DUP6 DUP3 DUP7 ADD PUSH3 0x289 JUMP JUMPDEST SWAP2 POP POP SWAP3 POP SWAP3 SWAP1 POP JUMP JUMPDEST PUSH3 0x2F2 DUP2 PUSH3 0x25B JUMP JUMPDEST DUP3 MSTORE POP POP JUMP JUMPDEST PUSH1 0x0 PUSH1 0x20 DUP3 ADD SWAP1 POP PUSH3 0x30F PUSH1 0x0 DUP4 ADD DUP5 PUSH3 0x2E7 JUMP JUMPDEST SWAP3 SWAP2 POP POP JUMP JUMPDEST PUSH1 0x80 MLOAD PUSH1 0xA0 MLOAD PUSH2 0x1395 PUSH3 0x357 PUSH1 0x0 CODECOPY PUSH1 0x0 DUP2 DUP2 PUSH2 0x4D8 ADD MSTORE DUP2 DUP2 PUSH2 0x751 ADD MSTORE PUSH2 0x8DD ADD MSTORE PUSH1 0x0 DUP2 DUP2 PUSH2 0x3CE ADD MSTORE DUP2 DUP2 PUSH2 0x5B8 ADD MSTORE PUSH2 0x7B8 ADD MSTORE PUSH2 0x1395 PUSH1 0x0 RETURN INVALID PUSH1 0x80 PUSH1 0x40 MSTORE CALLVALUE DUP1 ISZERO PUSH2 0x10 JUMPI PUSH1 0x0 DUP1 REVERT JUMPDEST POP PUSH1 0x4 CALLDATASIZE LT PUSH2 0x12B JUMPI PUSH1 0x0 CALLDATALOAD PUSH1 0xE0 SHR DUP1 PUSH4 0x73E9710F GT PUSH2 0xAD JUMPI DUP1 PUSH4 0xE1520947 GT PUSH2 0x71 JUMPI DUP1 PUSH4 0xE1520947 EQ PUSH2 0x2DA JUMPI DUP1 PUSH4 0xF2FDE38B EQ PUSH2 0x2F6 JUMPI DUP1 PUSH4 0xF44FF712 EQ PUSH2 0x312 JUMPI DUP1 PUSH4 0xFCD4D279 EQ PUSH2 0x330 JUMPI DUP1 PUSH4 0xFDD0CE91 EQ PUSH2 0x34E JUMPI PUSH2 0x12B JUMP JUMPDEST DUP1 PUSH4 0x73E9710F EQ PUSH2 0x248 JUMPI DUP1 PUSH4 0x85E63FC6 EQ PUSH2 0x264 JUMPI DUP1 PUSH4 0x8DA5CB5B EQ PUSH2 0x282 JUMPI DUP1 PUSH4 0x93621D15 EQ PUSH2 0x2A0 JUMPI DUP1 PUSH4 0xA8E2F935 EQ PUSH2 0x2BE JUMPI PUSH2 0x12B JUMP JUMPDEST DUP1 PUSH4 0x391E0D09 GT PUSH2 0xF4 JUMPI DUP1 PUSH4 0x391E0D09 EQ PUSH2 0x1C6 JUMPI DUP1 PUSH4 0x474C9EA2 EQ PUSH2 0x1E4 JUMPI DUP1 PUSH4 0x5C0ECFAD EQ PUSH2 0x202 JUMPI DUP1 PUSH4 0x5FD9491D EQ PUSH2 0x220 JUMPI DUP1 PUSH4 0x715018A6 EQ PUSH2 0x23E JUMPI PUSH2 0x12B JUMP JUMPDEST DUP1 PUSH3 0xD4D2A0 EQ PUSH2 0x130 JUMPI DUP1 PUSH4 0x7621ECA EQ PUSH2 0x14E JUMPI DUP1 PUSH4 0x17AB667F EQ PUSH2 0x16C JUMPI DUP1 PUSH4 0x27F8DFA1 EQ PUSH2 0x18A JUMPI DUP1 PUSH4 0x36BCF7D6 EQ PUSH2 0x1A8 JUMPI JUMPDEST PUSH1 0x0 DUP1 REVERT JUMPDEST PUSH2 0x138 PUSH2 0x37E JUMP JUMPDEST PUSH1 0x40 MLOAD PUSH2 0x145 SWAP2 SWAP1 PUSH2 0xD0E JUMP JUMPDEST PUSH1 0x40 MLOAD DUP1 SWAP2 SUB SWAP1 RETURN JUMPDEST PUSH2 0x156 PUSH2 0x384 JUMP JUMPDEST PUSH1 0x40 MLOAD PUSH2 0x163 SWAP2 SWAP1 PUSH2 0xD0E JUMP JUMPDEST PUSH1 0x40 MLOAD DUP1 SWAP2 SUB SWAP1 RETURN JUMPDEST PUSH2 0x174 PUSH2 0x3CC JUMP JUMPDEST PUSH1 0x40 MLOAD PUSH2 0x181 SWAP2 SWAP1 PUSH2 0xDA8 JUMP JUMPDEST PUSH1 0x40 MLOAD DUP1 SWAP2 SUB SWAP1 RETURN JUMPDEST PUSH2 0x192 PUSH2 0x3F0 JUMP JUMPDEST PUSH1 0x40 MLOAD PUSH2 0x19F SWAP2 SWAP1 PUSH2 0xD0E JUMP JUMPDEST PUSH1 0x40 MLOAD DUP1 SWAP2 SUB SWAP1 RETURN JUMPDEST PUSH2 0x1B0 PUSH2 0x3F6 JUMP JUMPDEST PUSH1 0x40 MLOAD PUSH2 0x1BD SWAP2 SWAP1 PUSH2 0xD0E JUMP JUMPDEST PUSH1 0x40 MLOAD DUP1 SWAP2 SUB SWAP1 RETURN JUMPDEST PUSH2 0x1CE PUSH2 0x402 JUMP JUMPDEST PUSH1 0x40 MLOAD PUSH2 0x1DB SWAP2 SWAP1 PUSH2 0xD0E JUMP JUMPDEST PUSH1 0x40 MLOAD DUP1 SWAP2 SUB SWAP1 RETURN JUMPDEST PUSH2 0x1EC PUSH2 0x408 JUMP JUMPDEST PUSH1 0x40 MLOAD PUSH2 0x1F9 SWAP2 SWAP1 PUSH2 0xD0E JUMP JUMPDEST PUSH1 0x40 MLOAD DUP1 SWAP2 SUB SWAP1 RETURN JUMPDEST PUSH2 0x20A PUSH2 0x40D JUMP JUMPDEST PUSH1 0x40 MLOAD PUSH2 0x217 SWAP2 SWAP1 PUSH2 0xDDC JUMP JUMPDEST PUSH1 0x40 MLOAD DUP1 SWAP2 SUB SWAP1 RETURN JUMPDEST PUSH2 0x228 PUSH2 0x413 JUMP JUMPDEST PUSH1 0x40 MLOAD PUSH2 0x235 SWAP2 SWAP1 PUSH2 0xD0E JUMP JUMPDEST PUSH1 0x40 MLOAD DUP1 SWAP2 SUB SWAP1 RETURN JUMPDEST PUSH2 0x246 PUSH2 0x41A JUMP JUMPDEST STOP JUMPDEST PUSH2 0x262 PUSH1 0x4 DUP1 CALLDATASIZE SUB DUP2 ADD SWAP1 PUSH2 0x25D SWAP2 SWAP1 PUSH2 0xE28 JUMP JUMPDEST PUSH2 0x42E JUMP JUMPDEST STOP JUMPDEST PUSH2 0x26C PUSH2 0x720 JUMP JUMPDEST PUSH1 0x40 MLOAD PUSH2 0x279 SWAP2 SWAP1 PUSH2 0xD0E JUMP JUMPDEST PUSH1 0x40 MLOAD DUP1 SWAP2 SUB SWAP1 RETURN JUMPDEST PUSH2 0x28A PUSH2 0x726 JUMP JUMPDEST PUSH1 0x40 MLOAD PUSH2 0x297 SWAP2 SWAP1 PUSH2 0xE76 JUMP JUMPDEST PUSH1 0x40 MLOAD DUP1 SWAP2 SUB SWAP1 RETURN JUMPDEST PUSH2 0x2A8 PUSH2 0x74F JUMP JUMPDEST PUSH1 0x40 MLOAD PUSH2 0x2B5 SWAP2 SWAP1 PUSH2 0xEB2 JUMP JUMPDEST PUSH1 0x40 MLOAD DUP1 SWAP2 SUB SWAP1 RETURN JUMPDEST PUSH2 0x2D8 PUSH1 0x4 DUP1 CALLDATASIZE SUB DUP2 ADD SWAP1 PUSH2 0x2D3 SWAP2 SWAP1 PUSH2 0xE28 JUMP JUMPDEST PUSH2 0x773 JUMP JUMPDEST STOP JUMPDEST PUSH2 0x2F4 PUSH1 0x4 DUP1 CALLDATASIZE SUB DUP2 ADD SWAP1 PUSH2 0x2EF SWAP2 SWAP1 PUSH2 0xEF9 JUMP JUMPDEST PUSH2 0x7B6 JUMP JUMPDEST STOP JUMPDEST PUSH2 0x310 PUSH1 0x4 DUP1 CALLDATASIZE SUB DUP2 ADD SWAP1 PUSH2 0x30B SWAP2 SWAP1 PUSH2 0xF39 JUMP JUMPDEST PUSH2 0x847 JUMP JUMPDEST STOP JUMPDEST PUSH2 0x31A PUSH2 0x8CD JUMP JUMPDEST PUSH1 0x40 MLOAD PUSH2 0x327 SWAP2 SWAP1 PUSH2 0xD0E JUMP JUMPDEST PUSH1 0x40 MLOAD DUP1 SWAP2 SUB SWAP1 RETURN JUMPDEST PUSH2 0x338 PUSH2 0x8D3 JUMP JUMPDEST PUSH1 0x40 MLOAD PUSH2 0x345 SWAP2 SWAP1 PUSH2 0xD0E JUMP JUMPDEST PUSH1 0x40 MLOAD DUP1 SWAP2 SUB SWAP1 RETURN JUMPDEST PUSH2 0x368 PUSH1 0x4 DUP1 CALLDATASIZE SUB DUP2 ADD SWAP1 PUSH2 0x363 SWAP2 SWAP1 PUSH2 0xF39 JUMP JUMPDEST PUSH2 0x8D8 JUMP JUMPDEST PUSH1 0x40 MLOAD PUSH2 0x375 SWAP2 SWAP1 PUSH2 0xD0E JUMP JUMPDEST PUSH1 0x40 MLOAD DUP1 SWAP2 SUB SWAP1 RETURN JUMPDEST PUSH1 0x6 SLOAD DUP2 JUMP JUMPDEST PUSH1 0x0 DUP1 PUSH3 0x40290 PUSH1 0x4 SLOAD PUSH2 0x398 SWAP2 SWAP1 PUSH2 0xFC4 JUMP JUMPDEST SWAP1 POP PUSH1 0x0 DUP2 PUSH8 0x8AC7230489E80000 SWAP1 SHR SWAP1 POP PUSH6 0x5AF3107A4000 DUP2 GT PUSH2 0x3C3 JUMPI PUSH6 0x5AF3107A4000 PUSH2 0x3C5 JUMP JUMPDEST DUP1 JUMPDEST SWAP3 POP POP POP SWAP1 JUMP JUMPDEST PUSH32 0x0 DUP2 JUMP JUMPDEST PUSH1 0x1 SLOAD DUP2 JUMP JUMPDEST PUSH8 0x8AC7230489E80000 DUP2 JUMP JUMPDEST PUSH1 0x2 SLOAD DUP2 JUMP JUMPDEST PUSH1 0x78 DUP2 JUMP JUMPDEST PUSH1 0x5 SLOAD DUP2 JUMP JUMPDEST PUSH3 0x40290 DUP2 JUMP JUMPDEST PUSH2 0x422 PUSH2 0xA6A JUMP JUMPDEST PUSH2 0x42C PUSH1 0x0 PUSH2 0xAF1 JUMP JUMPDEST JUMP JUMPDEST PUSH1 0x0 PUSH2 0x439 CALLER PUSH2 0x8D8 JUMP JUMPDEST SWAP1 POP PUSH1 0x0 CALLER PUSH1 0x5 SLOAD DUP4 DUP6 PUSH1 0x40 MLOAD PUSH1 0x20 ADD PUSH2 0x456 SWAP5 SWAP4 SWAP3 SWAP2 SWAP1 PUSH2 0x107F JUMP JUMPDEST PUSH1 0x40 MLOAD PUSH1 0x20 DUP2 DUP4 SUB SUB DUP2 MSTORE SWAP1 PUSH1 0x40 MSTORE DUP1 MLOAD SWAP1 PUSH1 0x20 ADD KECCAK256 SWAP1 POP DUP2 DUP2 PUSH1 0x0 SHR GT ISZERO PUSH2 0x4B4 JUMPI PUSH1 0x40 MLOAD PUSH32 0x8C379A000000000000000000000000000000000000000000000000000000000 DUP2 MSTORE PUSH1 0x4 ADD PUSH2 0x4AB SWAP1 PUSH2 0x112A JUMP JUMPDEST PUSH1 0x40 MLOAD DUP1 SWAP2 SUB SWAP1 REVERT JUMPDEST PUSH1 0x0 PUSH1 0x3 SLOAD TIMESTAMP PUSH2 0x4C4 SWAP2 SWAP1 PUSH2 0x114A JUMP JUMPDEST SWAP1 POP PUSH2 0x4CF DUP2 PUSH2 0xBB5 JUMP JUMPDEST PUSH1 0x0 CALLER SWAP1 POP PUSH1 0x0 PUSH32 0x0 PUSH20 0xFFFFFFFFFFFFFFFFFFFFFFFFFFFFFFFFFFFFFFFF AND PUSH4 0x6BF45D90 CALLER PUSH1 0x40 MLOAD DUP3 PUSH4 0xFFFFFFFF AND PUSH1 0xE0 SHL DUP2 MSTORE PUSH1 0x4 ADD PUSH2 0x52F SWAP2 SWAP1 PUSH2 0xE76 JUMP JUMPDEST PUSH1 0x20 PUSH1 0x40 MLOAD DUP1 DUP4 SUB DUP2 DUP7 GAS STATICCALL ISZERO DUP1 ISZERO PUSH2 0x54C JUMPI RETURNDATASIZE PUSH1 0x0 DUP1 RETURNDATACOPY RETURNDATASIZE PUSH1 0x0 REVERT JUMPDEST POP POP POP POP PUSH1 0x40 MLOAD RETURNDATASIZE PUSH1 0x1F NOT PUSH1 0x1F DUP3 ADD AND DUP3 ADD DUP1 PUSH1 0x40 MSTORE POP DUP2 ADD SWAP1 PUSH2 0x570 SWAP2 SWAP1 PUSH2 0x1193 JUMP JUMPDEST SWAP1 POP PUSH1 0x0 PUSH20 0xFFFFFFFFFFFFFFFFFFFFFFFFFFFFFFFFFFFFFFFF AND DUP2 PUSH20 0xFFFFFFFFFFFFFFFFFFFFFFFFFFFFFFFFFFFFFFFF AND EQ PUSH2 0x5AA JUMPI DUP1 SWAP2 POP JUMPDEST PUSH1 0x0 PUSH2 0x5B4 PUSH2 0x384 JUMP JUMPDEST SWAP1 POP PUSH32 0x0 PUSH20 0xFFFFFFFFFFFFFFFFFFFFFFFFFFFFFFFFFFFFFFFF AND PUSH4 0x40C10F19 DUP5 DUP4 PUSH1 0x40 MLOAD DUP4 PUSH4 0xFFFFFFFF AND PUSH1 0xE0 SHL DUP2 MSTORE PUSH1 0x4 ADD PUSH2 0x611 SWAP3 SWAP2 SWAP1 PUSH2 0x11C0 JUMP JUMPDEST PUSH1 0x0 PUSH1 0x40 MLOAD DUP1 DUP4 SUB DUP2 PUSH1 0x0 DUP8 DUP1 EXTCODESIZE ISZERO DUP1 ISZERO PUSH2 0x62B JUMPI PUSH1 0x0 DUP1 REVERT JUMPDEST POP GAS CALL ISZERO DUP1 ISZERO PUSH2 0x63F JUMPI RETURNDATASIZE PUSH1 0x0 DUP1 RETURNDATACOPY RETURNDATASIZE PUSH1 0x0 REVERT JUMPDEST POP POP POP POP DUP5 PUSH1 0x5 DUP2 SWAP1 SSTORE POP TIMESTAMP PUSH1 0x3 DUP2 SWAP1 SSTORE POP PUSH1 0x4 PUSH1 0x0 DUP2 SLOAD DUP1 SWAP3 SWAP2 SWAP1 PUSH2 0x664 SWAP1 PUSH2 0x11E9 JUMP JUMPDEST SWAP2 SWAP1 POP SSTORE POP PUSH1 0x0 PUSH3 0x40290 PUSH1 0x4 SLOAD PUSH2 0x67C SWAP2 SWAP1 PUSH2 0x1231 JUMP JUMPDEST SUB PUSH2 0x6C0 JUMPI PUSH32 0xF92B4D3A8D8BA77170DD5CF6B65260191092093F924263A88C3C60DD8495F091 PUSH2 0x6AA PUSH2 0x384 JUMP JUMPDEST PUSH1 0x40 MLOAD PUSH2 0x6B7 SWAP2 SWAP1 PUSH2 0xD0E JUMP JUMPDEST PUSH1 0x40 MLOAD DUP1 SWAP2 SUB SWAP1 LOG1 JUMPDEST PUSH1 0x4 SLOAD CALLER PUSH20 0xFFFFFFFFFFFFFFFFFFFFFFFFFFFFFFFFFFFFFFFF AND PUSH32 0x20349893B1EEDC154B028F191C7EE4D0D67DA83D71803DA1649DEFE35DDC87AB DUP10 DUP5 DUP9 DUP9 PUSH1 0x40 MLOAD PUSH2 0x70F SWAP5 SWAP4 SWAP3 SWAP2 SWAP1 PUSH2 0x1262 JUMP JUMPDEST PUSH1 0x40 MLOAD DUP1 SWAP2 SUB SWAP1 LOG3 POP POP POP POP POP POP POP JUMP JUMPDEST PUSH1 0x3 SLOAD DUP2 JUMP JUMPDEST PUSH1 0x0 DUP1 PUSH1 0x0 SWAP1 SLOAD SWAP1 PUSH2 0x100 EXP SWAP1 DIV PUSH20 0xFFFFFFFFFFFFFFFFFFFFFFFFFFFFFFFFFFFFFFFF AND SWAP1 POP SWAP1 JUMP JUMPDEST PUSH32 0x0 DUP2 JUMP JUMPDEST DUP1 PUSH1 0x1 DUP2 SWAP1 SSTORE POP PUSH32 0x42EBC15644FE1CA39E719C989E249095A01E7BF6C4E2EA33889A7E33A7664CAA PUSH1 0x1 SLOAD PUSH1 0x40 MLOAD PUSH2 0x7AB SWAP2 SWAP1 PUSH2 0xD0E JUMP JUMPDEST PUSH1 0x40 MLOAD DUP1 SWAP2 SUB SWAP1 LOG1 POP JUMP JUMPDEST PUSH32 0x0 PUSH20 0xFFFFFFFFFFFFFFFFFFFFFFFFFFFFFFFFFFFFFFFF AND PUSH4 0x40C10F19 DUP4 DUP4 PUSH1 0x40 MLOAD DUP4 PUSH4 0xFFFFFFFF AND PUSH1 0xE0 SHL DUP2 MSTORE PUSH1 0x4 ADD PUSH2 0x811 SWAP3 SWAP2 SWAP1 PUSH2 0x11C0 JUMP JUMPDEST PUSH1 0x0 PUSH1 0x40 MLOAD DUP1 DUP4 SUB DUP2 PUSH1 0x0 DUP8 DUP1 EXTCODESIZE ISZERO DUP1 ISZERO PUSH2 0x82B JUMPI PUSH1 0x0 DUP1 REVERT JUMPDEST POP GAS CALL ISZERO DUP1 ISZERO PUSH2 0x83F JUMPI RETURNDATASIZE PUSH1 0x0 DUP1 RETURNDATACOPY RETURNDATASIZE PUSH1 0x0 REVERT JUMPDEST POP POP POP POP POP POP JUMP JUMPDEST PUSH2 0x84F PUSH2 0xA6A JUMP JUMPDEST PUSH1 0x0 PUSH20 0xFFFFFFFFFFFFFFFFFFFFFFFFFFFFFFFFFFFFFFFF AND DUP2 PUSH20 0xFFFFFFFFFFFFFFFFFFFFFFFFFFFFFFFFFFFFFFFF AND SUB PUSH2 0x8C1 JUMPI PUSH1 0x0 PUSH1 0x40 MLOAD PUSH32 0x1E4FBDF700000000000000000000000000000000000000000000000000000000 DUP2 MSTORE PUSH1 0x4 ADD PUSH2 0x8B8 SWAP2 SWAP1 PUSH2 0xE76 JUMP JUMPDEST PUSH1 0x40 MLOAD DUP1 SWAP2 SUB SWAP1 REVERT JUMPDEST PUSH2 0x8CA DUP2 PUSH2 0xAF1 JUMP JUMPDEST POP JUMP JUMPDEST PUSH1 0x4 SLOAD DUP2 JUMP JUMPDEST PUSH1 0x5 DUP2 JUMP JUMPDEST PUSH1 0x0 DUP1 PUSH32 0x0 PUSH20 0xFFFFFFFFFFFFFFFFFFFFFFFFFFFFFFFFFFFFFFFF AND PUSH4 0xE45AA098 DUP5 PUSH1 0x40 MLOAD DUP3 PUSH4 0xFFFFFFFF AND PUSH1 0xE0 SHL DUP2 MSTORE PUSH1 0x4 ADD PUSH2 0x934 SWAP2 SWAP1 PUSH2 0xE76 JUMP JUMPDEST PUSH1 0x20 PUSH1 0x40 MLOAD DUP1 DUP4 SUB DUP2 DUP7 GAS STATICCALL ISZERO DUP1 ISZERO PUSH2 0x951 JUMPI RETURNDATASIZE PUSH1 0x0 DUP1 RETURNDATACOPY RETURNDATASIZE PUSH1 0x0 REVERT JUMPDEST POP POP POP POP PUSH1 0x40 MLOAD RETURNDATASIZE PUSH1 0x1F NOT PUSH1 0x1F DUP3 ADD AND DUP3 ADD DUP1 PUSH1 0x40 MSTORE POP DUP2 ADD SWAP1 PUSH2 0x975 SWAP2 SWAP1 PUSH2 0x12BC JUMP JUMPDEST SWAP1 POP PUSH1 0x0 PUSH1 0xA PUSH2 0x983 PUSH2 0x384 JUMP JUMPDEST PUSH2 0x98D SWAP2 SWAP1 PUSH2 0x12E9 JUMP JUMPDEST SWAP1 POP PUSH1 0x0 PUSH1 0x1 SLOAD SWAP1 POP DUP2 DUP4 LT ISZERO PUSH2 0x9AF JUMPI PUSH1 0x2 DUP2 MUL SWAP1 POP DUP1 SWAP4 POP POP POP POP PUSH2 0xA65 JUMP JUMPDEST DUP2 DUP4 LT PUSH2 0xA5E JUMPI PUSH1 0x0 DUP3 SUB PUSH2 0x9C9 JUMPI DUP1 SWAP4 POP POP POP POP PUSH2 0xA65 JUMP JUMPDEST PUSH1 0x0 DUP3 PUSH1 0x64 DUP6 PUSH2 0x9D9 SWAP2 SWAP1 PUSH2 0x12E9 JUMP JUMPDEST PUSH2 0x9E3 SWAP2 SWAP1 PUSH2 0xFC4 JUMP JUMPDEST SWAP1 POP PUSH1 0x64 DUP2 GT PUSH2 0x9F9 JUMPI DUP2 SWAP5 POP POP POP POP POP PUSH2 0xA65 JUMP JUMPDEST PUSH1 0x0 PUSH1 0x64 PUSH1 0x5 PUSH1 0x64 DUP5 PUSH2 0xA0C SWAP2 SWAP1 PUSH2 0x114A JUMP JUMPDEST PUSH2 0xA16 SWAP2 SWAP1 PUSH2 0x12E9 JUMP JUMPDEST PUSH2 0xA20 SWAP2 SWAP1 PUSH2 0xFC4 JUMP JUMPDEST SWAP1 POP PUSH1 0x32 DUP2 GT PUSH2 0xA30 JUMPI DUP1 PUSH2 0xA33 JUMP JUMPDEST PUSH1 0x32 JUMPDEST SWAP1 POP PUSH1 0x64 DUP2 PUSH1 0x64 PUSH2 0xA44 SWAP2 SWAP1 PUSH2 0x114A JUMP JUMPDEST DUP5 PUSH2 0xA4F SWAP2 SWAP1 PUSH2 0x12E9 JUMP JUMPDEST PUSH2 0xA59 SWAP2 SWAP1 PUSH2 0xFC4 JUMP JUMPDEST SWAP3 POP POP POP JUMPDEST DUP1 SWAP4 POP POP POP POP JUMPDEST SWAP2 SWAP1 POP JUMP JUMPDEST PUSH2 0xA72 PUSH2 0xCED JUMP JUMPDEST PUSH20 0xFFFFFFFFFFFFFFFFFFFFFFFFFFFFFFFFFFFFFFFF AND PUSH2 0xA90 PUSH2 0x726 JUMP JUMPDEST PUSH20 0xFFFFFFFFFFFFFFFFFFFFFFFFFFFFFFFFFFFFFFFF AND EQ PUSH2 0xAEF JUMPI PUSH2 0xAB3 PUSH2 0xCED JUMP JUMPDEST PUSH1 0x40 MLOAD PUSH32 0x118CDAA700000000000000000000000000000000000000000000000000000000 DUP2 MSTORE PUSH1 0x4 ADD PUSH2 0xAE6 SWAP2 SWAP1 PUSH2 0xE76 JUMP JUMPDEST PUSH1 0x40 MLOAD DUP1 SWAP2 SUB SWAP1 REVERT JUMPDEST JUMP JUMPDEST PUSH1 0x0 DUP1 PUSH1 0x0 SWAP1 SLOAD SWAP1 PUSH2 0x100 EXP SWAP1 DIV PUSH20 0xFFFFFFFFFFFFFFFFFFFFFFFFFFFFFFFFFFFFFFFF AND SWAP1 POP DUP2 PUSH1 0x0 DUP1 PUSH2 0x100 EXP DUP2 SLOAD DUP2 PUSH20 0xFFFFFFFFFFFFFFFFFFFFFFFFFFFFFFFFFFFFFFFF MUL NOT AND SWAP1 DUP4 PUSH20 0xFFFFFFFFFFFFFFFFFFFFFFFFFFFFFFFFFFFFFFFF AND MUL OR SWAP1 SSTORE POP DUP2 PUSH20 0xFFFFFFFFFFFFFFFFFFFFFFFFFFFFFFFFFFFFFFFF AND DUP2 PUSH20 0xFFFFFFFFFFFFFFFFFFFFFFFFFFFFFFFFFFFFFFFF AND PUSH32 0x8BE0079C531659141344CD1FD0A4F28419497F9722A3DAAFE3B4186F6B6457E0 PUSH1 0x40 MLOAD PUSH1 0x40 MLOAD DUP1 SWAP2 SUB SWAP1 LOG3 POP POP JUMP JUMPDEST PUSH1 0x0 PUSH1 0x5 PUSH1 0x4 SLOAD PUSH2 0xBC6 SWAP2 SWAP1 PUSH2 0x1231 JUMP JUMPDEST SUB PUSH2 0xBD3 JUMPI TIMESTAMP PUSH1 0x6 DUP2 SWAP1 SSTORE POP JUMPDEST TIMESTAMP PUSH1 0x3 DUP2 SWAP1 SSTORE POP PUSH1 0x0 PUSH1 0x5 PUSH1 0x1 PUSH1 0x4 SLOAD PUSH2 0xBED SWAP2 SWAP1 PUSH2 0x132B JUMP JUMPDEST PUSH2 0xBF7 SWAP2 SWAP1 PUSH2 0x1231 JUMP JUMPDEST SUB PUSH2 0xCEA JUMPI PUSH1 0x4 PUSH1 0x78 PUSH2 0xC0A SWAP2 SWAP1 PUSH2 0xFC4 JUMP JUMPDEST DUP2 LT PUSH2 0xC3E JUMPI PUSH1 0x4 PUSH1 0x78 PUSH2 0xC1E SWAP2 SWAP1 PUSH2 0x12E9 JUMP JUMPDEST DUP2 GT PUSH2 0xC2A JUMPI DUP1 PUSH2 0xC39 JUMP JUMPDEST PUSH1 0x4 PUSH1 0x78 PUSH2 0xC38 SWAP2 SWAP1 PUSH2 0x12E9 JUMP JUMPDEST JUMPDEST PUSH2 0xC4D JUMP JUMPDEST PUSH1 0x4 PUSH1 0x78 PUSH2 0xC4C SWAP2 SWAP1 PUSH2 0xFC4 JUMP JUMPDEST JUMPDEST SWAP1 POP PUSH1 0x0 PUSH1 0x78 DUP3 PUSH1 0x1 SLOAD PUSH2 0xC61 SWAP2 SWAP1 PUSH2 0x12E9 JUMP JUMPDEST PUSH2 0xC6B SWAP2 SWAP1 PUSH2 0xFC4 JUMP JUMPDEST SWAP1 POP PUSH1 0x0 PUSH1 0x20 PUSH32 0xFFFFFFFFFFFFFFFFFFFFFFFFFFFFFFFFFFFFFFFFFFFFFFFFFFFFFFFFFFFFFFFF SWAP1 SHR SWAP1 POP DUP1 DUP3 LT PUSH2 0xCA3 JUMPI DUP2 PUSH2 0xCA5 JUMP JUMPDEST DUP1 JUMPDEST SWAP2 POP DUP2 PUSH1 0x1 DUP2 SWAP1 SSTORE POP PUSH32 0x42EBC15644FE1CA39E719C989E249095A01E7BF6C4E2EA33889A7E33A7664CAA PUSH1 0x1 SLOAD PUSH1 0x40 MLOAD PUSH2 0xCDF SWAP2 SWAP1 PUSH2 0xD0E JUMP JUMPDEST PUSH1 0x40 MLOAD DUP1 SWAP2 SUB SWAP1 LOG1 POP POP JUMPDEST POP JUMP JUMPDEST PUSH1 0x0 CALLER SWAP1 POP SWAP1 JUMP JUMPDEST PUSH1 0x0 DUP2 SWAP1 POP SWAP2 SWAP1 POP JUMP JUMPDEST PUSH2 0xD08 DUP2 PUSH2 0xCF5 JUMP JUMPDEST DUP3 MSTORE POP POP JUMP JUMPDEST PUSH1 0x0 PUSH1 0x20 DUP3 ADD SWAP1 POP PUSH2 0xD23 PUSH1 0x0 DUP4 ADD DUP5 PUSH2 0xCFF JUMP JUMPDEST SWAP3 SWAP2 POP POP JUMP JUMPDEST PUSH1 0x0 PUSH20 0xFFFFFFFFFFFFFFFFFFFFFFFFFFFFFFFFFFFFFFFF DUP3 AND SWAP1 POP SWAP2 SWAP1 POP JUMP JUMPDEST PUSH1 0x0 DUP2 SWAP1 POP SWAP2 SWAP1 POP JUMP JUMPDEST PUSH1 0x0 PUSH2 0xD6E PUSH2 0xD69 PUSH2 0xD64 DUP5 PUSH2 0xD29 JUMP JUMPDEST PUSH2 0xD49 JUMP JUMPDEST PUSH2 0xD29 JUMP JUMPDEST SWAP1 POP SWAP2 SWAP1 POP JUMP JUMPDEST PUSH1 0x0 PUSH2 0xD80 DUP3 PUSH2 0xD53 JUMP JUMPDEST SWAP1 POP SWAP2 SWAP1 POP JUMP JUMPDEST PUSH1 0x0 PUSH2 0xD92 DUP3 PUSH2 0xD75 JUMP JUMPDEST SWAP1 POP SWAP2 SWAP1 POP JUMP JUMPDEST PUSH2 0xDA2 DUP2 PUSH2 0xD87 JUMP JUMPDEST DUP3 MSTORE POP POP JUMP JUMPDEST PUSH1 0x0 PUSH1 0x20 DUP3 ADD SWAP1 POP PUSH2 0xDBD PUSH1 0x0 DUP4 ADD DUP5 PUSH2 0xD99 JUMP JUMPDEST SWAP3 SWAP2 POP POP JUMP JUMPDEST PUSH1 0x0 DUP2 SWAP1 POP SWAP2 SWAP1 POP JUMP JUMPDEST PUSH2 0xDD6 DUP2 PUSH2 0xDC3 JUMP JUMPDEST DUP3 MSTORE POP POP JUMP JUMPDEST PUSH1 0x0 PUSH1 0x20 DUP3 ADD SWAP1 POP PUSH2 0xDF1 PUSH1 0x0 DUP4 ADD DUP5 PUSH2 0xDCD JUMP JUMPDEST SWAP3 SWAP2 POP POP JUMP JUMPDEST PUSH1 0x0 DUP1 REVERT JUMPDEST PUSH2 0xE05 DUP2 PUSH2 0xCF5 JUMP JUMPDEST DUP2 EQ PUSH2 0xE10 JUMPI PUSH1 0x0 DUP1 REVERT JUMPDEST POP JUMP JUMPDEST PUSH1 0x0 DUP2 CALLDATALOAD SWAP1 POP PUSH2 0xE22 DUP2 PUSH2 0xDFC JUMP JUMPDEST SWAP3 SWAP2 POP POP JUMP JUMPDEST PUSH1 0x0 PUSH1 0x20 DUP3 DUP5 SUB SLT ISZERO PUSH2 0xE3E JUMPI PUSH2 0xE3D PUSH2 0xDF7 JUMP JUMPDEST JUMPDEST PUSH1 0x0 PUSH2 0xE4C DUP5 DUP3 DUP6 ADD PUSH2 0xE13 JUMP JUMPDEST SWAP2 POP POP SWAP3 SWAP2 POP POP JUMP JUMPDEST PUSH1 0x0 PUSH2 0xE60 DUP3 PUSH2 0xD29 JUMP JUMPDEST SWAP1 POP SWAP2 SWAP1 POP JUMP JUMPDEST PUSH2 0xE70 DUP2 PUSH2 0xE55 JUMP JUMPDEST DUP3 MSTORE POP POP JUMP JUMPDEST PUSH1 0x0 PUSH1 0x20 DUP3 ADD SWAP1 POP PUSH2 0xE8B PUSH1 0x0 DUP4 ADD DUP5 PUSH2 0xE67 JUMP JUMPDEST SWAP3 SWAP2 POP POP JUMP JUMPDEST PUSH1 0x0 PUSH2 0xE9C DUP3 PUSH2 0xD75 JUMP JUMPDEST SWAP1 POP SWAP2 SWAP1 POP JUMP JUMPDEST PUSH2 0xEAC DUP2 PUSH2 0xE91 JUMP JUMPDEST DUP3 MSTORE POP POP JUMP JUMPDEST PUSH1 0x0 PUSH1 0x20 DUP3 ADD SWAP1 POP PUSH2 0xEC7 PUSH1 0x0 DUP4 ADD DUP5 PUSH2 0xEA3 JUMP JUMPDEST SWAP3 SWAP2 POP POP JUMP JUMPDEST PUSH2 0xED6 DUP2 PUSH2 0xE55 JUMP JUMPDEST DUP2 EQ PUSH2 0xEE1 JUMPI PUSH1 0x0 DUP1 REVERT JUMPDEST POP JUMP JUMPDEST PUSH1 0x0 DUP2 CALLDATALOAD SWAP1 POP PUSH2 0xEF3 DUP2 PUSH2 0xECD JUMP JUMPDEST SWAP3 SWAP2 POP POP JUMP JUMPDEST PUSH1 0x0 DUP1 PUSH1 0x40 DUP4 DUP6 SUB SLT ISZERO PUSH2 0xF10 JUMPI PUSH2 0xF0F PUSH2 0xDF7 JUMP JUMPDEST JUMPDEST PUSH1 0x0 PUSH2 0xF1E DUP6 DUP3 DUP7 ADD PUSH2 0xEE4 JUMP JUMPDEST SWAP3 POP POP PUSH1 0x20 PUSH2 0xF2F DUP6 DUP3 DUP7 ADD PUSH2 0xE13 JUMP JUMPDEST SWAP2 POP POP SWAP3 POP SWAP3 SWAP1 POP JUMP JUMPDEST PUSH1 0x0 PUSH1 0x20 DUP3 DUP5 SUB SLT ISZERO PUSH2 0xF4F JUMPI PUSH2 0xF4E PUSH2 0xDF7 JUMP JUMPDEST JUMPDEST PUSH1 0x0 PUSH2 0xF5D DUP5 DUP3 DUP6 ADD PUSH2 0xEE4 JUMP JUMPDEST SWAP2 POP POP SWAP3 SWAP2 POP POP JUMP JUMPDEST PUSH32 0x4E487B7100000000000000000000000000000000000000000000000000000000 PUSH1 0x0 MSTORE PUSH1 0x12 PUSH1 0x4 MSTORE PUSH1 0x24 PUSH1 0x0 REVERT JUMPDEST PUSH32 0x4E487B7100000000000000000000000000000000000000000000000000000000 PUSH1 0x0 MSTORE PUSH1 0x11 PUSH1 0x4 MSTORE PUSH1 0x24 PUSH1 0x0 REVERT JUMPDEST PUSH1 0x0 PUSH2 0xFCF DUP3 PUSH2 0xCF5 JUMP JUMPDEST SWAP2 POP PUSH2 0xFDA DUP4 PUSH2 0xCF5 JUMP JUMPDEST SWAP3 POP DUP3 PUSH2 0xFEA JUMPI PUSH2 0xFE9 PUSH2 0xF66 JUMP JUMPDEST JUMPDEST DUP3 DUP3 DIV SWAP1 POP SWAP3 SWAP2 POP POP JUMP JUMPDEST PUSH1 0x0 DUP2 PUSH1 0x60 SHL SWAP1 POP SWAP2 SWAP1 POP JUMP JUMPDEST PUSH1 0x0 PUSH2 0x100D DUP3 PUSH2 0xFF5 JUMP JUMPDEST SWAP1 POP SWAP2 SWAP1 POP JUMP JUMPDEST PUSH1 0x0 PUSH2 0x101F DUP3 PUSH2 0x1002 JUMP JUMPDEST SWAP1 POP SWAP2 SWAP1 POP JUMP JUMPDEST PUSH2 0x1037 PUSH2 0x1032 DUP3 PUSH2 0xE55 JUMP JUMPDEST PUSH2 0x1014 JUMP JUMPDEST DUP3 MSTORE POP POP JUMP JUMPDEST PUSH1 0x0 DUP2 SWAP1 POP SWAP2 SWAP1 POP JUMP JUMPDEST PUSH2 0x1058 PUSH2 0x1053 DUP3 PUSH2 0xDC3 JUMP JUMPDEST PUSH2 0x103D JUMP JUMPDEST DUP3 MSTORE POP POP JUMP JUMPDEST PUSH1 0x0 DUP2 SWAP1 POP SWAP2 SWAP1 POP JUMP JUMPDEST PUSH2 0x1079 PUSH2 0x1074 DUP3 PUSH2 0xCF5 JUMP JUMPDEST PUSH2 0x105E JUMP JUMPDEST DUP3 MSTORE POP POP JUMP JUMPDEST PUSH1 0x0 PUSH2 0x108B DUP3 DUP8 PUSH2 0x1026 JUMP JUMPDEST PUSH1 0x14 DUP3 ADD SWAP2 POP PUSH2 0x109B DUP3 DUP7 PUSH2 0x1047 JUMP JUMPDEST PUSH1 0x20 DUP3 ADD SWAP2 POP PUSH2 0x10AB DUP3 DUP6 PUSH2 0x1068 JUMP JUMPDEST PUSH1 0x20 DUP3 ADD SWAP2 POP PUSH2 0x10BB DUP3 DUP5 PUSH2 0x1068 JUMP JUMPDEST PUSH1 0x20 DUP3 ADD SWAP2 POP DUP2 SWAP1 POP SWAP6 SWAP5 POP POP POP POP POP JUMP JUMPDEST PUSH1 0x0 DUP3 DUP3 MSTORE PUSH1 0x20 DUP3 ADD SWAP1 POP SWAP3 SWAP2 POP POP JUMP JUMPDEST PUSH32 0x4861736820646F65736E2774206D65657420646966666963756C747900000000 PUSH1 0x0 DUP3 ADD MSTORE POP JUMP JUMPDEST PUSH1 0x0 PUSH2 0x1114 PUSH1 0x1C DUP4 PUSH2 0x10CD JUMP JUMPDEST SWAP2 POP PUSH2 0x111F DUP3 PUSH2 0x10DE JUMP JUMPDEST PUSH1 0x20 DUP3 ADD SWAP1 POP SWAP2 SWAP1 POP JUMP JUMPDEST PUSH1 0x0 PUSH1 0x20 DUP3 ADD SWAP1 POP DUP2 DUP2 SUB PUSH1 0x0 DUP4 ADD MSTORE PUSH2 0x1143 DUP2 PUSH2 0x1107 JUMP JUMPDEST SWAP1 POP SWAP2 SWAP1 POP JUMP JUMPDEST PUSH1 0x0 PUSH2 0x1155 DUP3 PUSH2 0xCF5 JUMP JUMPDEST SWAP2 POP PUSH2 0x1160 DUP4 PUSH2 0xCF5 JUMP JUMPDEST SWAP3 POP DUP3 DUP3 SUB SWAP1 POP DUP2 DUP2 GT ISZERO PUSH2 0x1178 JUMPI PUSH2 0x1177 PUSH2 0xF95 JUMP JUMPDEST JUMPDEST SWAP3 SWAP2 POP POP JUMP JUMPDEST PUSH1 0x0 DUP2 MLOAD SWAP1 POP PUSH2 0x118D DUP2 PUSH2 0xECD JUMP JUMPDEST SWAP3 SWAP2 POP POP JUMP JUMPDEST PUSH1 0x0 PUSH1 0x20 DUP3 DUP5 SUB SLT ISZERO PUSH2 0x11A9 JUMPI PUSH2 0x11A8 PUSH2 0xDF7 JUMP JUMPDEST JUMPDEST PUSH1 0x0 PUSH2 0x11B7 DUP5 DUP3 DUP6 ADD PUSH2 0x117E JUMP JUMPDEST SWAP2 POP POP SWAP3 SWAP2 POP POP JUMP JUMPDEST PUSH1 0x0 PUSH1 0x40 DUP3 ADD SWAP1 POP PUSH2 0x11D5 PUSH1 0x0 DUP4 ADD DUP6 PUSH2 0xE67 JUMP JUMPDEST PUSH2 0x11E2 PUSH1 0x20 DUP4 ADD DUP5 PUSH2 0xCFF JUMP JUMPDEST SWAP4 SWAP3 POP POP POP JUMP JUMPDEST PUSH1 0x0 PUSH2 0x11F4 DUP3 PUSH2 0xCF5 JUMP JUMPDEST SWAP2 POP PUSH32 0xFFFFFFFFFFFFFFFFFFFFFFFFFFFFFFFFFFFFFFFFFFFFFFFFFFFFFFFFFFFFFFFF DUP3 SUB PUSH2 0x1226 JUMPI PUSH2 0x1225 PUSH2 0xF95 JUMP JUMPDEST JUMPDEST PUSH1 0x1 DUP3 ADD SWAP1 POP SWAP2 SWAP1 POP JUMP JUMPDEST PUSH1 0x0 PUSH2 0x123C DUP3 PUSH2 0xCF5 JUMP JUMPDEST SWAP2 POP PUSH2 0x1247 DUP4 PUSH2 0xCF5 JUMP JUMPDEST SWAP3 POP DUP3 PUSH2 0x1257 JUMPI PUSH2 0x1256 PUSH2 0xF66 JUMP JUMPDEST JUMPDEST DUP3 DUP3 MOD SWAP1 POP SWAP3 SWAP2 POP POP JUMP JUMPDEST PUSH1 0x0 PUSH1 0x80 DUP3 ADD SWAP1 POP PUSH2 0x1277 PUSH1 0x0 DUP4 ADD DUP8 PUSH2 0xCFF JUMP JUMPDEST PUSH2 0x1284 PUSH1 0x20 DUP4 ADD DUP7 PUSH2 0xCFF JUMP JUMPDEST PUSH2 0x1291 PUSH1 0x40 DUP4 ADD DUP6 PUSH2 0xCFF JUMP JUMPDEST PUSH2 0x129E PUSH1 0x60 DUP4 ADD DUP5 PUSH2 0xE67 JUMP JUMPDEST SWAP6 SWAP5 POP POP POP POP POP JUMP JUMPDEST PUSH1 0x0 DUP2 MLOAD SWAP1 POP PUSH2 0x12B6 DUP2 PUSH2 0xDFC JUMP JUMPDEST SWAP3 SWAP2 POP POP JUMP JUMPDEST PUSH1 0x0 PUSH1 0x20 DUP3 DUP5 SUB SLT ISZERO PUSH2 0x12D2 JUMPI PUSH2 0x12D1 PUSH2 0xDF7 JUMP JUMPDEST JUMPDEST PUSH1 0x0 PUSH2 0x12E0 DUP5 DUP3 DUP6 ADD PUSH2 0x12A7 JUMP JUMPDEST SWAP2 POP POP SWAP3 SWAP2 POP POP JUMP JUMPDEST PUSH1 0x0 PUSH2 0x12F4 DUP3 PUSH2 0xCF5 JUMP JUMPDEST SWAP2 POP PUSH2 0x12FF DUP4 PUSH2 0xCF5 JUMP JUMPDEST SWAP3 POP DUP3 DUP3 MUL PUSH2 0x130D DUP2 PUSH2 0xCF5 JUMP JUMPDEST SWAP2 POP DUP3 DUP3 DIV DUP5 EQ DUP4 ISZERO OR PUSH2 0x1324 JUMPI PUSH2 0x1323 PUSH2 0xF95 JUMP JUMPDEST JUMPDEST POP SWAP3 SWAP2 POP POP JUMP JUMPDEST PUSH1 0x0 PUSH2 0x1336 DUP3 PUSH2 0xCF5 JUMP JUMPDEST SWAP2 POP PUSH2 0x1341 DUP4 PUSH2 0xCF5 JUMP JUMPDEST SWAP3 POP DUP3 DUP3 ADD SWAP1 POP DUP1 DUP3 GT ISZERO PUSH2 0x1359 JUMPI PUSH2 0x1358 PUSH2 0xF95 JUMP JUMPDEST JUMPDEST SWAP3 SWAP2 POP POP JUMP INVALID LOG2 PUSH5 0x6970667358 0x22 SLT KECCAK256 0xA7 0xBB DUP1 PUSH16 0xF0E5744BFD77DDFF754504FEC175F694 PUSH6 0xDB4159D844BA 0xD3 0xAB ADDMOD RETURN DUP12 PUSH5 0x736F6C6343 STOP ADDMOD EQ STOP CALLER "
        },
        "methodIdentifiers": {
          "DIFFICULTY_ADJUSTMENT_BLOCKS()": "fcd4d279",
          "HALVING_INTERVAL()": "5fd9491d",
          "INITIAL_REWARD()": "36bcf7d6",
          "TARGET_BLOCK_TIME()": "474c9ea2",
          "adjustmentStartTimestamp()": "00d4d2a0",
          "baseDifficulty()": "27f8dfa1",
          "blockHeight()": "f44ff712",
          "bohriumToken()": "17ab667f",
          "currentReward()": "07621eca",
          "getMinerDifficulty(address)": "fdd0ce91",
          "lastBlockHash()": "5c0ecfad",
          "lastBlockTimestamp()": "85e63fc6",
          "lastHalvingTimestamp()": "391e0d09",
          "mintForTesting(address,uint256)": "e1520947",
          "owner()": "8da5cb5b",
          "renounceOwnership()": "715018a6",
          "setCurrentDifficulty(uint256)": "a8e2f935",
          "stakedBohrToken()": "93621d15",
          "submitBlock(uint256)": "73e9710f",
          "transferOwnership(address)": "f2fde38b"
        }
      }
    }
  }
}