{
  "_format": "hh-sol-artifact-1",
  "contractName": "BohriumMining",
  "sourceName": "contracts/BohriumMining.sol",
  "abi": [
    {
      "inputs": [
        {
          "internalType": "address",
          "name": "_bohriumTokenAddress",
          "type": "address"
        },
        {
          "internalType": "address",
          "name": "_stakedBohrTokenAddress",
          "type": "address"
        }
      ],
      "stateMutability": "nonpayable",
      "type": "constructor"
    },
    {
      "inputs": [
        {
          "internalType": "address",
          "name": "owner",
          "type": "address"
        }
      ],
      "name": "OwnableInvalidOwner",
      "type": "error"
    },
    {
      "inputs": [
        {
          "internalType": "address",
          "name": "account",
          "type": "address"
        }
      ],
      "name": "OwnableUnauthorizedAccount",
      "type": "error"
    },
    {
      "anonymous": false,
      "inputs": [
        {
          "indexed": true,
          "internalType": "address",
          "name": "miner",
          "type": "address"
        },
        {
          "indexed": true,
          "internalType": "uint256",
          "name": "blockHeight",
          "type": "uint256"
        },
        {
          "indexed": false,
          "internalType": "uint256",
          "name": "nonce",
          "type": "uint256"
        },
        {
          "indexed": false,
          "internalType": "uint256",
          "name": "reward",
          "type": "uint256"
        },
        {
          "indexed": false,
          "internalType": "uint256",
          "name": "timeTaken",
          "type": "uint256"
        },
        {
          "indexed": false,
          "internalType": "address",
          "name": "rewardRecipient",
          "type": "address"
        }
      ],
      "name": "BlockMined",
      "type": "event"
    },
    {
      "anonymous": false,
      "inputs": [
        {
          "indexed": false,
          "internalType": "uint256",
          "name": "newDifficulty",
          "type": "uint256"
        }
      ],
      "name": "DifficultyAdjusted",
      "type": "event"
    },
    {
      "anonymous": false,
      "inputs": [
        {
          "indexed": true,
          "internalType": "address",
          "name": "previousOwner",
          "type": "address"
        },
        {
          "indexed": true,
          "internalType": "address",
          "name": "newOwner",
          "type": "address"
        }
      ],
      "name": "OwnershipTransferred",
      "type": "event"
    },
    {
      "anonymous": false,
      "inputs": [
        {
          "indexed": false,
          "internalType": "uint256",
          "name": "newReward",
          "type": "uint256"
        }
      ],
      "name": "RewardHalved",
      "type": "event"
    },
    {
      "inputs": [],
      "name": "DIFFICULTY_ADJUSTMENT_BLOCKS",
      "outputs": [
        {
          "internalType": "uint256",
          "name": "",
          "type": "uint256"
        }
      ],
      "stateMutability": "view",
      "type": "function"
    },
    {
      "inputs": [],
      "name": "HALVING_INTERVAL",
      "outputs": [
        {
          "internalType": "uint256",
          "name": "",
          "type": "uint256"
        }
      ],
      "stateMutability": "view",
      "type": "function"
    },
    {
      "inputs": [],
      "name": "INITIAL_REWARD",
      "outputs": [
        {
          "internalType": "uint256",
          "name": "",
          "type": "uint256"
        }
      ],
      "stateMutability": "view",
      "type": "function"
    },
    {
      "inputs": [],
      "name": "TARGET_BLOCK_TIME",
      "outputs": [
        {
          "internalType": "uint256",
          "name": "",
          "type": "uint256"
        }
      ],
      "stateMutability": "view",
      "type": "function"
    },
    {
      "inputs": [],
      "name": "adjustmentStartTimestamp",
      "outputs": [
        {
          "internalType": "uint256",
          "name": "",
          "type": "uint256"
        }
      ],
      "stateMutability": "view",
      "type": "function"
    },
    {
      "inputs": [],
      "name": "baseDifficulty",
      "outputs": [
        {
          "internalType": "uint256",
          "name": "",
          "type": "uint256"
        }
      ],
      "stateMutability": "view",
      "type": "function"
    },
    {
      "inputs": [],
      "name": "blockHeight",
      "outputs": [
        {
          "internalType": "uint256",
          "name": "",
          "type": "uint256"
        }
      ],
      "stateMutability": "view",
      "type": "function"
    },
    {
      "inputs": [],
      "name": "bohriumToken",
      "outputs": [
        {
          "internalType": "contract IBohriumToken",
          "name": "",
          "type": "address"
        }
      ],
      "stateMutability": "view",
      "type": "function"
    },
    {
      "inputs": [],
      "name": "currentReward",
      "outputs": [
        {
          "internalType": "uint256",
          "name": "",
          "type": "uint256"
        }
      ],
      "stateMutability": "view",
      "type": "function"
    },
    {
      "inputs": [
        {
          "internalType": "address",
          "name": "miner",
          "type": "address"
        }
      ],
      "name": "getMinerDifficulty",
      "outputs": [
        {
          "internalType": "uint256",
          "name": "",
          "type": "uint256"
        }
      ],
      "stateMutability": "view",
      "type": "function"
    },
    {
      "inputs": [],
      "name": "lastBlockHash",
      "outputs": [
        {
          "internalType": "bytes32",
          "name": "",
          "type": "bytes32"
        }
      ],
      "stateMutability": "view",
      "type": "function"
    },
    {
      "inputs": [],
      "name": "lastBlockTimestamp",
      "outputs": [
        {
          "internalType": "uint256",
          "name": "",
          "type": "uint256"
        }
      ],
      "stateMutability": "view",
      "type": "function"
    },
    {
      "inputs": [],
      "name": "lastHalvingTimestamp",
      "outputs": [
        {
          "internalType": "uint256",
          "name": "",
          "type": "uint256"
        }
      ],
      "stateMutability": "view",
      "type": "function"
    },
    {
      "inputs": [
        {
          "internalType": "address",
          "name": "to",
          "type": "address"
        },
        {
          "internalType": "uint256",
          "name": "amount",
          "type": "uint256"
        }
      ],
      "name": "mintForTesting",
      "outputs": [],
      "stateMutability": "nonpayable",
      "type": "function"
    },
    {
      "inputs": [],
      "name": "owner",
      "outputs": [
        {
          "internalType": "address",
          "name": "",
          "type": "address"
        }
      ],
      "stateMutability": "view",
      "type": "function"
    },
    {
      "inputs": [],
      "name": "renounceOwnership",
      "outputs": [],
      "stateMutability": "nonpayable",
      "type": "function"
    },
    {
      "inputs": [
        {
          "internalType": "uint256",
          "name": "_difficulty",
          "type": "uint256"
        }
      ],
      "name": "setCurrentDifficulty",
      "outputs": [],
      "stateMutability": "nonpayable",
      "type": "function"
    },
    {
      "inputs": [],
      "name": "stakedBohrToken",
      "outputs": [
        {
          "internalType": "contract IStakedBohrToken",
          "name": "",
          "type": "address"
        }
      ],
      "stateMutability": "view",
      "type": "function"
    },
    {
      "inputs": [
        {
          "internalType": "uint256",
          "name": "nonce",
          "type": "uint256"
        }
      ],
      "name": "submitBlock",
      "outputs": [],
      "stateMutability": "nonpayable",
      "type": "function"
    },
    {
      "inputs": [
        {
          "internalType": "address",
          "name": "newOwner",
          "type": "address"
        }
      ],
      "name": "transferOwnership",
      "outputs": [],
      "stateMutability": "nonpayable",
      "type": "function"
    }
  ],
  "bytecode": "0x60c06040523480156200001157600080fd5b50604051620016ec380380620016ec8339818101604052810190620000379190620002a0565b33600073ffffffffffffffffffffffffffffffffffffffff168173ffffffffffffffffffffffffffffffffffffffff1603620000ad5760006040517f1e4fbdf7000000000000000000000000000000000000000000000000000000008152600401620000a49190620002f8565b60405180910390fd5b620000be816200017260201b60201c565b508173ffffffffffffffffffffffffffffffffffffffff1660808173ffffffffffffffffffffffffffffffffffffffff16815250508073ffffffffffffffffffffffffffffffffffffffff1660a08173ffffffffffffffffffffffffffffffffffffffff1681525050426002819055504260038190555060107fffffffffffffffffffffffffffffffffffffffffffffffffffffffffffffffff901c6001819055506000801b600581905550505062000315565b60008060009054906101000a900473ffffffffffffffffffffffffffffffffffffffff169050816000806101000a81548173ffffffffffffffffffffffffffffffffffffffff021916908373ffffffffffffffffffffffffffffffffffffffff1602179055508173ffffffffffffffffffffffffffffffffffffffff168173ffffffffffffffffffffffffffffffffffffffff167f8be0079c531659141344cd1fd0a4f28419497f9722a3daafe3b4186f6b6457e060405160405180910390a35050565b600080fd5b600073ffffffffffffffffffffffffffffffffffffffff82169050919050565b600062000268826200023b565b9050919050565b6200027a816200025b565b81146200028657600080fd5b50565b6000815190506200029a816200026f565b92915050565b60008060408385031215620002ba57620002b962000236565b5b6000620002ca8582860162000289565b9250506020620002dd8582860162000289565b9150509250929050565b620002f2816200025b565b82525050565b60006020820190506200030f6000830184620002e7565b92915050565b60805160a05161139562000357600039600081816104d80152818161075101526108dd0152600081816103ce015281816105b801526107b801526113956000f3fe608060405234801561001057600080fd5b506004361061012b5760003560e01c806373e9710f116100ad578063e152094711610071578063e1520947146102da578063f2fde38b146102f6578063f44ff71214610312578063fcd4d27914610330578063fdd0ce911461034e5761012b565b806373e9710f1461024857806385e63fc6146102645780638da5cb5b1461028257806393621d15146102a0578063a8e2f935146102be5761012b565b8063391e0d09116100f4578063391e0d09146101c6578063474c9ea2146101e45780635c0ecfad146102025780635fd9491d14610220578063715018a61461023e5761012b565b8062d4d2a01461013057806307621eca1461014e57806317ab667f1461016c57806327f8dfa11461018a57806336bcf7d6146101a8575b600080fd5b61013861037e565b6040516101459190610d0e565b60405180910390f35b610156610384565b6040516101639190610d0e565b60405180910390f35b6101746103cc565b6040516101819190610da8565b60405180910390f35b6101926103f0565b60405161019f9190610d0e565b60405180910390f35b6101b06103f6565b6040516101bd9190610d0e565b60405180910390f35b6101ce610402565b6040516101db9190610d0e565b60405180910390f35b6101ec610408565b6040516101f99190610d0e565b60405180910390f35b61020a61040d565b6040516102179190610ddc565b60405180910390f35b610228610413565b6040516102359190610d0e565b60405180910390f35b61024661041a565b005b610262600480360381019061025d9190610e28565b61042e565b005b61026c610720565b6040516102799190610d0e565b60405180910390f35b61028a610726565b6040516102979190610e76565b60405180910390f35b6102a861074f565b6040516102b59190610eb2565b60405180910390f35b6102d860048036038101906102d39190610e28565b610773565b005b6102f460048036038101906102ef9190610ef9565b6107b6565b005b610310600480360381019061030b9190610f39565b610847565b005b61031a6108cd565b6040516103279190610d0e565b60405180910390f35b6103386108d3565b6040516103459190610d0e565b60405180910390f35b61036860048036038101906103639190610f39565b6108d8565b6040516103759190610d0e565b60405180910390f35b60065481565b600080620402906004546103989190610fc4565b9050600081678ac7230489e80000901c9050655af3107a400081116103c357655af3107a40006103c5565b805b9250505090565b7f000000000000000000000000000000000000000000000000000000000000000081565b60015481565b678ac7230489e8000081565b60025481565b607881565b60055481565b6204029081565b610422610a6a565b61042c6000610af1565b565b6000610439336108d8565b90506000336005548385604051602001610456949392919061107f565b604051602081830303815290604052805190602001209050818160001c11156104b4576040517f08c379a00000000000000000000000000000000000000000000000000000000081526004016104ab9061112a565b60405180910390fd5b6000600354426104c4919061114a565b90506104cf81610bb5565b600033905060007f000000000000000000000000000000000000000000000000000000000000000073ffffffffffffffffffffffffffffffffffffffff16636bf45d90336040518263ffffffff1660e01b815260040161052f9190610e76565b602060405180830381865afa15801561054c573d6000803e3d6000fd5b505050506040513d601f19601f820116820180604052508101906105709190611193565b9050600073ffffffffffffffffffffffffffffffffffffffff168173ffffffffffffffffffffffffffffffffffffffff16146105aa578091505b60006105b4610384565b90507f000000000000000000000000000000000000000000000000000000000000000073ffffffffffffffffffffffffffffffffffffffff166340c10f1984836040518363ffffffff1660e01b81526004016106119291906111c0565b600060405180830381600087803b15801561062b57600080fd5b505af115801561063f573d6000803e3d6000fd5b50505050846005819055504260038190555060046000815480929190610664906111e9565b919050555060006204029060045461067c9190611231565b036106c0577ff92b4d3a8d8ba77170dd5cf6b65260191092093f924263a88c3c60dd8495f0916106aa610384565b6040516106b79190610d0e565b60405180910390a15b6004543373ffffffffffffffffffffffffffffffffffffffff167f20349893b1eedc154b028f191c7ee4d0d67da83d71803da1649defe35ddc87ab8984888860405161070f9493929190611262565b60405180910390a350505050505050565b60035481565b60008060009054906101000a900473ffffffffffffffffffffffffffffffffffffffff16905090565b7f000000000000000000000000000000000000000000000000000000000000000081565b806001819055507f42ebc15644fe1ca39e719c989e249095a01e7bf6c4e2ea33889a7e33a7664caa6001546040516107ab9190610d0e565b60405180910390a150565b7f000000000000000000000000000000000000000000000000000000000000000073ffffffffffffffffffffffffffffffffffffffff166340c10f1983836040518363ffffffff1660e01b81526004016108119291906111c0565b600060405180830381600087803b15801561082b57600080fd5b505af115801561083f573d6000803e3d6000fd5b505050505050565b61084f610a6a565b600073ffffffffffffffffffffffffffffffffffffffff168173ffffffffffffffffffffffffffffffffffffffff16036108c15760006040517f1e4fbdf70000000000000000000000000000000000000000000000000000000081526004016108b89190610e76565b60405180910390fd5b6108ca81610af1565b50565b60045481565b600581565b6000807f000000000000000000000000000000000000000000000000000000000000000073ffffffffffffffffffffffffffffffffffffffff1663e45aa098846040518263ffffffff1660e01b81526004016109349190610e76565b602060405180830381865afa158015610951573d6000803e3d6000fd5b505050506040513d601f19601f8201168201806040525081019061097591906112bc565b90506000600a610983610384565b61098d91906112e9565b905060006001549050818310156109af57600281029050809350505050610a65565b818310610a5e57600082036109c957809350505050610a65565b6000826064856109d991906112e9565b6109e39190610fc4565b9050606481116109f95781945050505050610a65565b600060646005606484610a0c919061114a565b610a1691906112e9565b610a209190610fc4565b905060328111610a305780610a33565b60325b90506064816064610a44919061114a565b84610a4f91906112e9565b610a599190610fc4565b925050505b8093505050505b919050565b610a72610ced565b73ffffffffffffffffffffffffffffffffffffffff16610a90610726565b73ffffffffffffffffffffffffffffffffffffffff1614610aef57610ab3610ced565b6040517f118cdaa7000000000000000000000000000000000000000000000000000000008152600401610ae69190610e76565b60405180910390fd5b565b60008060009054906101000a900473ffffffffffffffffffffffffffffffffffffffff169050816000806101000a81548173ffffffffffffffffffffffffffffffffffffffff021916908373ffffffffffffffffffffffffffffffffffffffff1602179055508173ffffffffffffffffffffffffffffffffffffffff168173ffffffffffffffffffffffffffffffffffffffff167f8be0079c531659141344cd1fd0a4f28419497f9722a3daafe3b4186f6b6457e060405160405180910390a35050565b60006005600454610bc69190611231565b03610bd357426006819055505b42600381905550600060056001600454610bed919061132b565b610bf79190611231565b03610cea5760046078610c0a9190610fc4565b8110610c3e5760046078610c1e91906112e9565b8111610c2a5780610c39565b60046078610c3891906112e9565b5b610c4d565b60046078610c4c9190610fc4565b5b90506000607882600154610c6191906112e9565b610c6b9190610fc4565b9050600060207fffffffffffffffffffffffffffffffffffffffffffffffffffffffffffffffff901c9050808210610ca35781610ca5565b805b9150816001819055507f42ebc15644fe1ca39e719c989e249095a01e7bf6c4e2ea33889a7e33a7664caa600154604051610cdf9190610d0e565b60405180910390a150505b50565b600033905090565b6000819050919050565b610d0881610cf5565b82525050565b6000602082019050610d236000830184610cff565b92915050565b600073ffffffffffffffffffffffffffffffffffffffff82169050919050565b6000819050919050565b6000610d6e610d69610d6484610d29565b610d49565b610d29565b9050919050565b6000610d8082610d53565b9050919050565b6000610d9282610d75565b9050919050565b610da281610d87565b82525050565b6000602082019050610dbd6000830184610d99565b92915050565b6000819050919050565b610dd681610dc3565b82525050565b6000602082019050610df16000830184610dcd565b92915050565b600080fd5b610e0581610cf5565b8114610e1057600080fd5b50565b600081359050610e2281610dfc565b92915050565b600060208284031215610e3e57610e3d610df7565b5b6000610e4c84828501610e13565b91505092915050565b6000610e6082610d29565b9050919050565b610e7081610e55565b82525050565b6000602082019050610e8b6000830184610e67565b92915050565b6000610e9c82610d75565b9050919050565b610eac81610e91565b82525050565b6000602082019050610ec76000830184610ea3565b92915050565b610ed681610e55565b8114610ee157600080fd5b50565b600081359050610ef381610ecd565b92915050565b60008060408385031215610f1057610f0f610df7565b5b6000610f1e85828601610ee4565b9250506020610f2f85828601610e13565b9150509250929050565b600060208284031215610f4f57610f4e610df7565b5b6000610f5d84828501610ee4565b91505092915050565b7f4e487b7100000000000000000000000000000000000000000000000000000000600052601260045260246000fd5b7f4e487b7100000000000000000000000000000000000000000000000000000000600052601160045260246000fd5b6000610fcf82610cf5565b9150610fda83610cf5565b925082610fea57610fe9610f66565b5b828204905092915050565b60008160601b9050919050565b600061100d82610ff5565b9050919050565b600061101f82611002565b9050919050565b61103761103282610e55565b611014565b82525050565b6000819050919050565b61105861105382610dc3565b61103d565b82525050565b6000819050919050565b61107961107482610cf5565b61105e565b82525050565b600061108b8287611026565b60148201915061109b8286611047565b6020820191506110ab8285611068565b6020820191506110bb8284611068565b60208201915081905095945050505050565b600082825260208201905092915050565b7f4861736820646f65736e2774206d65657420646966666963756c747900000000600082015250565b6000611114601c836110cd565b915061111f826110de565b602082019050919050565b6000602082019050818103600083015261114381611107565b9050919050565b600061115582610cf5565b915061116083610cf5565b925082820390508181111561117857611177610f95565b5b92915050565b60008151905061118d81610ecd565b92915050565b6000602082840312156111a9576111a8610df7565b5b60006111b78482850161117e565b91505092915050565b60006040820190506111d56000830185610e67565b6111e26020830184610cff565b9392505050565b60006111f482610cf5565b91507fffffffffffffffffffffffffffffffffffffffffffffffffffffffffffffffff820361122657611225610f95565b5b600182019050919050565b600061123c82610cf5565b915061124783610cf5565b92508261125757611256610f66565b5b828206905092915050565b60006080820190506112776000830187610cff565b6112846020830186610cff565b6112916040830185610cff565b61129e6060830184610e67565b95945050505050565b6000815190506112b681610dfc565b92915050565b6000602082840312156112d2576112d1610df7565b5b60006112e0848285016112a7565b91505092915050565b60006112f482610cf5565b91506112ff83610cf5565b925082820261130d81610cf5565b9150828204841483151761132457611323610f95565b5b5092915050565b600061133682610cf5565b915061134183610cf5565b925082820190508082111561135957611358610f95565b5b9291505056fea2646970667358221220a7bb806ff0e5744bfd77ddff754504fec175f69465db4159d844bad3ab08f38b64736f6c63430008140033",
  "linkReferences": {},
  "deployedLinkReferences": {}
}