{
  "_format": "hh-sol-artifact-1",
  "contractName": "BohriumMining",
  "sourceName": "contracts/BohriumMining.sol",
  "abi": [
    {
      "inputs": [
        {
          "internalType": "address",
          "name": "_bohriumTokenAddress",
          "type": "address"
        }
      ],
      "stateMutability": "nonpayable",
      "type": "constructor"
    },
    {
      "anonymous": false,
      "inputs": [
        {
          "indexed": true,
          "internalType": "address",
          "name": "miner",
          "type": "address"
        },
        {
          "indexed": false,
          "internalType": "uint256",
          "name": "nonce",
          "type": "uint256"
        },
        {
          "indexed": false,
          "internalType": "uint256",
          "name": "hashValue",
          "type": "uint256"
        }
      ],
      "name": "NewBestHash",
      "type": "event"
    },
    {
      "anonymous": false,
      "inputs": [
        {
          "indexed": false,
          "internalType": "uint256",
          "name": "newReward",
          "type": "uint256"
        }
      ],
      "name": "RewardHalved",
      "type": "event"
    },
    {
      "anonymous": false,
      "inputs": [
        {
          "indexed": true,
          "internalType": "uint256",
          "name": "roundId",
          "type": "uint256"
        },
        {
          "indexed": false,
          "internalType": "address",
          "name": "winner",
          "type": "address"
        },
        {
          "indexed": false,
          "internalType": "uint256",
          "name": "reward",
          "type": "uint256"
        }
      ],
      "name": "RoundEnded",
      "type": "event"
    },
    {
      "inputs": [],
      "name": "bestHashValue",
      "outputs": [
        {
          "internalType": "uint256",
          "name": "",
          "type": "uint256"
        }
      ],
      "stateMutability": "view",
      "type": "function"
    },
    {
      "inputs": [],
      "name": "bestMiner",
      "outputs": [
        {
          "internalType": "address",
          "name": "",
          "type": "address"
        }
      ],
      "stateMutability": "view",
      "type": "function"
    },
    {
      "inputs": [],
      "name": "bohriumToken",
      "outputs": [
        {
          "internalType": "contract IBohriumToken",
          "name": "",
          "type": "address"
        }
      ],
      "stateMutability": "view",
      "type": "function"
    },
    {
      "inputs": [],
      "name": "currentReward",
      "outputs": [
        {
          "internalType": "uint256",
          "name": "",
          "type": "uint256"
        }
      ],
      "stateMutability": "view",
      "type": "function"
    },
    {
      "inputs": [],
      "name": "endRound",
      "outputs": [],
      "stateMutability": "nonpayable",
      "type": "function"
    },
    {
      "inputs": [],
      "name": "halvingInterval",
      "outputs": [
        {
          "internalType": "uint256",
          "name": "",
          "type": "uint256"
        }
      ],
      "stateMutability": "view",
      "type": "function"
    },
    {
      "inputs": [],
      "name": "initialReward",
      "outputs": [
        {
          "internalType": "uint256",
          "name": "",
          "type": "uint256"
        }
      ],
      "stateMutability": "view",
      "type": "function"
    },
    {
      "inputs": [],
      "name": "lastHalvingTimestamp",
      "outputs": [
        {
          "internalType": "uint256",
          "name": "",
          "type": "uint256"
        }
      ],
      "stateMutability": "view",
      "type": "function"
    },
    {
      "inputs": [],
      "name": "lastRoundEnd",
      "outputs": [
        {
          "internalType": "uint256",
          "name": "",
          "type": "uint256"
        }
      ],
      "stateMutability": "view",
      "type": "function"
    },
    {
      "inputs": [],
      "name": "roundDuration",
      "outputs": [
        {
          "internalType": "uint256",
          "name": "",
          "type": "uint256"
        }
      ],
      "stateMutability": "view",
      "type": "function"
    },
    {
      "inputs": [],
      "name": "roundId",
      "outputs": [
        {
          "internalType": "uint256",
          "name": "",
          "type": "uint256"
        }
      ],
      "stateMutability": "view",
      "type": "function"
    },
    {
      "inputs": [
        {
          "internalType": "uint256",
          "name": "nonce",
          "type": "uint256"
        }
      ],
      "name": "submitHash",
      "outputs": [],
      "stateMutability": "nonpayable",
      "type": "function"
    }
  ],
  "bytecode": "0x6080604052678ac7230489e800006001556301e133806002556102586004553480156200002b57600080fd5b5060405162000d8838038062000d8883398181016040528101906200005191906200011f565b806000806101000a81548173ffffffffffffffffffffffffffffffffffffffff021916908373ffffffffffffffffffffffffffffffffffffffff16021790555060045442620000a191906200018a565b6005819055504260038190555050620001c5565b600080fd5b600073ffffffffffffffffffffffffffffffffffffffff82169050919050565b6000620000e782620000ba565b9050919050565b620000f981620000da565b81146200010557600080fd5b50565b6000815190506200011981620000ee565b92915050565b600060208284031215620001385762000137620000b5565b5b6000620001488482850162000108565b91505092915050565b6000819050919050565b7f4e487b7100000000000000000000000000000000000000000000000000000000600052601160045260246000fd5b6000620001978262000151565b9150620001a48362000151565b9250828201905080821115620001bf57620001be6200015b565b5b92915050565b610bb380620001d56000396000f3fe608060405234801561001057600080fd5b50600436106100b45760003560e01c80637270531c116100715780637270531c1461016b578063749aa2d9146101895780638cd221c914610193578063abee967c146101b1578063acf4e412146101cf578063f7cb789a146101ed576100b4565b806307621eca146100b957806317ab667f146100d7578063391e0d09146100f55780636a47aa06146101135780636e7c3d5514610131578063704cda421461014d575b600080fd5b6100c161020b565b6040516100ce919061070e565b60405180910390f35b6100df61025d565b6040516100ec91906107a8565b60405180910390f35b6100fd610281565b60405161010a919061070e565b60405180910390f35b61011b610287565b604051610128919061070e565b60405180910390f35b61014b600480360381019061014691906107f4565b61028d565b005b61015561040b565b604051610162919061070e565b60405180910390f35b610173610411565b6040516101809190610842565b60405180910390f35b610191610437565b005b61019b6106dd565b6040516101a8919061070e565b60405180910390f35b6101b96106e3565b6040516101c6919061070e565b60405180910390f35b6101d76106e9565b6040516101e4919061070e565b60405180910390f35b6101f56106ef565b604051610202919061070e565b60405180910390f35b6000806003544261021c919061088c565b905060006002548261022e91906108ef565b9050600081600154901c9050655af3107a4000811161025357655af3107a4000610255565b805b935050505090565b60008054906101000a900473ffffffffffffffffffffffffffffffffffffffff1681565b60035481565b60025481565b60055442106102d1576040517f08c379a00000000000000000000000000000000000000000000000000000000081526004016102c89061097d565b60405180910390fd5b600060065433836040516020016102ea93929190610a06565b60405160208183030381529060405280519060200120905060008160001c9050600073ffffffffffffffffffffffffffffffffffffffff16600760009054906101000a900473ffffffffffffffffffffffffffffffffffffffff1673ffffffffffffffffffffffffffffffffffffffff161480610368575060085481105b156104065733600760006101000a81548173ffffffffffffffffffffffffffffffffffffffff021916908373ffffffffffffffffffffffffffffffffffffffff160217905550806008819055503373ffffffffffffffffffffffffffffffffffffffff167f7aeb851cedcce13b7edbc79682c5cae287417c82025da2f9fd469a653bf4720084836040516103fd929190610a43565b60405180910390a25b505050565b60085481565b600760009054906101000a900473ffffffffffffffffffffffffffffffffffffffff1681565b60055442101561047c576040517f08c379a000000000000000000000000000000000000000000000000000000000815260040161047390610ab8565b60405180910390fd5b600061048661020b565b9050600073ffffffffffffffffffffffffffffffffffffffff16600760009054906101000a900473ffffffffffffffffffffffffffffffffffffffff1673ffffffffffffffffffffffffffffffffffffffff16146105ec5760008054906101000a900473ffffffffffffffffffffffffffffffffffffffff1673ffffffffffffffffffffffffffffffffffffffff166340c10f19600760009054906101000a900473ffffffffffffffffffffffffffffffffffffffff16836040518363ffffffff1660e01b815260040161055b929190610ad8565b600060405180830381600087803b15801561057557600080fd5b505af1158015610589573d6000803e3d6000fd5b505050506006547f131b90b0b17f70b8bf8a6ae2fe2b36c8f64bffde76602ce01ec0a7dc2e3ba57d600760009054906101000a900473ffffffffffffffffffffffffffffffffffffffff16836040516105e3929190610ad8565b60405180910390a25b6002546003546105fc9190610b01565b421061064557426003819055507ff92b4d3a8d8ba77170dd5cf6b65260191092093f924263a88c3c60dd8495f091600182901c60405161063c919061070e565b60405180910390a15b6000600760006101000a81548173ffffffffffffffffffffffffffffffffffffffff021916908373ffffffffffffffffffffffffffffffffffffffff1602179055507fffffffffffffffffffffffffffffffffffffffffffffffffffffffffffffffff600881905550600660008154809291906106c190610b35565b9190505550600454426106d49190610b01565b60058190555050565b60065481565b60015481565b60055481565b60045481565b6000819050919050565b610708816106f5565b82525050565b600060208201905061072360008301846106ff565b92915050565b600073ffffffffffffffffffffffffffffffffffffffff82169050919050565b6000819050919050565b600061076e61076961076484610729565b610749565b610729565b9050919050565b600061078082610753565b9050919050565b600061079282610775565b9050919050565b6107a281610787565b82525050565b60006020820190506107bd6000830184610799565b92915050565b600080fd5b6107d1816106f5565b81146107dc57600080fd5b50565b6000813590506107ee816107c8565b92915050565b60006020828403121561080a576108096107c3565b5b6000610818848285016107df565b91505092915050565b600061082c82610729565b9050919050565b61083c81610821565b82525050565b60006020820190506108576000830184610833565b92915050565b7f4e487b7100000000000000000000000000000000000000000000000000000000600052601160045260246000fd5b6000610897826106f5565b91506108a2836106f5565b92508282039050818111156108ba576108b961085d565b5b92915050565b7f4e487b7100000000000000000000000000000000000000000000000000000000600052601260045260246000fd5b60006108fa826106f5565b9150610905836106f5565b925082610915576109146108c0565b5b828204905092915050565b600082825260208201905092915050565b7f526f756e642068617320656e6465640000000000000000000000000000000000600082015250565b6000610967600f83610920565b915061097282610931565b602082019050919050565b600060208201905081810360008301526109968161095a565b9050919050565b6000819050919050565b6109b86109b3826106f5565b61099d565b82525050565b60008160601b9050919050565b60006109d6826109be565b9050919050565b60006109e8826109cb565b9050919050565b610a006109fb82610821565b6109dd565b82525050565b6000610a1282866109a7565b602082019150610a2282856109ef565b601482019150610a3282846109a7565b602082019150819050949350505050565b6000604082019050610a5860008301856106ff565b610a6560208301846106ff565b9392505050565b7f526f756e64206973207374696c6c206f6e676f696e6700000000000000000000600082015250565b6000610aa2601683610920565b9150610aad82610a6c565b602082019050919050565b60006020820190508181036000830152610ad181610a95565b9050919050565b6000604082019050610aed6000830185610833565b610afa60208301846106ff565b9392505050565b6000610b0c826106f5565b9150610b17836106f5565b9250828201905080821115610b2f57610b2e61085d565b5b92915050565b6000610b40826106f5565b91507fffffffffffffffffffffffffffffffffffffffffffffffffffffffffffffffff8203610b7257610b7161085d565b5b60018201905091905056fea2646970667358221220265f0d1728518b3f95d4614510500dc12c7c5838d00b100374bb6a33162777d464736f6c63430008140033",
  "linkReferences": {},
  "deployedLinkReferences": {}
}