{
  "_format": "hh-sol-artifact-1",
  "contractName": "StakedBohrToken",
  "sourceName": "contracts/StakedBohrToken.sol",
  "abi": [
    {
      "inputs": [
        {
          "internalType": "address",
          "name": "_bohrToken",
          "type": "address"
        }
      ],
      "stateMutability": "nonpayable",
      "type": "constructor"
    },
    {
      "inputs": [
        {
          "internalType": "address",
          "name": "spender",
          "type": "address"
        },
        {
          "internalType": "uint256",
          "name": "allowance",
          "type": "uint256"
        },
        {
          "internalType": "uint256",
          "name": "needed",
          "type": "uint256"
        }
      ],
      "name": "ERC20InsufficientAllowance",
      "type": "error"
    },
    {
      "inputs": [
        {
          "internalType": "address",
          "name": "sender",
          "type": "address"
        },
        {
          "internalType": "uint256",
          "name": "balance",
          "type": "uint256"
        },
        {
          "internalType": "uint256",
          "name": "needed",
          "type": "uint256"
        }
      ],
      "name": "ERC20InsufficientBalance",
      "type": "error"
    },
    {
      "inputs": [
        {
          "internalType": "address",
          "name": "approver",
          "type": "address"
        }
      ],
      "name": "ERC20InvalidApprover",
      "type": "error"
    },
    {
      "inputs": [
        {
          "internalType": "address",
          "name": "receiver",
          "type": "address"
        }
      ],
      "name": "ERC20InvalidReceiver",
      "type": "error"
    },
    {
      "inputs": [
        {
          "internalType": "address",
          "name": "sender",
          "type": "address"
        }
      ],
      "name": "ERC20InvalidSender",
      "type": "error"
    },
    {
      "inputs": [
        {
          "internalType": "address",
          "name": "spender",
          "type": "address"
        }
      ],
      "name": "ERC20InvalidSpender",
      "type": "error"
    },
    {
      "inputs": [
        {
          "internalType": "address",
          "name": "owner",
          "type": "address"
        }
      ],
      "name": "OwnableInvalidOwner",
      "type": "error"
    },
    {
      "inputs": [
        {
          "internalType": "address",
          "name": "account",
          "type": "address"
        }
      ],
      "name": "OwnableUnauthorizedAccount",
      "type": "error"
    },
    {
      "anonymous": false,
      "inputs": [
        {
          "indexed": true,
          "internalType": "address",
          "name": "owner",
          "type": "address"
        },
        {
          "indexed": true,
          "internalType": "address",
          "name": "spender",
          "type": "address"
        },
        {
          "indexed": false,
          "internalType": "uint256",
          "name": "value",
          "type": "uint256"
        }
      ],
      "name": "Approval",
      "type": "event"
    },
    {
      "anonymous": false,
      "inputs": [
        {
          "indexed": true,
          "internalType": "address",
          "name": "sessionWallet",
          "type": "address"
        },
        {
          "indexed": true,
          "internalType": "address",
          "name": "mainWallet",
          "type": "address"
        }
      ],
      "name": "DelegationRemoved",
      "type": "event"
    },
    {
      "anonymous": false,
      "inputs": [
        {
          "indexed": true,
          "internalType": "address",
          "name": "sessionWallet",
          "type": "address"
        },
        {
          "indexed": true,
          "internalType": "address",
          "name": "mainWallet",
          "type": "address"
        }
      ],
      "name": "DelegationSet",
      "type": "event"
    },
    {
      "anonymous": false,
      "inputs": [
        {
          "indexed": true,
          "internalType": "address",
          "name": "previousOwner",
          "type": "address"
        },
        {
          "indexed": true,
          "internalType": "address",
          "name": "newOwner",
          "type": "address"
        }
      ],
      "name": "OwnershipTransferred",
      "type": "event"
    },
    {
      "anonymous": false,
      "inputs": [
        {
          "indexed": true,
          "internalType": "address",
          "name": "from",
          "type": "address"
        },
        {
          "indexed": true,
          "internalType": "address",
          "name": "to",
          "type": "address"
        },
        {
          "indexed": false,
          "internalType": "uint256",
          "name": "value",
          "type": "uint256"
        }
      ],
      "name": "Transfer",
      "type": "event"
    },
    {
      "anonymous": false,
      "inputs": [
        {
          "indexed": true,
          "internalType": "address",
          "name": "user",
          "type": "address"
        },
        {
          "indexed": false,
          "internalType": "uint256",
          "name": "amount",
          "type": "uint256"
        }
      ],
      "name": "UnstakeCompleted",
      "type": "event"
    },
    {
      "anonymous": false,
      "inputs": [
        {
          "indexed": true,
          "internalType": "address",
          "name": "user",
          "type": "address"
        },
        {
          "indexed": false,
          "internalType": "uint256",
          "name": "amount",
          "type": "uint256"
        },
        {
          "indexed": false,
          "internalType": "uint256",
          "name": "requestBlock",
          "type": "uint256"
        }
      ],
      "name": "UnstakeRequested",
      "type": "event"
    },
    {
      "inputs": [],
      "name": "UNSTAKING_COOLDOWN_BLOCKS",
      "outputs": [
        {
          "internalType": "uint256",
          "name": "",
          "type": "uint256"
        }
      ],
      "stateMutability": "view",
      "type": "function"
    },
    {
      "inputs": [
        {
          "internalType": "address",
          "name": "owner",
          "type": "address"
        },
        {
          "internalType": "address",
          "name": "spender",
          "type": "address"
        }
      ],
      "name": "allowance",
      "outputs": [
        {
          "internalType": "uint256",
          "name": "",
          "type": "uint256"
        }
      ],
      "stateMutability": "view",
      "type": "function"
    },
    {
      "inputs": [
        {
          "internalType": "address",
          "name": "spender",
          "type": "address"
        },
        {
          "internalType": "uint256",
          "name": "value",
          "type": "uint256"
        }
      ],
      "name": "approve",
      "outputs": [
        {
          "internalType": "bool",
          "name": "",
          "type": "bool"
        }
      ],
      "stateMutability": "nonpayable",
      "type": "function"
    },
    {
      "inputs": [
        {
          "internalType": "address",
          "name": "account",
          "type": "address"
        }
      ],
      "name": "balanceOf",
      "outputs": [
        {
          "internalType": "uint256",
          "name": "",
          "type": "uint256"
        }
      ],
      "stateMutability": "view",
      "type": "function"
    },
    {
      "inputs": [],
      "name": "bohrToken",
      "outputs": [
        {
          "internalType": "contract IERC20",
          "name": "",
          "type": "address"
        }
      ],
      "stateMutability": "view",
      "type": "function"
    },
    {
      "inputs": [],
      "name": "cancelUnstake",
      "outputs": [],
      "stateMutability": "nonpayable",
      "type": "function"
    },
    {
      "inputs": [],
      "name": "completeUnstake",
      "outputs": [],
      "stateMutability": "nonpayable",
      "type": "function"
    },
    {
      "inputs": [],
      "name": "decimals",
      "outputs": [
        {
          "internalType": "uint8",
          "name": "",
          "type": "uint8"
        }
      ],
      "stateMutability": "view",
      "type": "function"
    },
    {
      "inputs": [
        {
          "internalType": "address",
          "name": "",
          "type": "address"
        }
      ],
      "name": "delegatedBy",
      "outputs": [
        {
          "internalType": "address",
          "name": "",
          "type": "address"
        }
      ],
      "stateMutability": "view",
      "type": "function"
    },
    {
      "inputs": [
        {
          "internalType": "address",
          "name": "",
          "type": "address"
        }
      ],
      "name": "delegatedTo",
      "outputs": [
        {
          "internalType": "address",
          "name": "",
          "type": "address"
        }
      ],
      "stateMutability": "view",
      "type": "function"
    },
    {
      "inputs": [
        {
          "internalType": "address",
          "name": "account",
          "type": "address"
        }
      ],
      "name": "getEffectiveBalance",
      "outputs": [
        {
          "internalType": "uint256",
          "name": "",
          "type": "uint256"
        }
      ],
      "stateMutability": "view",
      "type": "function"
    },
    {
      "inputs": [],
      "name": "name",
      "outputs": [
        {
          "internalType": "string",
          "name": "",
          "type": "string"
        }
      ],
      "stateMutability": "view",
      "type": "function"
    },
    {
      "inputs": [],
      "name": "owner",
      "outputs": [
        {
          "internalType": "address",
          "name": "",
          "type": "address"
        }
      ],
      "stateMutability": "view",
      "type": "function"
    },
    {
      "inputs": [],
      "name": "removeDelegation",
      "outputs": [],
      "stateMutability": "nonpayable",
      "type": "function"
    },
    {
      "inputs": [],
      "name": "renounceOwnership",
      "outputs": [],
      "stateMutability": "nonpayable",
      "type": "function"
    },
    {
      "inputs": [
        {
          "internalType": "uint256",
          "name": "amount",
          "type": "uint256"
        }
      ],
      "name": "requestUnstake",
      "outputs": [],
      "stateMutability": "nonpayable",
      "type": "function"
    },
    {
      "inputs": [
        {
          "internalType": "address",
          "name": "sessionWallet",
          "type": "address"
        }
      ],
      "name": "setDelegation",
      "outputs": [],
      "stateMutability": "nonpayable",
      "type": "function"
    },
    {
      "inputs": [
        {
          "internalType": "uint256",
          "name": "amount",
          "type": "uint256"
        }
      ],
      "name": "stake",
      "outputs": [],
      "stateMutability": "nonpayable",
      "type": "function"
    },
    {
      "inputs": [],
      "name": "symbol",
      "outputs": [
        {
          "internalType": "string",
          "name": "",
          "type": "string"
        }
      ],
      "stateMutability": "view",
      "type": "function"
    },
    {
      "inputs": [],
      "name": "totalSupply",
      "outputs": [
        {
          "internalType": "uint256",
          "name": "",
          "type": "uint256"
        }
      ],
      "stateMutability": "view",
      "type": "function"
    },
    {
      "inputs": [
        {
          "internalType": "address",
          "name": "to",
          "type": "address"
        },
        {
          "internalType": "uint256",
          "name": "value",
          "type": "uint256"
        }
      ],
      "name": "transfer",
      "outputs": [
        {
          "internalType": "bool",
          "name": "",
          "type": "bool"
        }
      ],
      "stateMutability": "nonpayable",
      "type": "function"
    },
    {
      "inputs": [
        {
          "internalType": "address",
          "name": "from",
          "type": "address"
        },
        {
          "internalType": "address",
          "name": "to",
          "type": "address"
        },
        {
          "internalType": "uint256",
          "name": "value",
          "type": "uint256"
        }
      ],
      "name": "transferFrom",
      "outputs": [
        {
          "internalType": "bool",
          "name": "",
          "type": "bool"
        }
      ],
      "stateMutability": "nonpayable",
      "type": "function"
    },
    {
      "inputs": [
        {
          "internalType": "address",
          "name": "newOwner",
          "type": "address"
        }
      ],
      "name": "transferOwnership",
      "outputs": [],
      "stateMutability": "nonpayable",
      "type": "function"
    },
    {
      "inputs": [
        {
          "internalType": "address",
          "name": "",
          "type": "address"
        }
      ],
      "name": "unstakeRequests",
      "outputs": [
        {
          "internalType": "uint256",
          "name": "amount",
          "type": "uint256"
        },
        {
          "internalType": "uint256",
          "name": "requestBlock",
          "type": "uint256"
        }
      ],
      "stateMutability": "view",
      "type": "function"
    }
  ],
  "bytecode": "0x60a06040523480156200001157600080fd5b50604051620030c6380380620030c68339818101604052810190620000379190620002bc565b336040518060400160405280600b81526020017f5374616b656420424f48520000000000000000000000000000000000000000008152506040518060400160405280600581526020017f73424f48520000000000000000000000000000000000000000000000000000008152508160039081620000b5919062000568565b508060049081620000c7919062000568565b505050600073ffffffffffffffffffffffffffffffffffffffff168173ffffffffffffffffffffffffffffffffffffffff16036200013f5760006040517f1e4fbdf700000000000000000000000000000000000000000000000000000000815260040162000136919062000660565b60405180910390fd5b62000150816200018c60201b60201c565b508073ffffffffffffffffffffffffffffffffffffffff1660808173ffffffffffffffffffffffffffffffffffffffff1681525050506200067d565b6000600560009054906101000a900473ffffffffffffffffffffffffffffffffffffffff16905081600560006101000a81548173ffffffffffffffffffffffffffffffffffffffff021916908373ffffffffffffffffffffffffffffffffffffffff1602179055508173ffffffffffffffffffffffffffffffffffffffff168173ffffffffffffffffffffffffffffffffffffffff167f8be0079c531659141344cd1fd0a4f28419497f9722a3daafe3b4186f6b6457e060405160405180910390a35050565b600080fd5b600073ffffffffffffffffffffffffffffffffffffffff82169050919050565b6000620002848262000257565b9050919050565b620002968162000277565b8114620002a257600080fd5b50565b600081519050620002b6816200028b565b92915050565b600060208284031215620002d557620002d462000252565b5b6000620002e584828501620002a5565b91505092915050565b600081519050919050565b7f4e487b7100000000000000000000000000000000000000000000000000000000600052604160045260246000fd5b7f4e487b7100000000000000000000000000000000000000000000000000000000600052602260045260246000fd5b600060028204905060018216806200037057607f821691505b60208210810362000386576200038562000328565b5b50919050565b60008190508160005260206000209050919050565b60006020601f8301049050919050565b600082821b905092915050565b600060088302620003f07fffffffffffffffffffffffffffffffffffffffffffffffffffffffffffffffff82620003b1565b620003fc8683620003b1565b95508019841693508086168417925050509392505050565b6000819050919050565b6000819050919050565b600062000449620004436200043d8462000414565b6200041e565b62000414565b9050919050565b6000819050919050565b620004658362000428565b6200047d620004748262000450565b848454620003be565b825550505050565b600090565b6200049462000485565b620004a18184846200045a565b505050565b5b81811015620004c957620004bd6000826200048a565b600181019050620004a7565b5050565b601f8211156200051857620004e2816200038c565b620004ed84620003a1565b81016020851015620004fd578190505b620005156200050c85620003a1565b830182620004a6565b50505b505050565b600082821c905092915050565b60006200053d600019846008026200051d565b1980831691505092915050565b60006200055883836200052a565b9150826002028217905092915050565b6200057382620002ee565b67ffffffffffffffff8111156200058f576200058e620002f9565b5b6200059b825462000357565b620005a8828285620004cd565b600060209050601f831160018114620005e05760008415620005cb578287015190505b620005d785826200054a565b86555062000647565b601f198416620005f0866200038c565b60005b828110156200061a57848901518255600182019150602085019450602081019050620005f3565b868310156200063a578489015162000636601f8916826200052a565b8355505b6001600288020188555050505b505050505050565b6200065a8162000277565b82525050565b60006020820190506200067760008301846200064f565b92915050565b608051612a1f620006a760003960008181610bea01528181610ea20152610f730152612a1f6000f3fe608060405234801561001057600080fd5b50600436106101585760003560e01c806370a08231116100c3578063ccaaf8081161007c578063ccaaf80814610391578063dd62ed3e146103af578063e0eb4d2e146103df578063e45aa09814610410578063e6b3e70414610440578063f2fde38b1461045c57610158565b806370a08231146102cf578063715018a6146102ff5780638da5cb5b1461030957806395d89b4114610327578063a694fc3a14610345578063a9059cbb1461036157610158565b80633d666e8b116101155780633d666e8b146102335780634ab179691461023d57806363803b231461024757806365da12641461025157806368651a5a146102815780636bf45d901461029f57610158565b806306fdde031461015d578063095ea7b31461017b57806318160ddd146101ab57806323095721146101c957806323b872dd146101e5578063313ce56714610215575b600080fd5b610165610478565b6040516101729190611f6e565b60405180910390f35b61019560048036038101906101909190612029565b61050a565b6040516101a29190612084565b60405180910390f35b6101b361052d565b6040516101c091906120ae565b60405180910390f35b6101e360048036038101906101de91906120c9565b610537565b005b6101ff60048036038101906101fa91906120f6565b610712565b60405161020c9190612084565b60405180910390f35b61021d610741565b60405161022a9190612165565b60405180910390f35b61023b61074a565b005b61024561097e565b005b61024f610a90565b005b61026b60048036038101906102669190612180565b610cd9565b60405161027891906121bc565b60405180910390f35b610289610d0c565b60405161029691906120ae565b60405180910390f35b6102b960048036038101906102b49190612180565b610d12565b6040516102c691906121bc565b60405180910390f35b6102e960048036038101906102e49190612180565b610d45565b6040516102f691906120ae565b60405180910390f35b610307610d8d565b005b610311610da1565b60405161031e91906121bc565b60405180910390f35b61032f610dcb565b60405161033c9190611f6e565b60405180910390f35b61035f600480360381019061035a91906120c9565b610e5d565b005b61037b60048036038101906103769190612029565b610f4e565b6040516103889190612084565b60405180910390f35b610399610f71565b6040516103a69190612236565b60405180910390f35b6103c960048036038101906103c49190612251565b610f95565b6040516103d691906120ae565b60405180910390f35b6103f960048036038101906103f49190612180565b61101c565b604051610407929190612291565b60405180910390f35b61042a60048036038101906104259190612180565b611040565b60405161043791906120ae565b60405180910390f35b61045a60048036038101906104559190612180565b61110e565b005b61047660048036038101906104719190612180565b6115ae565b005b606060038054610487906122e9565b80601f01602080910402602001604051908101604052809291908181526020018280546104b3906122e9565b80156105005780601f106104d557610100808354040283529160200191610500565b820191906000526020600020905b8154815290600101906020018083116104e357829003601f168201915b5050505050905090565b600080610515611634565b905061052281858561163c565b600191505092915050565b6000600254905090565b6000811161057a576040517f08c379a000000000000000000000000000000000000000000000000000000000815260040161057190612366565b60405180910390fd5b8061058433610d45565b10156105c5576040517f08c379a00000000000000000000000000000000000000000000000000000000081526004016105bc906123d2565b60405180910390fd5b6000600660003373ffffffffffffffffffffffffffffffffffffffff1673ffffffffffffffffffffffffffffffffffffffff168152602001908152602001600020600001541461064a576040517f08c379a00000000000000000000000000000000000000000000000000000000081526004016106419061243e565b60405180910390fd5b610654338261164e565b604051806040016040528082815260200143815250600660003373ffffffffffffffffffffffffffffffffffffffff1673ffffffffffffffffffffffffffffffffffffffff16815260200190815260200160002060008201518160000155602082015181600101559050503373ffffffffffffffffffffffffffffffffffffffff167f57e41df54512c76148b5ba9b643d149752b0d35e493b969bd017d0a3fe5228cf8243604051610707929190612291565b60405180910390a250565b60008061071d611634565b905061072a8582856116d0565b610735858585611765565b60019150509392505050565b60006012905090565b6000600860003373ffffffffffffffffffffffffffffffffffffffff1673ffffffffffffffffffffffffffffffffffffffff16815260200190815260200160002060009054906101000a900473ffffffffffffffffffffffffffffffffffffffff169050600073ffffffffffffffffffffffffffffffffffffffff168173ffffffffffffffffffffffffffffffffffffffff160361081d576040517f08c379a0000000000000000000000000000000000000000000000000000000008152600401610814906124aa565b60405180910390fd5b60003390506000600760008473ffffffffffffffffffffffffffffffffffffffff1673ffffffffffffffffffffffffffffffffffffffff16815260200190815260200160002060006101000a81548173ffffffffffffffffffffffffffffffffffffffff021916908373ffffffffffffffffffffffffffffffffffffffff1602179055506000600860008373ffffffffffffffffffffffffffffffffffffffff1673ffffffffffffffffffffffffffffffffffffffff16815260200190815260200160002060006101000a81548173ffffffffffffffffffffffffffffffffffffffff021916908373ffffffffffffffffffffffffffffffffffffffff1602179055508073ffffffffffffffffffffffffffffffffffffffff168273ffffffffffffffffffffffffffffffffffffffff167fd34d27e61da1c0024d36fb461da2b2cc55f26de3975c87a55e96d835f667462960405160405180910390a35050565b6000600660003373ffffffffffffffffffffffffffffffffffffffff1673ffffffffffffffffffffffffffffffffffffffff1681526020019081526020016000206040518060400160405290816000820154815260200160018201548152505090506000816000015111610a27576040517f08c379a0000000000000000000000000000000000000000000000000000000008152600401610a1e90612516565b60405180910390fd5b600081600001519050600660003373ffffffffffffffffffffffffffffffffffffffff1673ffffffffffffffffffffffffffffffffffffffff16815260200190815260200160002060008082016000905560018201600090555050610a8c3382611859565b5050565b6000600660003373ffffffffffffffffffffffffffffffffffffffff1673ffffffffffffffffffffffffffffffffffffffff1681526020019081526020016000206040518060400160405290816000820154815260200160018201548152505090506000816000015111610b39576040517f08c379a0000000000000000000000000000000000000000000000000000000008152600401610b3090612516565b60405180910390fd5b6103e88160200151610b4b9190612565565b431015610b8d576040517f08c379a0000000000000000000000000000000000000000000000000000000008152600401610b84906125e5565b60405180910390fd5b600081600001519050600660003373ffffffffffffffffffffffffffffffffffffffff1673ffffffffffffffffffffffffffffffffffffffff168152602001908152602001600020600080820160009055600182016000905550507f000000000000000000000000000000000000000000000000000000000000000073ffffffffffffffffffffffffffffffffffffffff1663a9059cbb33836040518363ffffffff1660e01b8152600401610c43929190612605565b6020604051808303816000875af1158015610c62573d6000803e3d6000fd5b505050506040513d601f19601f82011682018060405250810190610c86919061265a565b503373ffffffffffffffffffffffffffffffffffffffff167fdf2b996992aeaae3212b8d32b9c3c224196146804bed6814ec28d864b4eb3fc582604051610ccd91906120ae565b60405180910390a25050565b60086020528060005260406000206000915054906101000a900473ffffffffffffffffffffffffffffffffffffffff1681565b6103e881565b60076020528060005260406000206000915054906101000a900473ffffffffffffffffffffffffffffffffffffffff1681565b60008060008373ffffffffffffffffffffffffffffffffffffffff1673ffffffffffffffffffffffffffffffffffffffff168152602001908152602001600020549050919050565b610d956118db565b610d9f6000611962565b565b6000600560009054906101000a900473ffffffffffffffffffffffffffffffffffffffff16905090565b606060048054610dda906122e9565b80601f0160208091040260200160405190810160405280929190818152602001828054610e06906122e9565b8015610e535780601f10610e2857610100808354040283529160200191610e53565b820191906000526020600020905b815481529060010190602001808311610e3657829003601f168201915b5050505050905090565b60008111610ea0576040517f08c379a0000000000000000000000000000000000000000000000000000000008152600401610e97906126d3565b60405180910390fd5b7f000000000000000000000000000000000000000000000000000000000000000073ffffffffffffffffffffffffffffffffffffffff166323b872dd3330846040518463ffffffff1660e01b8152600401610efd939291906126f3565b6020604051808303816000875af1158015610f1c573d6000803e3d6000fd5b505050506040513d601f19601f82011682018060405250810190610f40919061265a565b50610f4b3382611859565b50565b600080610f59611634565b9050610f66818585611765565b600191505092915050565b7f000000000000000000000000000000000000000000000000000000000000000081565b6000600160008473ffffffffffffffffffffffffffffffffffffffff1673ffffffffffffffffffffffffffffffffffffffff16815260200190815260200160002060008373ffffffffffffffffffffffffffffffffffffffff1673ffffffffffffffffffffffffffffffffffffffff16815260200190815260200160002054905092915050565b60066020528060005260406000206000915090508060000154908060010154905082565b60008061104c83610d45565b90506000600760008573ffffffffffffffffffffffffffffffffffffffff1673ffffffffffffffffffffffffffffffffffffffff16815260200190815260200160002060009054906101000a900473ffffffffffffffffffffffffffffffffffffffff169050600073ffffffffffffffffffffffffffffffffffffffff168173ffffffffffffffffffffffffffffffffffffffff1614611103576110ef81610d45565b826110fa9190612565565b92505050611109565b81925050505b919050565b600073ffffffffffffffffffffffffffffffffffffffff168173ffffffffffffffffffffffffffffffffffffffff160361117d576040517f08c379a000000000000000000000000000000000000000000000000000000000815260040161117490612776565b60405180910390fd5b3373ffffffffffffffffffffffffffffffffffffffff168173ffffffffffffffffffffffffffffffffffffffff16036111eb576040517f08c379a00000000000000000000000000000000000000000000000000000000081526004016111e2906127e2565b60405180910390fd5b600073ffffffffffffffffffffffffffffffffffffffff16600860003373ffffffffffffffffffffffffffffffffffffffff1673ffffffffffffffffffffffffffffffffffffffff16815260200190815260200160002060009054906101000a900473ffffffffffffffffffffffffffffffffffffffff1673ffffffffffffffffffffffffffffffffffffffff16146112b9576040517f08c379a00000000000000000000000000000000000000000000000000000000081526004016112b09061284e565b60405180910390fd5b600073ffffffffffffffffffffffffffffffffffffffff16600760008373ffffffffffffffffffffffffffffffffffffffff1673ffffffffffffffffffffffffffffffffffffffff16815260200190815260200160002060009054906101000a900473ffffffffffffffffffffffffffffffffffffffff1673ffffffffffffffffffffffffffffffffffffffff1614611387576040517f08c379a000000000000000000000000000000000000000000000000000000000815260040161137e906128ba565b60405180910390fd5b600073ffffffffffffffffffffffffffffffffffffffff16600860008373ffffffffffffffffffffffffffffffffffffffff1673ffffffffffffffffffffffffffffffffffffffff16815260200190815260200160002060009054906101000a900473ffffffffffffffffffffffffffffffffffffffff1673ffffffffffffffffffffffffffffffffffffffff1614611455576040517f08c379a000000000000000000000000000000000000000000000000000000000815260040161144c90612926565b60405180910390fd5b33600760008373ffffffffffffffffffffffffffffffffffffffff1673ffffffffffffffffffffffffffffffffffffffff16815260200190815260200160002060006101000a81548173ffffffffffffffffffffffffffffffffffffffff021916908373ffffffffffffffffffffffffffffffffffffffff16021790555080600860003373ffffffffffffffffffffffffffffffffffffffff1673ffffffffffffffffffffffffffffffffffffffff16815260200190815260200160002060006101000a81548173ffffffffffffffffffffffffffffffffffffffff021916908373ffffffffffffffffffffffffffffffffffffffff1602179055503373ffffffffffffffffffffffffffffffffffffffff168173ffffffffffffffffffffffffffffffffffffffff167f39e3ace752997a751bda5ecf126da84d0d23d5e61f3f56f26a6b22990d7beed860405160405180910390a350565b6115b66118db565b600073ffffffffffffffffffffffffffffffffffffffff168173ffffffffffffffffffffffffffffffffffffffff16036116285760006040517f1e4fbdf700000000000000000000000000000000000000000000000000000000815260040161161f91906121bc565b60405180910390fd5b61163181611962565b50565b600033905090565b6116498383836001611a28565b505050565b600073ffffffffffffffffffffffffffffffffffffffff168273ffffffffffffffffffffffffffffffffffffffff16036116c05760006040517f96c6fd1e0000000000000000000000000000000000000000000000000000000081526004016116b791906121bc565b60405180910390fd5b6116cc82600083611bff565b5050565b60006116dc8484610f95565b90507fffffffffffffffffffffffffffffffffffffffffffffffffffffffffffffffff81101561175f578181101561174f578281836040517ffb8f41b200000000000000000000000000000000000000000000000000000000815260040161174693929190612946565b60405180910390fd5b61175e84848484036000611a28565b5b50505050565b600073ffffffffffffffffffffffffffffffffffffffff168373ffffffffffffffffffffffffffffffffffffffff16036117d75760006040517f96c6fd1e0000000000000000000000000000000000000000000000000000000081526004016117ce91906121bc565b60405180910390fd5b600073ffffffffffffffffffffffffffffffffffffffff168273ffffffffffffffffffffffffffffffffffffffff16036118495760006040517fec442f0500000000000000000000000000000000000000000000000000000000815260040161184091906121bc565b60405180910390fd5b611854838383611bff565b505050565b600073ffffffffffffffffffffffffffffffffffffffff168273ffffffffffffffffffffffffffffffffffffffff16036118cb5760006040517fec442f050000000000000000000000000000000000000000000000000000000081526004016118c291906121bc565b60405180910390fd5b6118d760008383611bff565b5050565b6118e3611634565b73ffffffffffffffffffffffffffffffffffffffff16611901610da1565b73ffffffffffffffffffffffffffffffffffffffff161461196057611924611634565b6040517f118cdaa700000000000000000000000000000000000000000000000000000000815260040161195791906121bc565b60405180910390fd5b565b6000600560009054906101000a900473ffffffffffffffffffffffffffffffffffffffff16905081600560006101000a81548173ffffffffffffffffffffffffffffffffffffffff021916908373ffffffffffffffffffffffffffffffffffffffff1602179055508173ffffffffffffffffffffffffffffffffffffffff168173ffffffffffffffffffffffffffffffffffffffff167f8be0079c531659141344cd1fd0a4f28419497f9722a3daafe3b4186f6b6457e060405160405180910390a35050565b600073ffffffffffffffffffffffffffffffffffffffff168473ffffffffffffffffffffffffffffffffffffffff1603611a9a5760006040517fe602df05000000000000000000000000000000000000000000000000000000008152600401611a9191906121bc565b60405180910390fd5b600073ffffffffffffffffffffffffffffffffffffffff168373ffffffffffffffffffffffffffffffffffffffff1603611b0c5760006040517f94280d62000000000000000000000000000000000000000000000000000000008152600401611b0391906121bc565b60405180910390fd5b81600160008673ffffffffffffffffffffffffffffffffffffffff1673ffffffffffffffffffffffffffffffffffffffff16815260200190815260200160002060008573ffffffffffffffffffffffffffffffffffffffff1673ffffffffffffffffffffffffffffffffffffffff168152602001908152602001600020819055508015611bf9578273ffffffffffffffffffffffffffffffffffffffff168473ffffffffffffffffffffffffffffffffffffffff167f8c5be1e5ebec7d5bd14f71427d1e84f3dd0314c0f7b2291e5b200ac8c7c3b92584604051611bf091906120ae565b60405180910390a35b50505050565b600073ffffffffffffffffffffffffffffffffffffffff168373ffffffffffffffffffffffffffffffffffffffff1614158015611c695750600073ffffffffffffffffffffffffffffffffffffffff168273ffffffffffffffffffffffffffffffffffffffff1614155b15611ca9576040517f08c379a0000000000000000000000000000000000000000000000000000000008152600401611ca0906129c9565b60405180910390fd5b611cb4838383611cb9565b505050565b600073ffffffffffffffffffffffffffffffffffffffff168373ffffffffffffffffffffffffffffffffffffffff1603611d0b578060026000828254611cff9190612565565b92505081905550611dde565b60008060008573ffffffffffffffffffffffffffffffffffffffff1673ffffffffffffffffffffffffffffffffffffffff16815260200190815260200160002054905081811015611d97578381836040517fe450d38c000000000000000000000000000000000000000000000000000000008152600401611d8e93929190612946565b60405180910390fd5b8181036000808673ffffffffffffffffffffffffffffffffffffffff1673ffffffffffffffffffffffffffffffffffffffff16815260200190815260200160002081905550505b600073ffffffffffffffffffffffffffffffffffffffff168273ffffffffffffffffffffffffffffffffffffffff1603611e275780600260008282540392505081905550611e74565b806000808473ffffffffffffffffffffffffffffffffffffffff1673ffffffffffffffffffffffffffffffffffffffff168152602001908152602001600020600082825401925050819055505b8173ffffffffffffffffffffffffffffffffffffffff168373ffffffffffffffffffffffffffffffffffffffff167fddf252ad1be2c89b69c2b068fc378daa952ba7f163c4a11628f55a4df523b3ef83604051611ed191906120ae565b60405180910390a3505050565b600081519050919050565b600082825260208201905092915050565b60005b83811015611f18578082015181840152602081019050611efd565b60008484015250505050565b6000601f19601f8301169050919050565b6000611f4082611ede565b611f4a8185611ee9565b9350611f5a818560208601611efa565b611f6381611f24565b840191505092915050565b60006020820190508181036000830152611f888184611f35565b905092915050565b600080fd5b600073ffffffffffffffffffffffffffffffffffffffff82169050919050565b6000611fc082611f95565b9050919050565b611fd081611fb5565b8114611fdb57600080fd5b50565b600081359050611fed81611fc7565b92915050565b6000819050919050565b61200681611ff3565b811461201157600080fd5b50565b60008135905061202381611ffd565b92915050565b600080604083850312156120405761203f611f90565b5b600061204e85828601611fde565b925050602061205f85828601612014565b9150509250929050565b60008115159050919050565b61207e81612069565b82525050565b60006020820190506120996000830184612075565b92915050565b6120a881611ff3565b82525050565b60006020820190506120c3600083018461209f565b92915050565b6000602082840312156120df576120de611f90565b5b60006120ed84828501612014565b91505092915050565b60008060006060848603121561210f5761210e611f90565b5b600061211d86828701611fde565b935050602061212e86828701611fde565b925050604061213f86828701612014565b9150509250925092565b600060ff82169050919050565b61215f81612149565b82525050565b600060208201905061217a6000830184612156565b92915050565b60006020828403121561219657612195611f90565b5b60006121a484828501611fde565b91505092915050565b6121b681611fb5565b82525050565b60006020820190506121d160008301846121ad565b92915050565b6000819050919050565b60006121fc6121f76121f284611f95565b6121d7565b611f95565b9050919050565b600061220e826121e1565b9050919050565b600061222082612203565b9050919050565b61223081612215565b82525050565b600060208201905061224b6000830184612227565b92915050565b6000806040838503121561226857612267611f90565b5b600061227685828601611fde565b925050602061228785828601611fde565b9150509250929050565b60006040820190506122a6600083018561209f565b6122b3602083018461209f565b9392505050565b7f4e487b7100000000000000000000000000000000000000000000000000000000600052602260045260246000fd5b6000600282049050600182168061230157607f821691505b602082108103612314576123136122ba565b5b50919050565b7f43616e6e6f7420756e7374616b65203000000000000000000000000000000000600082015250565b6000612350601083611ee9565b915061235b8261231a565b602082019050919050565b6000602082019050818103600083015261237f81612343565b9050919050565b7f496e73756666696369656e74207374616b65642062616c616e63650000000000600082015250565b60006123bc601b83611ee9565b91506123c782612386565b602082019050919050565b600060208201905081810360008301526123eb816123af565b9050919050565b7f556e7374616b6520616c72656164792072657175657374656400000000000000600082015250565b6000612428601983611ee9565b9150612433826123f2565b602082019050919050565b600060208201905081810360008301526124578161241b565b9050919050565b7f4e6f2064656c65676174696f6e20657869737473000000000000000000000000600082015250565b6000612494601483611ee9565b915061249f8261245e565b602082019050919050565b600060208201905081810360008301526124c381612487565b9050919050565b7f4e6f20756e7374616b6520726571756573746564000000000000000000000000600082015250565b6000612500601483611ee9565b915061250b826124ca565b602082019050919050565b6000602082019050818103600083015261252f816124f3565b9050919050565b7f4e487b7100000000000000000000000000000000000000000000000000000000600052601160045260246000fd5b600061257082611ff3565b915061257b83611ff3565b925082820190508082111561259357612592612536565b5b92915050565b7f436f6f6c646f776e206e6f7420636f6d706c6574650000000000000000000000600082015250565b60006125cf601583611ee9565b91506125da82612599565b602082019050919050565b600060208201905081810360008301526125fe816125c2565b9050919050565b600060408201905061261a60008301856121ad565b612627602083018461209f565b9392505050565b61263781612069565b811461264257600080fd5b50565b6000815190506126548161262e565b92915050565b6000602082840312156126705761266f611f90565b5b600061267e84828501612645565b91505092915050565b7f43616e6e6f74207374616b652030000000000000000000000000000000000000600082015250565b60006126bd600e83611ee9565b91506126c882612687565b602082019050919050565b600060208201905081810360008301526126ec816126b0565b9050919050565b600060608201905061270860008301866121ad565b61271560208301856121ad565b612722604083018461209f565b949350505050565b7f496e76616c69642073657373696f6e2077616c6c657400000000000000000000600082015250565b6000612760601683611ee9565b915061276b8261272a565b602082019050919050565b6000602082019050818103600083015261278f81612753565b9050919050565b7f43616e6e6f742064656c656761746520746f2073656c66000000000000000000600082015250565b60006127cc601783611ee9565b91506127d782612796565b602082019050919050565b600060208201905081810360008301526127fb816127bf565b9050919050565b7f416c72656164792064656c656761746564000000000000000000000000000000600082015250565b6000612838601183611ee9565b915061284382612802565b602082019050919050565b600060208201905081810360008301526128678161282b565b9050919050565b7f53657373696f6e20616c72656164792064656c65676174656400000000000000600082015250565b60006128a4601983611ee9565b91506128af8261286e565b602082019050919050565b600060208201905081810360008301526128d381612897565b9050919050565b7f43697263756c61722064656c65676174696f6e206e6f7420616c6c6f77656400600082015250565b6000612910601f83611ee9565b915061291b826128da565b602082019050919050565b6000602082019050818103600083015261293f81612903565b9050919050565b600060608201905061295b60008301866121ad565b612968602083018561209f565b612975604083018461209f565b949350505050565b7f73424f48523a206e6f6e2d7472616e736665727261626c650000000000000000600082015250565b60006129b3601883611ee9565b91506129be8261297d565b602082019050919050565b600060208201905081810360008301526129e2816129a6565b905091905056fea2646970667358221220ca2ad3d44bb5fd4a3fb87ec3742fb4212c9d63b7b31985642a63217ae72f496764736f6c63430008140033",
  "linkReferences": {},
  "deployedLinkReferences": {}
}