{
  "_format": "hh-sol-artifact-1",
  "contractName": "BohriumMining",
  "sourceName": "contracts/BohriumMining.sol",
  "abi": [
    {
      "inputs": [
        {
          "internalType": "address",
          "name": "_bohriumTokenAddress",
          "type": "address"
        }
      ],
      "stateMutability": "nonpayable",
      "type": "constructor"
    },
    {
      "anonymous": false,
      "inputs": [
        {
          "indexed": true,
          "internalType": "address",
          "name": "miner",
          "type": "address"
        },
        {
          "indexed": false,
          "internalType": "bytes32",
          "name": "hash",
          "type": "bytes32"
        },
        {
          "indexed": false,
          "internalType": "uint256",
          "name": "value",
          "type": "uint256"
        }
      ],
      "name": "NewBestHash",
      "type": "event"
    },
    {
      "anonymous": false,
      "inputs": [
        {
          "indexed": false,
          "internalType": "address",
          "name": "winner",
          "type": "address"
        },
        {
          "indexed": false,
          "internalType": "uint256",
          "name": "reward",
          "type": "uint256"
        }
      ],
      "name": "RoundEnded",
      "type": "event"
    },
    {
      "inputs": [],
      "name": "bestHash",
      "outputs": [
        {
          "internalType": "bytes32",
          "name": "",
          "type": "bytes32"
        }
      ],
      "stateMutability": "view",
      "type": "function"
    },
    {
      "inputs": [],
      "name": "bestHashValue",
      "outputs": [
        {
          "internalType": "uint256",
          "name": "",
          "type": "uint256"
        }
      ],
      "stateMutability": "view",
      "type": "function"
    },
    {
      "inputs": [],
      "name": "bestMiner",
      "outputs": [
        {
          "internalType": "address",
          "name": "",
          "type": "address"
        }
      ],
      "stateMutability": "view",
      "type": "function"
    },
    {
      "inputs": [],
      "name": "bohriumToken",
      "outputs": [
        {
          "internalType": "contract IBohriumToken",
          "name": "",
          "type": "address"
        }
      ],
      "stateMutability": "view",
      "type": "function"
    },
    {
      "inputs": [],
      "name": "endRound",
      "outputs": [],
      "stateMutability": "nonpayable",
      "type": "function"
    },
    {
      "inputs": [],
      "name": "lastRoundEnd",
      "outputs": [
        {
          "internalType": "uint256",
          "name": "",
          "type": "uint256"
        }
      ],
      "stateMutability": "view",
      "type": "function"
    },
    {
      "inputs": [],
      "name": "reward",
      "outputs": [
        {
          "internalType": "uint256",
          "name": "",
          "type": "uint256"
        }
      ],
      "stateMutability": "view",
      "type": "function"
    },
    {
      "inputs": [],
      "name": "roundDuration",
      "outputs": [
        {
          "internalType": "uint256",
          "name": "",
          "type": "uint256"
        }
      ],
      "stateMutability": "view",
      "type": "function"
    },
    {
      "inputs": [
        {
          "internalType": "uint256",
          "name": "_reward",
          "type": "uint256"
        }
      ],
      "name": "setReward",
      "outputs": [],
      "stateMutability": "nonpayable",
      "type": "function"
    },
    {
      "inputs": [
        {
          "internalType": "uint256",
          "name": "_duration",
          "type": "uint256"
        }
      ],
      "name": "setRoundDuration",
      "outputs": [],
      "stateMutability": "nonpayable",
      "type": "function"
    },
    {
      "inputs": [
        {
          "internalType": "uint256",
          "name": "nonce",
          "type": "uint256"
        }
      ],
      "name": "submitHash",
      "outputs": [],
      "stateMutability": "nonpayable",
      "type": "function"
    }
  ],
  "bytecode": "0x6080604052678ac7230489e800006001556102586002553480156200002357600080fd5b5060405162000bd938038062000bd9833981810160405281019062000049919062000110565b806000806101000a81548173ffffffffffffffffffffffffffffffffffffffff021916908373ffffffffffffffffffffffffffffffffffffffff160217905550600254426200009991906200017b565b60038190555050620001b6565b600080fd5b600073ffffffffffffffffffffffffffffffffffffffff82169050919050565b6000620000d882620000ab565b9050919050565b620000ea81620000cb565b8114620000f657600080fd5b50565b6000815190506200010a81620000df565b92915050565b600060208284031215620001295762000128620000a6565b5b60006200013984828501620000f9565b91505092915050565b6000819050919050565b7f4e487b7100000000000000000000000000000000000000000000000000000000600052601160045260246000fd5b6000620001888262000142565b9150620001958362000142565b9250828201905080821115620001b057620001af6200014c565b5b92915050565b610a1380620001c66000396000f3fe608060405234801561001057600080fd5b50600436106100a95760003560e01c8063704cda4211610071578063704cda421461013e5780637270531c1461015c578063749aa2d91461017a578063acf4e41214610184578063f6b36551146101a2578063f7cb789a146101c0576100a9565b806317ab667f146100ae578063228cb733146100cc578063293be456146100ea57806336c92c3f146101065780636e7c3d5514610122575b600080fd5b6100b66101de565b6040516100c3919061068d565b60405180910390f35b6100d4610202565b6040516100e191906106c1565b60405180910390f35b61010460048036038101906100ff919061070d565b610208565b005b610120600480360381019061011b919061070d565b610212565b005b61013c6004803603810190610137919061070d565b61021c565b005b61014661039d565b60405161015391906106c1565b60405180910390f35b6101646103a3565b604051610171919061075b565b60405180910390f35b6101826103c9565b005b61018c6105fc565b60405161019991906106c1565b60405180910390f35b6101aa610602565b6040516101b7919061078f565b60405180910390f35b6101c8610608565b6040516101d591906106c1565b60405180910390f35b60008054906101000a900473ffffffffffffffffffffffffffffffffffffffff1681565b60015481565b8060018190555050565b8060028190555050565b6003544210610260576040517f08c379a000000000000000000000000000000000000000000000000000000000815260040161025790610807565b60405180910390fd5b60003382604051602001610275929190610890565b60405160208183030381529060405280519060200120905060008160001c9050600073ffffffffffffffffffffffffffffffffffffffff16600460009054906101000a900473ffffffffffffffffffffffffffffffffffffffff1673ffffffffffffffffffffffffffffffffffffffff1614806102f3575060065481105b156103985733600460006101000a81548173ffffffffffffffffffffffffffffffffffffffff021916908373ffffffffffffffffffffffffffffffffffffffff16021790555081600581905550806006819055503373ffffffffffffffffffffffffffffffffffffffff167febb23484bd719ef4f4133bb45560da3b4ed99f859a63a650cd06d195df301b92838360405161038f9291906108bc565b60405180910390a25b505050565b60065481565b600460009054906101000a900473ffffffffffffffffffffffffffffffffffffffff1681565b60035442101561040e576040517f08c379a000000000000000000000000000000000000000000000000000000000815260040161040590610931565b60405180910390fd5b600073ffffffffffffffffffffffffffffffffffffffff16600460009054906101000a900473ffffffffffffffffffffffffffffffffffffffff1673ffffffffffffffffffffffffffffffffffffffff16146105735760008054906101000a900473ffffffffffffffffffffffffffffffffffffffff1673ffffffffffffffffffffffffffffffffffffffff166340c10f19600460009054906101000a900473ffffffffffffffffffffffffffffffffffffffff166001546040518363ffffffff1660e01b81526004016104e3929190610951565b600060405180830381600087803b1580156104fd57600080fd5b505af1158015610511573d6000803e3d6000fd5b505050507f1504e40bf894d2b010eafcb1e3f071487f992ec3621a66e43c8c09f675990873600460009054906101000a900473ffffffffffffffffffffffffffffffffffffffff1660015460405161056a929190610951565b60405180910390a15b6000600460006101000a81548173ffffffffffffffffffffffffffffffffffffffff021916908373ffffffffffffffffffffffffffffffffffffffff1602179055506000801b6005819055507fffffffffffffffffffffffffffffffffffffffffffffffffffffffffffffffff600681905550600254426105f491906109a9565b600381905550565b60035481565b60055481565b60025481565b600073ffffffffffffffffffffffffffffffffffffffff82169050919050565b6000819050919050565b600061065361064e6106498461060e565b61062e565b61060e565b9050919050565b600061066582610638565b9050919050565b60006106778261065a565b9050919050565b6106878161066c565b82525050565b60006020820190506106a2600083018461067e565b92915050565b6000819050919050565b6106bb816106a8565b82525050565b60006020820190506106d660008301846106b2565b92915050565b600080fd5b6106ea816106a8565b81146106f557600080fd5b50565b600081359050610707816106e1565b92915050565b600060208284031215610723576107226106dc565b5b6000610731848285016106f8565b91505092915050565b60006107458261060e565b9050919050565b6107558161073a565b82525050565b6000602082019050610770600083018461074c565b92915050565b6000819050919050565b61078981610776565b82525050565b60006020820190506107a46000830184610780565b92915050565b600082825260208201905092915050565b7f526f756e642068617320656e6465640000000000000000000000000000000000600082015250565b60006107f1600f836107aa565b91506107fc826107bb565b602082019050919050565b60006020820190508181036000830152610820816107e4565b9050919050565b60008160601b9050919050565b600061083f82610827565b9050919050565b600061085182610834565b9050919050565b6108696108648261073a565b610846565b82525050565b6000819050919050565b61088a610885826106a8565b61086f565b82525050565b600061089c8285610858565b6014820191506108ac8284610879565b6020820191508190509392505050565b60006040820190506108d16000830185610780565b6108de60208301846106b2565b9392505050565b7f526f756e64206973207374696c6c206f6e676f696e6700000000000000000000600082015250565b600061091b6016836107aa565b9150610926826108e5565b602082019050919050565b6000602082019050818103600083015261094a8161090e565b9050919050565b6000604082019050610966600083018561074c565b61097360208301846106b2565b9392505050565b7f4e487b7100000000000000000000000000000000000000000000000000000000600052601160045260246000fd5b60006109b4826106a8565b91506109bf836106a8565b92508282019050808211156109d7576109d661097a565b5b9291505056fea26469706673582212206a2bb5ad0a5ac69219134f70535c2504016c9e3f9b0275ea1086b9cd2144145164736f6c63430008140033",
  "linkReferences": {},
  "deployedLinkReferences": {}
}