{
  "_format": "hh-sol-artifact-1",
  "contractName": "BohriumMining",
  "sourceName": "contracts/BohriumMining.sol",
  "abi": [
    {
      "inputs": [
        {
          "internalType": "address",
          "name": "_bohriumTokenAddress",
          "type": "address"
        }
      ],
      "stateMutability": "nonpayable",
      "type": "constructor"
    },
    {
      "anonymous": false,
      "inputs": [
        {
          "indexed": true,
          "internalType": "address",
          "name": "miner",
          "type": "address"
        },
        {
          "indexed": false,
          "internalType": "uint256",
          "name": "nonce",
          "type": "uint256"
        },
        {
          "indexed": false,
          "internalType": "uint256",
          "name": "hashValue",
          "type": "uint256"
        }
      ],
      "name": "NewBestHash",
      "type": "event"
    },
    {
      "anonymous": false,
      "inputs": [
        {
          "indexed": false,
          "internalType": "uint256",
          "name": "newReward",
          "type": "uint256"
        }
      ],
      "name": "RewardHalved",
      "type": "event"
    },
    {
      "anonymous": false,
      "inputs": [
        {
          "indexed": true,
          "internalType": "uint256",
          "name": "roundId",
          "type": "uint256"
        },
        {
          "indexed": false,
          "internalType": "address",
          "name": "winner",
          "type": "address"
        },
        {
          "indexed": false,
          "internalType": "uint256",
          "name": "reward",
          "type": "uint256"
        }
      ],
      "name": "RoundEnded",
      "type": "event"
    },
    {
      "anonymous": false,
      "inputs": [
        {
          "indexed": true,
          "internalType": "uint256",
          "name": "roundId",
          "type": "uint256"
        },
        {
          "indexed": false,
          "internalType": "uint256",
          "name": "startTime",
          "type": "uint256"
        },
        {
          "indexed": false,
          "internalType": "uint256",
          "name": "endTime",
          "type": "uint256"
        }
      ],
      "name": "RoundStarted",
      "type": "event"
    },
    {
      "inputs": [],
      "name": "bestHash",
      "outputs": [
        {
          "internalType": "bytes32",
          "name": "",
          "type": "bytes32"
        }
      ],
      "stateMutability": "view",
      "type": "function"
    },
    {
      "inputs": [],
      "name": "bestHashValue",
      "outputs": [
        {
          "internalType": "uint256",
          "name": "",
          "type": "uint256"
        }
      ],
      "stateMutability": "view",
      "type": "function"
    },
    {
      "inputs": [],
      "name": "bestMiner",
      "outputs": [
        {
          "internalType": "address",
          "name": "",
          "type": "address"
        }
      ],
      "stateMutability": "view",
      "type": "function"
    },
    {
      "inputs": [],
      "name": "bohriumToken",
      "outputs": [
        {
          "internalType": "contract IBohriumToken",
          "name": "",
          "type": "address"
        }
      ],
      "stateMutability": "view",
      "type": "function"
    },
    {
      "inputs": [],
      "name": "currentReward",
      "outputs": [
        {
          "internalType": "uint256",
          "name": "",
          "type": "uint256"
        }
      ],
      "stateMutability": "view",
      "type": "function"
    },
    {
      "inputs": [],
      "name": "endRound",
      "outputs": [],
      "stateMutability": "nonpayable",
      "type": "function"
    },
    {
      "inputs": [],
      "name": "halvingInterval",
      "outputs": [
        {
          "internalType": "uint256",
          "name": "",
          "type": "uint256"
        }
      ],
      "stateMutability": "view",
      "type": "function"
    },
    {
      "inputs": [],
      "name": "initialReward",
      "outputs": [
        {
          "internalType": "uint256",
          "name": "",
          "type": "uint256"
        }
      ],
      "stateMutability": "view",
      "type": "function"
    },
    {
      "inputs": [],
      "name": "lastHalvingTimestamp",
      "outputs": [
        {
          "internalType": "uint256",
          "name": "",
          "type": "uint256"
        }
      ],
      "stateMutability": "view",
      "type": "function"
    },
    {
      "inputs": [],
      "name": "roundDuration",
      "outputs": [
        {
          "internalType": "uint256",
          "name": "",
          "type": "uint256"
        }
      ],
      "stateMutability": "view",
      "type": "function"
    },
    {
      "inputs": [],
      "name": "roundEndTime",
      "outputs": [
        {
          "internalType": "uint256",
          "name": "",
          "type": "uint256"
        }
      ],
      "stateMutability": "view",
      "type": "function"
    },
    {
      "inputs": [],
      "name": "roundId",
      "outputs": [
        {
          "internalType": "uint256",
          "name": "",
          "type": "uint256"
        }
      ],
      "stateMutability": "view",
      "type": "function"
    },
    {
      "inputs": [],
      "name": "roundStartTime",
      "outputs": [
        {
          "internalType": "uint256",
          "name": "",
          "type": "uint256"
        }
      ],
      "stateMutability": "view",
      "type": "function"
    },
    {
      "inputs": [
        {
          "internalType": "uint256",
          "name": "nonce",
          "type": "uint256"
        }
      ],
      "name": "submitNonce",
      "outputs": [],
      "stateMutability": "nonpayable",
      "type": "function"
    }
  ],
  "bytecode": "0x6080604052678ac7230489e800006001556301e13380600255603c6004553480156200002a57600080fd5b5060405162001008380380620010088339818101604052810190620000509190620001fe565b806000806101000a81548173ffffffffffffffffffffffffffffffffffffffff021916908373ffffffffffffffffffffffffffffffffffffffff16021790555042600381905550620000a7620000ae60201b60201c565b506200032f565b60076000815480929190620000c39062000269565b919050555042600581905550600454600554620000e19190620002b6565b6006819055506000600860006101000a81548173ffffffffffffffffffffffffffffffffffffffff021916908373ffffffffffffffffffffffffffffffffffffffff1602179055507fffffffffffffffffffffffffffffffffffffffffffffffffffffffffffffffff6009819055506007547fa359b664a68acd8839e42112eb50eff3408165e15074fde89ddb58a0db2e691d6005546006546040516200018a92919062000302565b60405180910390a2565b600080fd5b600073ffffffffffffffffffffffffffffffffffffffff82169050919050565b6000620001c68262000199565b9050919050565b620001d881620001b9565b8114620001e457600080fd5b50565b600081519050620001f881620001cd565b92915050565b60006020828403121562000217576200021662000194565b5b60006200022784828501620001e7565b91505092915050565b7f4e487b7100000000000000000000000000000000000000000000000000000000600052601160045260246000fd5b6000819050919050565b600062000276826200025f565b91507fffffffffffffffffffffffffffffffffffffffffffffffffffffffffffffffff8203620002ab57620002aa62000230565b5b600182019050919050565b6000620002c3826200025f565b9150620002d0836200025f565b9250828201905080821115620002eb57620002ea62000230565b5b92915050565b620002fc816200025f565b82525050565b6000604082019050620003196000830185620002f1565b620003286020830184620002f1565b9392505050565b610cc9806200033f6000396000f3fe608060405234801561001057600080fd5b50600436106100ea5760003560e01c8063749aa2d91161008c578063dd4f8f7411610066578063dd4f8f7414610205578063e40205d614610223578063f6b3655114610241578063f7cb789a1461025f576100ea565b8063749aa2d9146101bf5780638cd221c9146101c9578063abee967c146101e7576100ea565b806354634d66116100c857806354634d66146101495780636a47aa0614610165578063704cda42146101835780637270531c146101a1576100ea565b806307621eca146100ef57806317ab667f1461010d578063391e0d091461012b575b600080fd5b6100f761027d565b60405161010491906107f8565b60405180910390f35b6101156102cf565b6040516101229190610892565b60405180910390f35b6101336102f3565b60405161014091906107f8565b60405180910390f35b610163600480360381019061015e91906108de565b6102f9565b005b61016d61043a565b60405161017a91906107f8565b60405180910390f35b61018b610440565b60405161019891906107f8565b60405180910390f35b6101a9610446565b6040516101b6919061092c565b60405180910390f35b6101c761046c565b005b6101d16106db565b6040516101de91906107f8565b60405180910390f35b6101ef6106e1565b6040516101fc91906107f8565b60405180910390f35b61020d6106e7565b60405161021a91906107f8565b60405180910390f35b61022b6106ed565b60405161023891906107f8565b60405180910390f35b6102496106f3565b6040516102569190610960565b60405180910390f35b6102676106f9565b60405161027491906107f8565b60405180910390f35b6000806003544261028e91906109aa565b90506000600254826102a09190610a0d565b9050600081600154901c9050655af3107a400081116102c557655af3107a40006102c7565b805b935050505090565b60008054906101000a900473ffffffffffffffffffffffffffffffffffffffff1681565b60035481565b6000600754338360405160200161031293929190610aa7565b60405160208183030381529060405280519060200120905060008160001c9050600073ffffffffffffffffffffffffffffffffffffffff16600860009054906101000a900473ffffffffffffffffffffffffffffffffffffffff1673ffffffffffffffffffffffffffffffffffffffff161480610390575060095481105b156104355733600860006101000a81548173ffffffffffffffffffffffffffffffffffffffff021916908373ffffffffffffffffffffffffffffffffffffffff1602179055508060098190555081600a819055503373ffffffffffffffffffffffffffffffffffffffff167f7aeb851cedcce13b7edbc79682c5cae287417c82025da2f9fd469a653bf47200848360405161042c929190610ae4565b60405180910390a25b505050565b60025481565b60095481565b600860009054906101000a900473ffffffffffffffffffffffffffffffffffffffff1681565b60045460055461047c9190610b0d565b4210156104be576040517f08c379a00000000000000000000000000000000000000000000000000000000081526004016104b590610b9e565b60405180910390fd5b600073ffffffffffffffffffffffffffffffffffffffff16600860009054906101000a900473ffffffffffffffffffffffffffffffffffffffff1673ffffffffffffffffffffffffffffffffffffffff161461063357600061051e61027d565b905060008054906101000a900473ffffffffffffffffffffffffffffffffffffffff1673ffffffffffffffffffffffffffffffffffffffff166340c10f19600860009054906101000a900473ffffffffffffffffffffffffffffffffffffffff16836040518363ffffffff1660e01b815260040161059d929190610bbe565b600060405180830381600087803b1580156105b757600080fd5b505af11580156105cb573d6000803e3d6000fd5b505050506007547f131b90b0b17f70b8bf8a6ae2fe2b36c8f64bffde76602ce01ec0a7dc2e3ba57d600860009054906101000a900473ffffffffffffffffffffffffffffffffffffffff1683604051610625929190610bbe565b60405180910390a250610671565b6007547f131b90b0b17f70b8bf8a6ae2fe2b36c8f64bffde76602ce01ec0a7dc2e3ba57d600080604051610668929190610c22565b60405180910390a25b6002546003546106819190610b0d565b42106106d157426003819055507ff92b4d3a8d8ba77170dd5cf6b65260191092093f924263a88c3c60dd8495f09160016106b961027d565b901c6040516106c891906107f8565b60405180910390a15b6106d96106ff565b565b60075481565b60015481565b60055481565b60065481565b600a5481565b60045481565b6007600081548092919061071290610c4b565b91905055504260058190555060045460055461072e9190610b0d565b6006819055506000600860006101000a81548173ffffffffffffffffffffffffffffffffffffffff021916908373ffffffffffffffffffffffffffffffffffffffff1602179055507fffffffffffffffffffffffffffffffffffffffffffffffffffffffffffffffff6009819055506007547fa359b664a68acd8839e42112eb50eff3408165e15074fde89ddb58a0db2e691d6005546006546040516107d5929190610ae4565b60405180910390a2565b6000819050919050565b6107f2816107df565b82525050565b600060208201905061080d60008301846107e9565b92915050565b600073ffffffffffffffffffffffffffffffffffffffff82169050919050565b6000819050919050565b600061085861085361084e84610813565b610833565b610813565b9050919050565b600061086a8261083d565b9050919050565b600061087c8261085f565b9050919050565b61088c81610871565b82525050565b60006020820190506108a76000830184610883565b92915050565b600080fd5b6108bb816107df565b81146108c657600080fd5b50565b6000813590506108d8816108b2565b92915050565b6000602082840312156108f4576108f36108ad565b5b6000610902848285016108c9565b91505092915050565b600061091682610813565b9050919050565b6109268161090b565b82525050565b6000602082019050610941600083018461091d565b92915050565b6000819050919050565b61095a81610947565b82525050565b60006020820190506109756000830184610951565b92915050565b7f4e487b7100000000000000000000000000000000000000000000000000000000600052601160045260246000fd5b60006109b5826107df565b91506109c0836107df565b92508282039050818111156109d8576109d761097b565b5b92915050565b7f4e487b7100000000000000000000000000000000000000000000000000000000600052601260045260246000fd5b6000610a18826107df565b9150610a23836107df565b925082610a3357610a326109de565b5b828204905092915050565b6000819050919050565b610a59610a54826107df565b610a3e565b82525050565b60008160601b9050919050565b6000610a7782610a5f565b9050919050565b6000610a8982610a6c565b9050919050565b610aa1610a9c8261090b565b610a7e565b82525050565b6000610ab38286610a48565b602082019150610ac38285610a90565b601482019150610ad38284610a48565b602082019150819050949350505050565b6000604082019050610af960008301856107e9565b610b0660208301846107e9565b9392505050565b6000610b18826107df565b9150610b23836107df565b9250828201905080821115610b3b57610b3a61097b565b5b92915050565b600082825260208201905092915050565b7f526f756e64206d696e696d756d206475726174696f6e206e6f74206d65740000600082015250565b6000610b88601e83610b41565b9150610b9382610b52565b602082019050919050565b60006020820190508181036000830152610bb781610b7b565b9050919050565b6000604082019050610bd3600083018561091d565b610be060208301846107e9565b9392505050565b6000819050919050565b6000610c0c610c07610c0284610be7565b610833565b6107df565b9050919050565b610c1c81610bf1565b82525050565b6000604082019050610c37600083018561091d565b610c446020830184610c13565b9392505050565b6000610c56826107df565b91507fffffffffffffffffffffffffffffffffffffffffffffffffffffffffffffffff8203610c8857610c8761097b565b5b60018201905091905056fea2646970667358221220cf96a59ffd440290bb9eccd6eb4f14cddb05e600c1ac22be9688150fef2ef44464736f6c63430008140033",
  "linkReferences": {},
  "deployedLinkReferences": {}
}