{
  "_format": "hh-sol-artifact-1",
  "contractName": "BohriumMining",
  "sourceName": "contracts/BohriumMining.sol",
  "abi": [
    {
      "inputs": [
        {
          "internalType": "address",
          "name": "_bohriumTokenAddress",
          "type": "address"
        }
      ],
      "stateMutability": "nonpayable",
      "type": "constructor"
    },
    {
      "anonymous": false,
      "inputs": [
        {
          "indexed": true,
          "internalType": "address",
          "name": "miner",
          "type": "address"
        },
        {
          "indexed": true,
          "internalType": "uint256",
          "name": "blockHeight",
          "type": "uint256"
        },
        {
          "indexed": false,
          "internalType": "uint256",
          "name": "nonce",
          "type": "uint256"
        },
        {
          "indexed": false,
          "internalType": "uint256",
          "name": "reward",
          "type": "uint256"
        },
        {
          "indexed": false,
          "internalType": "uint256",
          "name": "timeTaken",
          "type": "uint256"
        }
      ],
      "name": "BlockMined",
      "type": "event"
    },
    {
      "anonymous": false,
      "inputs": [
        {
          "indexed": false,
          "internalType": "uint256",
          "name": "newDifficulty",
          "type": "uint256"
        }
      ],
      "name": "DifficultyAdjusted",
      "type": "event"
    },
    {
      "anonymous": false,
      "inputs": [
        {
          "indexed": false,
          "internalType": "uint256",
          "name": "newReward",
          "type": "uint256"
        }
      ],
      "name": "RewardHalved",
      "type": "event"
    },
    {
      "inputs": [],
      "name": "DIFFICULTY_ADJUSTMENT_BLOCKS",
      "outputs": [
        {
          "internalType": "uint256",
          "name": "",
          "type": "uint256"
        }
      ],
      "stateMutability": "view",
      "type": "function"
    },
    {
      "inputs": [],
      "name": "HALVING_INTERVAL",
      "outputs": [
        {
          "internalType": "uint256",
          "name": "",
          "type": "uint256"
        }
      ],
      "stateMutability": "view",
      "type": "function"
    },
    {
      "inputs": [],
      "name": "INITIAL_REWARD",
      "outputs": [
        {
          "internalType": "uint256",
          "name": "",
          "type": "uint256"
        }
      ],
      "stateMutability": "view",
      "type": "function"
    },
    {
      "inputs": [],
      "name": "TARGET_BLOCK_TIME",
      "outputs": [
        {
          "internalType": "uint256",
          "name": "",
          "type": "uint256"
        }
      ],
      "stateMutability": "view",
      "type": "function"
    },
    {
      "inputs": [],
      "name": "adjustmentStartTimestamp",
      "outputs": [
        {
          "internalType": "uint256",
          "name": "",
          "type": "uint256"
        }
      ],
      "stateMutability": "view",
      "type": "function"
    },
    {
      "inputs": [],
      "name": "blockHeight",
      "outputs": [
        {
          "internalType": "uint256",
          "name": "",
          "type": "uint256"
        }
      ],
      "stateMutability": "view",
      "type": "function"
    },
    {
      "inputs": [],
      "name": "bohriumToken",
      "outputs": [
        {
          "internalType": "contract IBohriumToken",
          "name": "",
          "type": "address"
        }
      ],
      "stateMutability": "view",
      "type": "function"
    },
    {
      "inputs": [],
      "name": "currentDifficulty",
      "outputs": [
        {
          "internalType": "uint256",
          "name": "",
          "type": "uint256"
        }
      ],
      "stateMutability": "view",
      "type": "function"
    },
    {
      "inputs": [],
      "name": "currentReward",
      "outputs": [
        {
          "internalType": "uint256",
          "name": "",
          "type": "uint256"
        }
      ],
      "stateMutability": "view",
      "type": "function"
    },
    {
      "inputs": [],
      "name": "lastBlockHash",
      "outputs": [
        {
          "internalType": "bytes32",
          "name": "",
          "type": "bytes32"
        }
      ],
      "stateMutability": "view",
      "type": "function"
    },
    {
      "inputs": [],
      "name": "lastBlockTimestamp",
      "outputs": [
        {
          "internalType": "uint256",
          "name": "",
          "type": "uint256"
        }
      ],
      "stateMutability": "view",
      "type": "function"
    },
    {
      "inputs": [],
      "name": "lastHalvingTimestamp",
      "outputs": [
        {
          "internalType": "uint256",
          "name": "",
          "type": "uint256"
        }
      ],
      "stateMutability": "view",
      "type": "function"
    },
    {
      "inputs": [
        {
          "internalType": "uint256",
          "name": "_difficulty",
          "type": "uint256"
        }
      ],
      "name": "setCurrentDifficulty",
      "outputs": [],
      "stateMutability": "nonpayable",
      "type": "function"
    },
    {
      "inputs": [
        {
          "internalType": "uint256",
          "name": "nonce",
          "type": "uint256"
        }
      ],
      "name": "submitBlock",
      "outputs": [],
      "stateMutability": "nonpayable",
      "type": "function"
    }
  ],
  "bytecode": "0x60a060405234801561001057600080fd5b50604051610d74380380610d7483398181016040528101906100329190610112565b8073ffffffffffffffffffffffffffffffffffffffff1660808173ffffffffffffffffffffffffffffffffffffffff1681525050426001819055504260028190555060107fffffffffffffffffffffffffffffffffffffffffffffffffffffffffffffffff901c6000819055506000801b6004819055505061013f565b600080fd5b600073ffffffffffffffffffffffffffffffffffffffff82169050919050565b60006100df826100b4565b9050919050565b6100ef816100d4565b81146100fa57600080fd5b50565b60008151905061010c816100e6565b92915050565b600060208284031215610128576101276100af565b5b6000610136848285016100fd565b91505092915050565b608051610c13610161600039600081816102f001526103e80152610c136000f3fe608060405234801561001057600080fd5b50600436106100e95760003560e01c80635c0ecfad1161008c57806385e63fc61161006657806385e63fc614610218578063a8e2f93514610236578063f44ff71214610252578063fcd4d27914610270576100e9565b80635c0ecfad146101c05780635fd9491d146101de57806373e9710f146101fc576100e9565b806336bcf7d6116100c857806336bcf7d614610148578063391e0d0914610166578063474c9ea2146101845780635c062d6c146101a2576100e9565b8062d4d2a0146100ee57806307621eca1461010c57806317ab667f1461012a575b600080fd5b6100f661028e565b604051610103919061070e565b60405180910390f35b610114610294565b604051610121919061070e565b60405180910390f35b6101326102ee565b60405161013f91906107a8565b60405180910390f35b610150610312565b60405161015d919061070e565b60405180910390f35b61016e61031e565b60405161017b919061070e565b60405180910390f35b61018c610324565b604051610199919061070e565b60405180910390f35b6101aa610329565b6040516101b7919061070e565b60405180910390f35b6101c861032f565b6040516101d591906107dc565b60405180910390f35b6101e6610335565b6040516101f3919061070e565b60405180910390f35b61021660048036038101906102119190610828565b61033d565b005b610220610553565b60405161022d919061070e565b60405180910390f35b610250600480360381019061024b9190610828565b610559565b005b61025a610563565b604051610267919061070e565b60405180910390f35b610278610569565b604051610285919061070e565b60405180910390f35b60055481565b600080600154426102a59190610884565b905060006301e13380826102b991906108e7565b9050600081678ac7230489e80000901c9050655af3107a400081116102e457655af3107a40006102e6565b805b935050505090565b7f000000000000000000000000000000000000000000000000000000000000000081565b678ac7230489e8000081565b60015481565b603c81565b60005481565b60045481565b6301e1338081565b6000336004546000548460405160200161035a94939291906109b4565b60405160208183030381529060405280519060200120905060008160001c90506000548111156103bf576040517f08c379a00000000000000000000000000000000000000000000000000000000081526004016103b690610a5f565b60405180910390fd5b6000600254426103cf9190610884565b90506103da8161056e565b60006103e4610294565b90507f000000000000000000000000000000000000000000000000000000000000000073ffffffffffffffffffffffffffffffffffffffff166340c10f1933836040518363ffffffff1660e01b8152600401610441929190610a8e565b600060405180830381600087803b15801561045b57600080fd5b505af115801561046f573d6000803e3d6000fd5b5050505083600481905550426002819055506003600081548092919061049490610ab7565b91905055506301e133806001546104ab9190610aff565b42106104f757426001819055507ff92b4d3a8d8ba77170dd5cf6b65260191092093f924263a88c3c60dd8495f0916104e1610294565b6040516104ee919061070e565b60405180910390a15b6003543373ffffffffffffffffffffffffffffffffffffffff167f29643f1d9d27232f03fde69ed2b07611552391828bd9ad615837e816c22fc35887848660405161054493929190610b33565b60405180910390a35050505050565b60025481565b8060008190555050565b60035481565b600581565b6000600560035461057f9190610b6a565b0361058c57426005819055505b426002819055506000600560016003546105a69190610aff565b6105b09190610b6a565b036106f2576000600554426105c59190610884565b905060006005603c6105d79190610b9b565b90506004816105e691906108e7565b8210156105fd576004816105fa91906108e7565b91505b60048161060a9190610b9b565b8211156106215760048161061e9190610b9b565b91505b600081836000546106329190610b9b565b61063c91906108e7565b9050600060017fffffffffffffffffffffffffffffffffffffffffffffffffffffffffffffffff901c9050600060207fffffffffffffffffffffffffffffffffffffffffffffffffffffffffffffffff901c90508083106106ab578183116106a457826106a6565b815b6106ad565b805b6000819055507f42ebc15644fe1ca39e719c989e249095a01e7bf6c4e2ea33889a7e33a7664caa6000546040516106e4919061070e565b60405180910390a150505050505b50565b6000819050919050565b610708816106f5565b82525050565b600060208201905061072360008301846106ff565b92915050565b600073ffffffffffffffffffffffffffffffffffffffff82169050919050565b6000819050919050565b600061076e61076961076484610729565b610749565b610729565b9050919050565b600061078082610753565b9050919050565b600061079282610775565b9050919050565b6107a281610787565b82525050565b60006020820190506107bd6000830184610799565b92915050565b6000819050919050565b6107d6816107c3565b82525050565b60006020820190506107f160008301846107cd565b92915050565b600080fd5b610805816106f5565b811461081057600080fd5b50565b600081359050610822816107fc565b92915050565b60006020828403121561083e5761083d6107f7565b5b600061084c84828501610813565b91505092915050565b7f4e487b7100000000000000000000000000000000000000000000000000000000600052601160045260246000fd5b600061088f826106f5565b915061089a836106f5565b92508282039050818111156108b2576108b1610855565b5b92915050565b7f4e487b7100000000000000000000000000000000000000000000000000000000600052601260045260246000fd5b60006108f2826106f5565b91506108fd836106f5565b92508261090d5761090c6108b8565b5b828204905092915050565b600061092382610729565b9050919050565b60008160601b9050919050565b60006109428261092a565b9050919050565b600061095482610937565b9050919050565b61096c61096782610918565b610949565b82525050565b6000819050919050565b61098d610988826107c3565b610972565b82525050565b6000819050919050565b6109ae6109a9826106f5565b610993565b82525050565b60006109c0828761095b565b6014820191506109d0828661097c565b6020820191506109e0828561099d565b6020820191506109f0828461099d565b60208201915081905095945050505050565b600082825260208201905092915050565b7f4861736820646f65736e2774206d65657420646966666963756c747900000000600082015250565b6000610a49601c83610a02565b9150610a5482610a13565b602082019050919050565b60006020820190508181036000830152610a7881610a3c565b9050919050565b610a8881610918565b82525050565b6000604082019050610aa36000830185610a7f565b610ab060208301846106ff565b9392505050565b6000610ac2826106f5565b91507fffffffffffffffffffffffffffffffffffffffffffffffffffffffffffffffff8203610af457610af3610855565b5b600182019050919050565b6000610b0a826106f5565b9150610b15836106f5565b9250828201905080821115610b2d57610b2c610855565b5b92915050565b6000606082019050610b4860008301866106ff565b610b5560208301856106ff565b610b6260408301846106ff565b949350505050565b6000610b75826106f5565b9150610b80836106f5565b925082610b9057610b8f6108b8565b5b828206905092915050565b6000610ba6826106f5565b9150610bb1836106f5565b9250828202610bbf816106f5565b91508282048414831517610bd657610bd5610855565b5b509291505056fea2646970667358221220057e00740748dc4adaa6f3261f512690d780da2a8724fd4021fb1068d7fd408a64736f6c63430008140033",
  "linkReferences": {},
  "deployedLinkReferences": {}
}